:020000040800F2
:1000000068220020210F0008210C0008230C0008A2
:10001000270C00082B0C00082F0C00080000000023
:10002000000000000000000000000000330C000889
:10003000350C0008000000003B290008370C0008C0
:100040003B0F00083B0F00083B0F00083B0F000868
:100050003B0F00083B0F00083B0F00083B0F000858
:100060003B0F00083B0F00083B0F00083B0F000848
:100070003B0F00083B0F00083B0F00083B0F000838
:100080003B0F00083B0F00083B0F00083B0F000828
:100090003B0F00083B0F00083B0F00083B0F000818
:1000A0003B0F00083B0F00083B0F00083B0F000808
:1000B0003B0F00083B0F00083B0F00083B0F0008F8
:1000C0003B0F00083B0F00083B0F00083B0F0008E8
:1000D0003B0F0008431E00083B0F00083B0F0008C1
:1000E0003B0F00083B0F00083B0F00083B0F0008C8
:1000F0003B0F00083B0F00083B0F00083B0F0008B8
:100100003B0F00083B0F00083B0F00083B0F0008A7
:100110003B0F00083B0F00083B0F00083B0F000897
:100120003B0F00083B0F00083B0F00083B0F000887
:100130003B0F00083B0F00083B0F00083B0F000877
:100140003B0F00083B0F00083B0F00083B0F000867
:100150003B0F00083B0F00083B0F00083B0F000857
:100160003B0F00083B0F00083B0F00083B0F000847
:100170003B0F00083B0F00083B0F00083B0F000837
:100180003B0F00083B0F000800F002F800F047F8B2
:100190000AA090E8000C82448344AAF10107DA45E2
:1001A00001D100F03CF8AFF2090EBAE80F0013F0ED
:1001B000010F18BFFB1A43F001031847A076000097
:1001C000C0760000103A24BF78C878C1FAD8520728
:1001D00024BF30C830C144BF04680C6070470000C1
:1001E0000023002400250026103A28BF78C1FBD840
:1001F000520728BF30C148BF0B607047702907F015
:100200002781642907F0E880732907F04C820020D9
:1002100070471FB507F004FB1FBD10B510BD07F0F8
:10022000CFFA1146FFF7F5FF00F0F7F907F0EDFA06
:1002300003B4FFF7F2FF03BC01F0A4FD50600260BD
:1002400041600860704748600160704710B504461F
:10025000D4E90010FFF7F7FF10BD00604060704761
:1002600070B505460C46214628462268FFF7E6FF92
:1002700070BD70B505460C46224628466168FFF7FA
:10028000DDFF70BD10B50446D4E90010FFF7DBFFB9
:1002900010BD10B504462046FFF7D8FF2046FFF7F3
:1002A000DCFF10BD70B504460D462046FFF7CEFFBB
:1002B00029462046FFF7D4FF70BD70B504460D46B1
:1002C0002046FFF7C3FF29462046FFF7D2FF70BD47
:1002D00001460868884201D1012070470020FCE7F0
:1002E00000210160704701460868704701460868B0
:1002F00008B90020704700E0096808680028FBD1B1
:100300000846F7E70A6802600860704770B505465E
:100310000C460020286000E0246820680028FBD1FB
:1003200021462846FFF7EEFF70BD70B505460E4624
:10033000144625B921463046FFF7E8FF70BD05E0B9
:100340002068A84201D12660356024682068002812
:10035000F6D100BFF2E70146086808B900207047EF
:100360000A6810680860002010601046F7E710B5B2
:10037000044607E02068006818B92046FFF7EBFF45
:1003800010BD246820680028F4D100BFF8E706E01B
:100390000A68824202D102680A6003E009680A68BA
:1003A000002AF5D100BF7047014600200A6801E02D
:1003B000401C1268002AFBD17047024605E008681D
:1003C000904201D101207047096808680028F6D1E1
:1003D00000BFF8E70146086808B90120704700200F
:1003E000FCE702465088884201D101207047002076
:1003F000FCE7418070470021418070470021017077
:100400007047022101707047012101707047014659
:100410000878022801D1012070470020FCE701463E
:100420000878012800D170470020FCE7014691F8C8
:10043000200008B9012070470020FCE7014691F830
:10044000200000F001007047014691F8200000F004
:1004500002007047014691F8200000F00400704748
:1004600090F8201021F0020180F82010704790F8D9
:10047000201021F0010180F82010704790F8201022
:1004800021F0040180F82010704790F8201041F00E
:10049000040180F82010704790F8201041F002010C
:1004A00080F820107047002180F820107047082144
:1004B00080F82010704790F8201041F0010180F87A
:1004C0002010704770B5044676A500BF04F10801FE
:1004D00077A006F017FF7AA006F014FF05F076FA71
:1004E000A04201D177A52DE094F82000072801D182
:1004F00076A527E094F82000062801D179A521E00F
:1005000094F82000052801D17AA51BE094F820007A
:10051000032801D17BA515E094F82000042801D11F
:100520006DA50FE094F82000022801D178A509E01C
:1005300094F82000012801D177A503E094F8200069
:1005400000B977A5294678A006F0DCFE5CA006F08D
:10055000D9FE79A0A16A06F0D5FE59A006F0D2FE18
:1005600079A0616A06F0CEFE55A006F0CBFED4E974
:100570000902811878A006F0C5FE51A006F0C2FE5F
:100580004FA006F0BFFE70BD06E077A006F0BAFEF1
:10059000C820002105F092FDF7E777A006F0B2FE33
:1005A0004FF4FA60002105F089FD77A006F0AAFE5D
:1005B000794805F0F9FC04461CB1214677A006F005
:1005C000A1FE4FF4FA60002105F078FD7CA006F052
:1005D00099FE714805F02AFD04461CB121467CA015
:1005E00006F090FE4FF4FA60002105F067FD80A050
:1005F00006F088FE684805F0DCFA04461CB1214686
:100600007FA006F07FFE07E05BA006F07BFE4FF4C4
:100610007A70002105F052FDF6E71FB54FF4E13086
:1006200001F0BDFB7FA006F06DFE04F0D5FE4FF497
:10063000FA7004F029F982A006F064FE14204FF449
:100640008061834A0323CDE90032CDE90210002303
:10065000AFF2CB027FA1504805F0F9FA04461CB175
:1006600021467EA006F04EFE87A006F04BFE142029
:100670004FF48061884A0423CDE90032CDE90210AD
:100680000023AFF2E90285A1864805F0E0FA0446AE
:100690001CB1214684A006F035FE04F0B7FF00200F
:1006A00004B010BD41424E4F524D414C000000007D
:1006B00074736B206E616D653A2025730000000035
:1006C0000A00000052554E4E494E470050454E44D8
:1006D00054494D454F55545F53555350454E44452D
:1006E0004400000050454E445F53555350454E441E
:1006F00045440000534C4545505F53555350454EBB
:100700004445440050454E4454494D454F555400CE
:1007100050454E4400000000534C45455000000039
:10072000524541445900000074736B207374617426
:100730003A2025730000000073746B2073697A659A
:100740003A2025640000000073746B2062617365B9
:100750003A2030782570000073746B20746F70201D
:100760003A203078257000007461736B3120727507
:100770006E6E696E670D0A007461736B322072755C
:100780006E6E696E670D0A0073757370656E642016
:100790007461736B310D0A007800002073757370FB
:1007A000656E64207461736B31206661696C212011
:1007B000636F6465203A202564200D0A0000000064
:1007C000726573756D65207461736B310D0A00007D
:1007D000726573756D65207461736B312066616934
:1007E0006C2120636F6465203A202564200D0A0087
:1007F00064657374726F79207461736B310D0A00D4
:1008000064657374726F79207461736B31206661F3
:10081000696C2120636F6465203A202564200D0AED
:100820000000000057656C636F6D6520746F205485
:10083000656E63656E744F532074696E790D0A009E
:10084000637265617465207461736B310D0A000019
:10085000680100207461736B3100000054656E63A1
:10086000656E744F532043726561746520746173C3
:100870006B31206661696C2120636F6465203A20CA
:100880002564200D0A0000006372656174652074A0
:1008900061736B320D0A0000680500207461736B90
:1008A00032000000F000002054656E63656E744FE6
:1008B0005320437265617465207461736B322066E6
:1008C00061696C2120636F6465203A202564200DE6
:1008D0000A00000050600260416008607047486094
:1008E0000160704710B50446D4E90010FFF7F7FF28
:1008F00010BD00604060704770B505460C4621464B
:1009000028462268FFF7E6FF70BD70B505460C4625
:10091000224628466168FFF7DDFF70BD10B504462A
:10092000D4E90010FFF7DBFF10BD10B504462046E8
:10093000FFF7D8FF2046FFF7DCFF10BD70B5044677
:100940000D462046FFF7CEFF29462046FFF7D4FF8D
:1009500070BD70B504460D462046FFF7C3FF29461B
:100960002046FFF7D2FF70BD01460868884201D1DA
:10097000012070470020FCE700210160704701461C
:10098000086870470146086808B90020704700E011
:10099000096808680028FBD10846F7E70A68026082
:1009A0000860704770B505460C460020286000E0DE
:1009B000246820680028FBD121462846FFF7EEFF77
:1009C00070BD70B505460E46144625B92146304621
:1009D000FFF7E8FF70BD05E02068A84201D126605E
:1009E0003560246820680028F6D100BFF2E7014690
:1009F000086808B9002070470A681068086000207D
:100A000010601046F7E710B5044607E0206800685C
:100A100018B92046FFF7EBFF10BD246820680028B6
:100A2000F4D100BFF8E706E00A68824202D102680A
:100A30000A6003E009680A68002AF5D100BF704720
:100A4000014600200A6801E0401C1268002AFBD120
:100A50007047024605E00868904201D101207047C6
:100A6000096808680028F6D100BFF8E70146086861
:100A700008B9012070470020FCE7024650888842F0
:100A800001D1012070470020FCE741807047002120
:100A9000418070470021017070470221017070474A
:100AA00001210170704701460878022801D1012018
:100AB00070470020FCE701460878012800D1704704
:100AC0000020FCE7014691F8200008B9012070479A
:100AD0000020FCE7014691F8200000F0010070477B
:100AE000014691F8200000F002007047014691F89D
:100AF000200000F00400704790F8201021F002015F
:100B000080F82010704790F8201021F0010180F843
:100B10002010704790F8201021F0040180F8201078
:100B2000704790F8201041F0040180F820107047C1
:100B300090F8201041F0020180F820107047002149
:100B400080F820107047082180F82010704790F836
:100B5000201041F0010180F82010704770B5044664
:100B60003AA500BF04F108013BA006F0CBFB3EA074
:100B700006F0C8FB04F02AFFA04201D13BA52DE0FE
:100B800094F82000072801D13AA527E094F8200026
:100B9000062801D13DA521E094F82000052801D1C7
:100BA0003EA51BE094F82000032801D13FA515E0E5
:100BB00094F82000042801D131A50FE094F820001A
:100BC000022801D13CA509E094F82000012801D1B8
:100BD0003BA503E094F8200000B93BA529463CA0C2
:100BE00006F090FB20A006F08DFB3DA0A16A06F068
:100BF00089FB1DA006F086FB3DA0616A06F082FB22
:100C000019A006F07FFBD4E9090281183CA006F088
:100C100079FB15A006F076FB13A006F073FB70BD00
:100C2000704700BFFEE700BFFEE700BFFEE700BF62
:100C3000FEE77047704710B504F0EAFB28B104F0F6
:100C4000EEFB05F0D9FD04F016FC10BD41424E4FFD
:100C5000524D414C0000000074736B206E616D6555
:100C60003A202573000000000A00000052554E4E45
:100C7000494E470050454E4454494D454F55545FE9
:100C800053555350454E44454400000050454E4492
:100C90005F53555350454E4445440000534C454521
:100CA000505F53555350454E4445440050454E44C3
:100CB00054494D454F55540050454E4400000000E6
:100CC000534C454550000000524541445900000036
:100CD00074736B20737461743A20257300000000F4
:100CE00073746B2073697A653A20256400000000F4
:100CF00073746B20626173653A2030782570000050
:100D000073746B20746F70203A2030782570000067
:100D10000CB50020019000907648006840F48030C7
:100D20007449086000BF7348006800F40030009008
:100D30000198401C0190009818B90198B0F5A04F97
:100D4000F1D16C48006800F4003010B1012000902F
:100D500001E0002000900098012846D1654840300D
:100D6000006840F080506349403108606248006884
:100D700040F44040604908605E48083000685D49C2
:100D8000083108600846006840F4004008600846E2
:100D9000006840F4A05008605848091F0860081F08
:100DA000006840F08070091F086000BF514800686B
:100DB00000F000700028F9D040F20570504908603A
:100DC0004C480830006820F003004A4908310860A8
:100DD0000846006840F00200086000BF454808303F
:100DE000006800F00C000828F8D10CBD10B545488B
:100DF000006840F47000434908603E48006840F0D5
:100E000001003C49086000203A490831086039482F
:100E100000683D490840374908603C48091D0860A2
:100E2000081F006820F48020091F08600020314955
:100E30000C310860FFF76CFF4FF0006031498039DA
:100E4000086010BD70B5002000220223002402219A
:100E5000284D08352D6805F00C0020B1042806D077
:100E6000082834D107E02A4D2A4E356033E02A4D58
:100E7000284E35602FE01F4D2D1D2D68C5F3805481
:100E80001C4D2D1D2D6805F03F0154B1224DB5FBC1
:100E9000F1F5184E361D3668C6F3881605FB06F2C6
:100EA00009E01B4DB5FBF1F5124E361D3668C6F351
:100EB000881605FB06F20F4D2D1D2D68C5F3014563
:100EC0006D1C6B00B2FBF3F5124E356003E0104D64
:100ED000104E356000BF00BF064D08352D68C5F3C4
:100EE00003150E4E705D0B4D2D68C540094E3560E3
:100EF00070BD0000003802400070004008544007F8
:100F0000003C024088ED00E0FFFFF6FE10300024B8
:100F10000024F4000000002000127A0004000020E9
:100F20000948804709480047FEE7FEE7FEE7FEE77D
:100F3000FEE7FEE7FEE7FEE7FEE7FEE704480549B9
:100F4000054A064B70470000ED0D000889010008B6
:100F5000681C002068220020681E0020681E0020F7
:100F600032490143324A1160704770B500210023B5
:100F70000F22C4781CB32E4C246804F4E064C4F53A
:100F8000E064C4F30721C1F10404E3B20A414478E8
:100F90009C40E1B28478144021430C07210E254C7B
:100FA00005786155047804F01F050124AC400578EC
:100FB0006D11AD0005F1E025C5F8004109E00478A8
:100FC00004F01F050124AC401B4D0678761145F84E
:100FD000264070BD194A0A400243154B1B1F1A6078
:100FE000704739B1124A121D12680243104B1B1D83
:100FF0001A6006E00E4A121D126882430C4B1B1D3C
:101000001A607047042808D14FF0E021096941F0C7
:1010100004014FF0E022116107E04FF0E02109697F
:1010200021F004014FF0E022116170470000FA0541
:101030000CED00E000E400E080E100E080FFFF1F35
:1010400010B504469848844208D10121084600F0B2
:1010500086FB0021012000F082FB76E09348844269
:1010600008D10121022000F07AFB0021022000F0CB
:1010700076FB6AE08E48844208D10121042000F00A
:101080006EFB0021042000F06AFB5EE08948844288
:1010900008D10121082000F062FB0021082000F0A7
:1010A0005EFB52E08448844208D10121102000F008
:1010B00056FB0021102000F052FB46E07F4884429E
:1010C00008D10121202000F04AFB0021202000F05F
:1010D00046FB3AE07A48844208D10121402000F0E2
:1010E0003EFB0021402000F03AFB2EE07548844290
:1010F00008D10121802000F032FB0021802000F087
:101100002EFB22E07048844208D10121801500F0B6
:1011100026FB0021A01500F022FB16E06B4884425C
:1011200008D10121401500F01AFB0021601500F0E4
:1011300016FB0AE06648844207D10121001500F041
:101140000EFB0021201500F00AFB10BDF0B50A4689
:1011500000210023002400BF3DE0012505FA01F332
:10116000156805EA03049C4234D105684F00032644
:10117000BE40B543056015794E00B540066835435D
:1011800005601579012D02D01579022D16D18568DB
:101190004F000326BE40B543856055794E00B540EB
:1011A000866835438560456801268E40B5434560B5
:1011B000456896798E40B6B235434560C5684F00A4
:1011C0000326BE40B543C560D5794E00B540C6681C
:1011D0003543C560491C1029BFD3F0BD4FF6FF71E0
:1011E00001600021017141718171C171704708B5C1
:1011F0004FF480320092009A0A430092009AC26132
:10120000C161009AC261C2690092C269009208BDC0
:101210000246002013690B400BB1012000E00020C2
:1012200070470146086980B2704702460020536942
:101230000B400BB1012000E00020704701464869D7
:1012400080B2704701837047418370470AB10183C0
:1012500000E0418370474161704742694A40426102
:101260007047F0B5002300244D07ED0E02FA05F398
:10127000CE1000F1200555F826504E07F70E0F2628
:10128000BE40B543CF1000F1200646F82750CE10DF
:1012900000F1200555F8265045EA0304CE1000F170
:1012A000200545F82640F0BD000002400004024041
:1012B00000080240000C02400010024000140240EE
:1012C00000180240001C024000200240002402409E
:1012D00000280240F948006840F00100F749086022
:1012E0000020F64908310860F4480068F4490840D5
:1012F000F2490860F348091D0860F348EF4984315A
:101300000860F0481038091D0860EC48006820F4B7
:101310008020EA4908600020E8490C310860E7496C
:101320008C31086070470021E44A921C117011460C
:101330000870704710B501460022002300204A11B2
:10134000012A02D1DD4C236808E0022A03D1DB4CDC
:101350007034236802E0D94C7434236801F01F0212
:10136000012494401C400CB1012000E0002010BD7D
:1013700038B5002000900024002500BF3120FFF781
:10138000D9FF05460098401C00900098B0F5A04F8A
:1013900001D0002DF2D03120FFF7CCFF08B101249D
:1013A00000E00024204638BD01460020C34A1068F2
:1013B00020F0F80040EAC10010607047C34908609F
:1013C00070470021BD4A703211701170012802D09F
:1013D00004280AD104E00121B84A7032117005E0F6
:1013E0000521B64A7032117000E000BF00BF70479F
:1013F000B7490860704770B5049C41EA8215012620
:10140000C6EB530645EA0645054345EA0465AB4E7F
:10141000361D356070BDAD4908667047820142EAED
:101420000172A64B84331A607047A84988667047DA
:1014300010B5830143EA016343EA02739F4C883489
:10144000236010BDA14908677047A049C864704770
:1014500002460020994B0833186820F0EC6042EAFD
:1014600001031843954B083318607047024600206B
:10147000924B0833186820F0784042EA0103184381
:101480008E4B083318607047014600208B4A0832A3
:10149000106820F003000843106070478748083048
:1014A000006800F00C00704701460020834A0832B3
:1014B000106820F0F00008431060704701460020DB
:1014C0007E4A0832106820F4E050084310607047EC
:1014D00001460020794A0832106820F4604040EA52
:1014E000C10010607047F0B50021002200240225E1
:1014F00000260223714F08373F6807F00C0121B125
:10150000042905D0082937D105E0724F076036E07D
:10151000714F076033E0694F3F1D3F68C7F3805646
:10152000664F3F1D3F6807F03F036EB16A4FB7FB40
:10153000F3F7DFF888C10CF1040CDCF800C0CCF341
:10154000881C07FB0CF40CE0624FB7FBF3F7DFF8E5
:101550006CC10CF1040CDCF800C0CCF3881C07FB58
:101560000CF4564F3F1D3F68C7F301477F1C7D00B9
:10157000B4FBF5F7076002E0564F076000BF00BFFD
:101580004E4F08373F6807F0F0010909534F7A5C66
:101590000768D7404760494F08373F6807F4E05174
:1015A000890A4E4F7A5C4768D7408760434F0837B7
:1015B0003F6807F46041490B484F7A5C4768D74061
:1015C000C760F0BD002100F44072B2F5407F0AD13F
:1015D0003A4A0832116821F4F811414A0240114395
:1015E000364A08321160354A70321268C0F30B0374
:1015F0001A43324B70331A607047354944390860DA
:101600007047334940390860704736490860704771
:1016100001460020294A8C32106820F01F004A1E23
:101620001043264A8C321060704701460020234A3E
:101630008C32106820F4F8504A1E40EA02201F4AFB
:101640008C3210607047014600201C4A8C321068B2
:1016500020F4401008431060704701460020174AEC
:101660008C32106820F44000084310607047014637
:101670000020124A8C32106820F440300843106079
:10168000704719490860704739B10C4A3032126806
:1016900002430A4B30331A6006E0084A30321268BF
:1016A0008243064B30331A607047F9B1034A343233
:1016B00012680243014B34331A601CE000380240C8
:1016C000FFFFF6EA103000240030002000004742FF
:1016D000800E47420024F40000127A00140000201B
:1016E000FFFCFF0F5C014742E01147428F4A12683E
:1016F00082438E4B1A60704739B18C4A121D1268B2
:1017000002438A4B1B1D1A6006E0884A121D1268AC
:101710008243864B1B1D1A60704739B1834A0C32D5
:1017200012680243814B0C331A6006E07F4A0C3288
:10173000126882437D4B0C331A60704739B17B4A83
:10174000103212680243794B10331A6006E0774A70
:10175000103212688243754B10331A60704739B1EA
:10176000724A243A12680243704B243B1A6006E026
:101770006E4A243A126882436C4B243B1A607047CD
:1017800039B16A4A203A12680243684B203B1A601A
:1017900006E0664A203A12688243644B203B1A6096
:1017A000704739B1614A1C3A126802435F4B1C3BD7
:1017B0001A6006E05D4A1C3A126882435B4B1C3B90
:1017C0001A60704739B1594A143A12680243574BAC
:1017D000143B1A6006E0554A143A12688243534B90
:1017E000143B1A60704739B1504A103A12680243EC
:1017F0004E4B103B1A6006E04C4A103A1268824386
:101800004A4B103B1A60704739B1484A1C32126883
:101810000243464B1C331A6006E0444A1C321268ED
:101820008243424B1C331A60704739B13F4A203221
:10183000126802433D4B20331A6006E03B4A2032D7
:1018400012688243394B20331A60704739B1374AE6
:10185000243212680243354B24331A6006E0334ABF
:10186000243212688243314B24331A60704739B1F5
:101870002E4A2C32126802432C4B2C331A6006E09D
:101880002A4A2C3212688243284B2C331A60704744
:1018900039B1264A303212680243244B30331A6081
:1018A00006E0224A303212688243204B30331A60FD
:1018B0007047012808D11D493C31096841F00801F1
:1018C0001A4A3C32116007E018493C31096821F09E
:1018D0000801164A3C321160704739B1134A273A61
:1018E00012780243114B273B1A7006E00F4A273A41
:1018F000127882430D4B273B1A7070470B484030DB
:10190000006840F080700949403108607047014626
:101910000020064A283A12680A400AB1012000E075
:10192000002070470149263908707047343802405A
:1019300010B50446FA48844208D101211020FFF76F
:1019400052FF00211020FFF74EFF57E0F548844278
:1019500009D101214804FFF735FF00214FF4003081
:10196000FFF730FF4AE0F048844209D101218804A2
:10197000FFF728FF00214FF48020FFF723FF3DE011
:10198000EA48844209D10121C804FFF71BFF002166
:101990004FF40020FFF716FF30E0E548844209D1FC
:1019A00001210805FFF70EFF00214FF48010FFF71B
:1019B00009FF23E0DF48844208D101212020FFF7FE
:1019C00012FF00212020FFF70EFF17E0DA488442C3
:1019D00009D101218807FFF7F5FE00214FF0804073
:1019E000FFF7F0FE0AE0D548844207D10121400507
:1019F000FFF7E8FE00216005FFF7E4FE10BD2DE9CA
:101A0000FF4705460E460024A14600BFA046B08908
:101A100000B100BF2C8A24F44054F08804432C8287
:101A2000AC8941F20C608443B088318908437189E4
:101A300008430443AC81AC8A24F44074B089044365
:101A4000AC826846FFF74FFDB548854202D0B948E1
:101A5000854202D1DDF80C9001E0DDF80890A889FC
:101A600000F4004040B109EBC90000EB09103168F7
:101A70004900B0FBF1F707E009EBC90000EB0910E2
:101A800031688900B0FBF1F76420B7FBF0F0040186
:101A90002009642101FB1078A88900F4004040B1BE
:101AA000322000EBC800B0FBF1F000F00700044367
:101AB00008E0322000EB08106421B0FBF1F000F0E8
:101AC0000F0004432C81BDE8FF874FF416510160DD
:101AD00000218180C18001810C214181002181810F
:101AE000704710B502460020108A20F470600B8801
:101AF0004C8823438C882343CC882343184310828B
:101B000010BD0021018041808180C180704721B1DA
:101B1000828942F40052828104E082894DF6FF738B
:101B20001A4082817047028B02F47F420283028B4B
:101B30000A430283704721B1828942F400428281C4
:101B400003E08289C2F30E028281704721B1828A4A
:101B500042F40062828204E0828A4FF2FF731A40EC
:101B600082827047C1F308028280704701468888EC
:101B7000C0F308007047028A4FF6F0731A400282E1
:101B8000028A0A430282704721B1828942F002022E
:101B9000828104E082894FF6FD731A40828170478A
:101BA00082894FF2FF731A40828182890A438281BF
:101BB0007047028A4FF6DF731A400282028A0A4394
:101BC0000282704721B1028A42F48042028204E01C
:101BD000028A4BF6FF731A4002827047818941F0F6
:101BE00001018181704721B1828A42F0080282821C
:101BF00004E0828A4FF6F7731A4082827047028BA4
:101C0000D2B20283028B42EA01220283704721B1E1
:101C1000828A42F02002828204E0828A4FF6DF73D9
:101C20001A408282704721B1828A42F01002828279
:101C300004E0828A4FF6EF731A4082827047828AEC
:101C40004FF6FB731A408282828A0A43828270476F
:101C500021B1828A42F00202828204E0828A4FF637
:101C6000FD731A40828270471AB1838A0B438382C4
:101C700002E0838A8B4383827047F0B503460024D9
:101C800000260025002040F66A17B94200D100BFA7
:101C90001846C1F3421401F01F06012707FA06F5A2
:101CA000012C01D10C3004E0022C01D1103000E0F5
:101CB00014301AB107682F43076002E00768AF438A
:101CC0000760F0BD02460020B1F5007F00D100BFE3
:101CD00013880B400BB1012000E00020704701F495
:101CE0000072B2F5007F00D100BFCA430280704786
:101CF00070B50246002400230025002040F66A1635
:101D0000B14200D100BFC1F3421501F01F0301260B
:101D100006FA03F3012D13D19689334017E0000032
:101D2000001001400044004000480040004C0040CA
:101D3000005000400014014000780040007C00404A
:101D4000022D02D1168A334001E0968A33400C12EC
:101D5000012606FA04F41688344013B10CB10120B0
:101D600000E0002070BD10B50022002340F66A1488
:101D7000A14200D100BF0A1201249440A3B2DC4367
:101D8000048010BD00BF704700BF4C4A128802F0AB
:101D90004002002AF9D0C2B2484B9A80704710B571
:101DA00088B0044601210846FFF76EFC012110208F
:101DB000FFF7C4FC072209214148FFF752FA072226
:101DC0000A213F48FFF74DFA4FF4C0600690022009
:101DD0008DF81C008DF81D0000208DF81E000120DC
:101DE0008DF81F0006A93648FFF7B0F902940020CD
:101DF000ADF80C00ADF80E00ADF81000ADF8140011
:101E00000C20ADF8120002A92C48FFF7F8FD0121C3
:101E10002A48FFF77CFE012240F225512748FFF7B0
:101E20002CFF25208DF8040003208DF805008DF887
:101E3000060001208DF8070001A8FFF796F808B00A
:101E400010BD10B540F225511C48FFF751FF10B3EB
:101E50001A48FFF78BFEC4B21A48008800F400400D
:101E6000C8B91848008800F4804060B10A2C03D03B
:101E700000201449088020E01248008840F4004007
:101E80001049088019E00D2C06D10E48008840F456
:101E900080400C49088010E00A480088C0F30D001B
:101EA00009490C5407480088401C06490880084628
:101EB0000088C72801DD0020088010BD0010014007
:101EC00000000240280000206809002050600260E5
:101ED00041600860704748600160704710B5044673
:101EE000D4E90010FFF7F7FF10BD006040607047B5
:101EF00070B505460C46214628462268FFF7E6FFE6
:101F000070BD70B505460C46224628466168FFF74D
:101F1000DDFF70BD10B50446D4E90010FFF7DBFF0C
:101F200010BD10B504462046FFF7D8FF2046FFF746
:101F3000DCFF10BD70B504460D462046FFF7CEFF0E
:101F400029462046FFF7D4FF70BD70B504460D4604
:101F50002046FFF7C3FF29462046FFF7D2FF70BD9A
:101F600001460868884201D1012070470020FCE743
:101F70000021016070470146086870470146086803
:101F800008B90020704700E0096808680028FBD104
:101F90000846F7E70A6802600860704770B50546B2
:101FA0000C460020286000E0246820680028FBD14F
:101FB00021462846FFF7EEFF70BD70B505460E4678
:101FC000144625B921463046FFF7E8FF70BD05E00D
:101FD0002068A84201D12660356024682068002866
:101FE000F6D100BFF2E70146086808B90020704743
:101FF0000A6810680860002010601046F7E710B506
:10200000044607E02068006818B92046FFF7EBFF98
:1020100010BD246820680028F4D100BFF8E706E06E
:102020000A68824202D102680A6003E009680A680D
:10203000002AF5D100BF7047014600200A6801E080
:10204000401C1268002AFBD17047024605E0086870
:10205000904201D101207047096808680028F6D134
:1020600000BFF8E70146086808B901207047002062
:10207000FCE702465088884201D1012070470020C9
:10208000FCE74180704700214180704700210170CA
:1020900070470221017070470121017070470146AD
:1020A0000878022801D1012070470020FCE7014692
:1020B0000878012800D170470020FCE7014691F81C
:1020C000200008B9012070470020FCE7014691F884
:1020D000200000F001007047014691F8200000F058
:1020E00002007047014691F8200000F0040070479C
:1020F00090F8201021F0020180F82010704790F82D
:10210000201021F0010180F82010704790F8201075
:1021100021F0040180F82010704790F8201041F061
:10212000040180F82010704790F8201041F002015F
:1021300080F820107047002180F820107047082197
:1021400080F82010704790F8201041F0010180F8CD
:102150002010704770B5044678A500BF04F108014F
:1021600079A005F0CFF87CA005F0CCF803F02EFCA8
:10217000A04201D179A52DE094F82000072801D1D3
:1021800078A527E094F82000062801D17BA521E05E
:1021900094F82000052801D17CA51BE094F82000CC
:1021A000032801D17DA515E094F82000042801D171
:1021B0006FA50FE094F82000022801D17AA509E06C
:1021C00094F82000012801D179A503E094F82000BB
:1021D00000B979A529467AA005F094F85EA005F02B
:1021E00091F87BA0A16A05F08DF85BA005F08AF854
:1021F0007BA0616A05F086F857A005F083F8D4E962
:10220000090281187AA005F07DF853A005F07AF84C
:1022100051A005F077F870BD10B50446204600F0D7
:1022200052FB10BD10B500F043FB10BD10B500F01F
:1022300041FB10BD10B500F03FFB10BD10B50446CA
:10224000204600F03DFB10BD10B50446002000F014
:10225000BFFA204600F0A3FA10BD10B568480CC8BC
:102260006848002104F0D7FF674908600846006805
:10227000FFF7EAFF10BD10B500F07EFA10BD00F0C8
:1022800025FB10B500F04FFB10BD10B500F050FB62
:1022900010BDF0B50446059D581920F007004FF019
:1022A0008077061F30463760061F30463460061FB1
:1022B000304632604FF01237061F304637604FF01D
:1022C0000337061F304637604FF00237061F30468F
:1022D00037607F10061F30463760061F304631607A
:1022E0006FF00207061F304637604FF01137061FA8
:1022F000304637604FF01037061F304637604FF0DA
:102300000937061F304637604FF00837061F304642
:1023100037604FF00737061F304637604FF00637FB
:10232000061F304637604FF00537061F30463760CE
:102330004FF00437061F30463760F0BD41424E4F24
:10234000524D414C0000000074736B206E616D654E
:102350003A202573000000000A00000052554E4E3E
:10236000494E470050454E4454494D454F55545FE2
:1023700053555350454E44454400000050454E448B
:102380005F53555350454E4445440000534C45451A
:10239000505F53555350454E4445440050454E44BC
:1023A00054494D454F55540050454E4400000000DF
:1023B000534C45455000000052454144590000002F
:1023C00074736B20737461743A20257300000000ED
:1023D00073746B2073697A653A20256400000000ED
:1023E00073746B20626173653A2030782570000049
:1023F00073746B20746F70203A2030782570000061
:102400004800002000B4C4045000002010B500288B
:1024100007DA0A07140EF24A00F00F031B1FD45408
:1024200003E00A07130EEF4A135410BD5060026018
:1024300041600860704748600160704710B504460D
:10244000D4E90010FFF7F7FF10BD0060406070474F
:1024500070B505460C46214628462268FFF7E6FF80
:1024600070BD70B505460C46224628466168FFF7E8
:10247000DDFF70BD10B50446D4E90010FFF7DBFFA7
:1024800010BD10B504462046FFF7D8FF2046FFF7E1
:10249000DCFF10BD70B504460D462046FFF7CEFFA9
:1024A00029462046FFF7D4FF70BD70B504460D469F
:1024B0002046FFF7C3FF29462046FFF7D2FF70BD35
:1024C00001460868884201D1012070470020FCE7DE
:1024D000002101607047014608687047014608689E
:1024E00008B90020704700E0096808680028FBD19F
:1024F0000846F7E70A6802600860704770B505464D
:102500000C460020286000E0246820680028FBD1E9
:1025100021462846FFF7EEFF70BD70B505460E4612
:10252000144625B921463046FFF7E8FF70BD05E0A7
:102530002068A84201D12660356024682068002800
:10254000F6D100BFF2E70146086808B900207047DD
:102550000A6810680860002010601046F7E710B5A0
:10256000044607E02068006818B92046FFF7EBFF33
:1025700010BD246820680028F4D100BFF8E706E009
:102580000A68824202D102680A6003E009680A68A8
:10259000002AF5D100BF7047014600200A6801E01B
:1025A000401C1268002AFBD17047024605E008680B
:1025B000904201D101207047096808680028F6D1CF
:1025C00000BFF8E70146086808B9012070470020FD
:1025D000FCE702465088884201D101207047002064
:1025E000FCE7418070470021418070470021017065
:1025F0007047022101707047012101707047014648
:102600000878022801D1012070470020FCE701462C
:102610000878012800D170470020FCE7014691F8B6
:10262000200008B9012070470020FCE7014691F81E
:10263000200000F001007047014691F8200000F0F2
:1026400002007047014691F8200000F00400704736
:1026500090F8201021F0020180F82010704790F8C7
:10266000201021F0010180F82010704790F8201010
:1026700021F0040180F82010704790F8201041F0FC
:10268000040180F82010704790F8201041F00201FA
:1026900080F820107047002180F820107047082132
:1026A00080F82010704790F8201041F0010180F868
:1026B0002010704770B504464BA500BF04F1080117
:1026C0004CA004F01FFE4FA004F01CFE03F07EF9A6
:1026D000A04201D14CA52DE094F82000072801D19B
:1026E0004BA527E094F82000062801D14EA521E053
:1026F00094F82000052801D14FA51BE094F8200094
:10270000032801D150A515E094F82000042801D138
:1027100042A50FE094F82000022801D14DA509E060
:1027200094F82000012801D14CA503E094F8200082
:1027300000B94CA529464DA004F0E4FD31A004F0F9
:10274000E1FD4EA0A16A04F0DDFD2EA004F0DAFD4B
:102750004EA0616A04F0D6FD2AA004F0D3FDD4E9AE
:10276000090281184DA004F0CDFD26A004F0CAFD99
:1027700024A004F0C7FD70BD00BFBFF34F8F184801
:102780000C38006800F4E06048490843001D144913
:102790000C390860BFF34F8F00BF00BFFEE770B574
:1027A00004462546681EB0F1807F00D30FE0681E06
:1027B0004FF0E02148610F214FF0FF30FFF726FE78
:1027C00000204FF0E02188610720086100BF70BD44
:1027D00010B5044621464FF0FF30FFF717FE10BD3D
:1027E00018ED00E000E400E041424E4F524D414CF4
:1027F0000000000074736B206E616D653A202573D4
:10280000000000000A00000052554E4E494E47009D
:1028100050454E4454494D454F55545F53555350C0
:10282000454E44454400000050454E445F535553C7
:1028300050454E4445440000534C4545505F535568
:102840005350454E4445440050454E4454494D452F
:102850004F55540050454E4400000000534C454530
:1028600050000000524541445900000074736B2031
:10287000737461743A2025730000000073746B2038
:1028800073697A653A2025640000000073746B2038
:10289000626173653A2030782570000073746B2094
:1028A000746F70203A203078257000000000FA051F
:1028B00072B6704762B67047EFF3108072B6704719
:1028C00080F310887047B0FA80F0704772B64EF609
:1028D0002250CEF2000040F2FF01C0F20001017070
:1028E00029480068006880F3088840F24000C2F27E
:1028F000000040F24401C2F200010A680260106860
:1029000080F30988EFF3148040F0020080F314880C
:10291000BFF36F8FBDE8F00F01BC0FBCBDE80050E6
:1029200006BC62B6084719484FF0805101607047F5
:1029300016484FF080510160704772B6EFF309807E
:102940001EF0100F08BF20ED108A40F804ED20E9BA
:10295000F00F40F24005C2F200052E68306040F2F0
:102960004401C2F200010A682A601068B0E8F00F62
:1029700050F804EB1EF0100F08BFB0EC108A80F383
:10298000098862B67047000008ED00E004ED00E041
:1029900050600260416008607047486001607047A5
:1029A00010B50446D4E90010FFF7F7FF10BD006032
:1029B0004060704770B505460C462146284622689F
:1029C000FFF7E6FF70BD70B505460C462246284667
:1029D0006168FFF7DDFF70BD10B50446D4E9001053
:1029E000FFF7DBFF10BD10B504462046FFF7D8FF08
:1029F0002046FFF7DCFF10BD70B504460D462046AB
:102A0000FFF7CEFF29462046FFF7D4FF70BD70B513
:102A100004460D462046FFF7C3FF29462046FFF730
:102A2000D2FF70BD01460868884201D1012070477D
:102A30000020FCE7002101607047014608687047EC
:102A40000146086808B90020704700E00968086876
:102A50000028FBD10846F7E70A6802600860704763
:102A600070B505460C460020286000E02468206808
:102A70000028FBD121462846FFF7EEFF70BD70B558
:102A800005460E46144625B921463046FFF7E8FFB5
:102A900070BD05E02068A84201D126603560246839
:102AA00020680028F6D100BFF2E70146086808B99F
:102AB000002070470A681068086000201060104607
:102AC000F7E710B5044607E02068006818B920460B
:102AD000FFF7EBFF10BD246820680028F4D100BF89
:102AE000F8E706E00A68824202D102680A6003E061
:102AF00009680A68002AF5D100BF70470146002026
:102B00000A6801E0401C1268002AFBD170470246A7
:102B100005E00868904201D1012070470968086803
:102B20000028F6D100BFF8E70146086808B901207F
:102B300070470020FCE702465088884201D10120FE
:102B400070470020FCE741807047002141807047BA
:102B5000002101707047022101707047012101704E
:102B6000704701460878022801D1012070470020F3
:102B7000FCE701460878012800D170470020FCE7F7
:102B8000014691F8200008B9012070470020FCE7B9
:102B9000014691F8200000F001007047014691F8CD
:102BA000200000F002007047014691F8200000F07C
:102BB0000400704790F8201021F0020180F82010E6
:102BC000704790F8201021F0010180F82010704724
:102BD00090F8201021F0040180F82010704790F840
:102BE000201041F0040180F82010704790F8201068
:102BF00041F0020180F820107047002180F8201079
:102C00007047082180F82010704790F8201041F09C
:102C1000010180F82010704770B50446F9A500BF87
:102C200004F10801FAA004F06DFBFDA004F06AFBBA
:102C300002F0CCFEA04201D1FAA52DE094F82000CC
:102C4000072801D1F9A527E094F82000062801D132
:102C5000FCA521E094F82000052801D1FDA51BE08A
:102C600094F82000032801D1FEA515E094F8200077
:102C7000042801D1F0A50FE094F82000022801D12A
:102C8000FBA509E094F82000012801D1FAA503E092
:102C900094F8200000B9FAA52946FBA004F032FB05
:102CA000DFA004F02FFBFCA0A16A04F02BFBDCA04A
:102CB00004F028FBFCA0616A04F024FBD8A004F017
:102CC00021FBD4E909028118FBA004F01BFBD4A06E
:102CD00004F018FBD2A004F015FB70BD10B504463B
:102CE0002046FFF799FAC0F1200010BD10B5044648
:102CF000E143491C04EA0100FFF7F0FF401E10BD4C
:102D000010B504462046FFF7E9FF401E10BD2DE92F
:102D1000F04104460F469046802C06D200252046FE
:102D2000E11704EB91718E1009E02046FFF7E8FFF0
:102D30000546681F44FA00F080F02006AD1F3D6094
:102D4000C8F80060BDE8F0812DE9F04104460E4668
:102D50001746802C08D32046FFF7D2FF401F0121E1
:102D600001FA00F0451E2C443A4631462046FFF752
:102D7000CEFFBDE8F0810146486820F003007047AF
:102D800010B504462046FFF7F6FF08B9012010BD34
:102D90000020FCE7027902F003020A434260704718
:102DA0000146087900F001007047416841F00101D7
:102DB00041607047416821F0010141607047014660
:102DC000087900F002007047416841F0020141605B
:102DD0007047416821F00201416070470146A1F14E
:102DE00008007047014601F108007047024650187C
:102DF00070470146086870472DE9F04104462046B7
:102E0000FFF7B9FF061F2046FFF7ECFF07463146E4
:102E1000FFF7ECFF05462846BDE8F08170B5044693
:102E20002046FFF7E9FF05462C60284670BD70B5C7
:102E300004462046FFF7F2FF05462846FFF7C4FF89
:102E40002046FFF7B2FF70BD70B504462046FFF77D
:102E5000D3FF05462846FFF7BCFF2046FFF7AAFF31
:102E600070BD0246481E10444B1E984370470246F0
:102E7000481E1040101A70470246481E10444B1E50
:102E80009843704730B5904C04EBC11454F822308D
:102E900083608D4C743CC460D860743404EBC114FE
:102EA00044F82200884C843C246A01258D402C4340
:102EB000854D843D2C6205F1240454F821500124F1
:102EC00094402C43804D603D45F8214030BD70B5A5
:102ED000C4688368DC60A3607B4D05EBC11555F8C1
:102EE0002250854220D1784D05EBC11545F822309E
:102EF000754D743DAB4217D1143555F8216001254D
:102F0000954026EA0505704E603E46F8215035464C
:102F100055F8215045B9A6F124052D6A01268E40A9
:102F2000B543694E843E356270BD7CB5044620468B
:102F3000FFF721FF05466A4601A9FFF7E8FE204694
:102F4000DDE90021FFF7C3FF7CBD7CB504462046C8
:102F5000FFF711FF05466A4601A9FFF7D8FE204694
:102F6000DDE90021FFF78EFF7CBD70B505460C46FC
:102F70002846FFF700FF04F11001884201D3012029
:102F800070BD0020FCE72DE9F04105460C462846BF
:102F9000FFF728FF8046211FFFF728FF0646284637
:102FA000FFF7E9FE211D471A39463046FFF7F2FECA
:102FB00021462846FFF7EEFE3046FFF738FF304641
:102FC000BDE8F08170B504460D462846FFF7D3FEF4
:102FD000001D6168084460602046FFF71FFF20461F
:102FE00070BD70B504462046FFF7E9FE40B12046AB
:102FF000FFF7FFFE05462846FFF797FF214665E0ED
:1030000068E0000041424E4F524D414C000000002C
:1030100074736B206E616D653A20257300000000AB
:103020000A00000052554E4E494E470050454E444E
:1030300054494D454F55545F53555350454E4445A3
:103040004400000050454E445F53555350454E4494
:1030500045440000534C4545505F53555350454E31
:103060004445440050454E4454494D454F55540045
:1030700050454E4400000000534C454550000000B0
:10308000524541445900000074736B20737461749D
:103090003A2025730000000073746B2073697A6511
:1030A0003A2025640000000073746B206261736530
:1030B0003A2030782570000073746B20746F702094
:1030C0003A20307825700000041000202846FFF7D1
:1030D00079FF0446204670BD70B504462046FFF7D0
:1030E0008BFE05462846FFF75BFE38B12846FFF702
:1030F0001CFF29462046FFF765FF0446204670BDA9
:1031000070B504460D4629462046FFF72EFF68B1EC
:1031100029462046FFF737FF06462046FFF77EFE8A
:103120003046FFF751FE3046FFF70FFF70BD70B518
:1031300004460D4629462046FFF717FF70B1294681
:103140002046FFF720FF06463046FFF742FE304696
:10315000FFF7C2FF06463046FFF7F7FE70BD70B5B9
:1031600004460D46264629462046FFF7FEFE68B176
:10317000291F2046FFF707FF06463046FFF724FECB
:103180002046FFF74BFE2046FFF7DFFE304670BDBE
:103190002DE9F04705460E462C683768F84850F888
:1031A00024004FF0FF31B94000EA0109B9F1000FE6
:1031B00016D1F3482438006A611C4FF0FF328A4070
:1031C00000EA0208B8F1000F02D10020BDE8F08744
:1031D0004046FFF78BFD04462C60E94850F82490E8
:1031E0004846FFF783FD07463760E548603000EB4F
:1031F000C41050F82700E9E77CB504460020019090
:103200000090002504B97CBD6A4601A92046FFF75D
:103210009BFD0198182804DA694601A8FFF7B8FF5A
:10322000054625B12846DDE90021FFF750FE284676
:10323000E9E770B505460E4600240DB9002070BDC3
:1032400031462846FFF70DFE044614B1B4F1804F15
:1032500001D90020F3E70C2C01D92046EFE70C2020
:10326000EDE770B504460D460CB9002070BD294647
:103270002046FFF745FF2046FFF7E6FD2046FFF713
:10328000B1FDF3E7BE4824380068032801D10120CE
:1032900070470020FCE70246002100BF08E0B84864
:1032A000203850F82100904201D101207047491C7C
:1032B000B348243800688842F1DC0020F6E7B049C2
:1032C00024390A680968491CAD4B243B1960191D53
:1032D00041F8220070470146002000BF07E0A84ADD
:1032E000203A52F820208A4200D105E0401CA44A2E
:1032F000243A12688242F2DC00BFA14A243A1268E2
:10330000521E82420BD09E4A243A1268521E9C4B97
:10331000203B53F822309A4A203A42F82030984A0B
:10332000243A1268521E964B243B1A6070470022C2
:10333000934B243B1A60002005E00023904A203A7A
:1033400042F82030401C0328F7DB8D4A143AA2F1E2
:1033500010039A61DA6100221A62002011E0002352
:10336000874A42F82030002108E0854A143A02F1E9
:10337000740303EBC01343F82120491C2029F4DB1C
:10338000401C1828EBDB704710B5FFF7D0FF00207A
:1033900010BD2DE9F04105460E46FFF773FF18B149
:1033A00040F22230BDE8F0812846FFF774FF10B1EB
:1033B00040F22330F6E7A6F108000421FFF757FD9D
:1033C000044605F0030010B14FF44870EAE70C2CF6
:1033D00002D3B4F1804F02D940F22130E2E76FF01E
:1033E00003012846FFF702FD074621463846FFF74E
:1033F000D1FC3846FFF7D9FC3846FFF7EAFC3846DF
:10340000FFF7A3FD3846FFF709FD8046002140463F
:10341000FFF7C0FC4046FFF7CDFC4046FFF7D4FC69
:103420002846FFF74CFF0020BCE770B504460D4668
:10343000FFF77DFF29462046FFF7ABFF70BD70B553
:103440000546B5F1804F01D9002070BD0421284602
:10345000FFF7EFFE06463046FFF7CEFE04460CB9F6
:103460000020F2E731462046FFF7FBFEEDE770B59E
:1034700004460D4604FB05F0FFF7E1FF064626B1C2
:1034800004FB05F1304604F052F8304670BD2DE9DA
:10349000F34F85B00E4604210598FFF7CAFE81461A
:1034A0004FF0100A09EB060101EB0A003146FFF765
:1034B000C0FE0390B9F1000F03D0042E01D9039888
:1034C00000E0484604900498FFF796FE8046B8F165
:1034D000000F03D1002007B0BDE8F08F4046FFF792
:1034E00081FC074631463846FFF7C6FC0546EC1B13
:1034F000A4B1544512D2AAEB040002900298B04243
:1035000001D9029800E030460190019805EB000BCC
:1035100031465846FFF7B0FC0546EC1B24B1214666
:103520004046FFF71CFE804649464046FFF799FE9D
:10353000D1E770B5044604B970BD2046FFF74EFCD4
:1035400005462846FFF773FC2846FFF74AFD054667
:103550002846FFF7C1FD05462846FFF7F6FC00BFE9
:10356000EAE72DE9F84F05460F464FF000084DB148
:1035700047B92846FFF7DDFF0020BDE8F88F0000BF
:10358000A40F00201DB93846FFF759FFF5E728467C
:10359000FFF724FC83465846FFF72EFC0090584660
:1035A000FFF7E9FB06460098FFF7E5FB304400F122
:1035B000040904213846FFF73CFE0446B4421BD9F7
:1035C0000098FFF7EDFB08B14C4515D93846FFF7D9
:1035D00036FF8046B8F1000F1BD0BE4201D2304604
:1035E00000E03846824652462946404603F05AFFDC
:1035F0002846FFF79EFF0CE0B44205D95846FFF776
:103600006BFD5846FFF720FC21465846FFF78FFD1B
:10361000A8464046B1E77CB50446002001900090E2
:1036200000BF0CB9012000E0002010B140F24C4076
:103630007CBD00BF2046FFF72EFE10B94FF4497045
:10364000F6E76FF003012046FFF7D0FB054628465A
:10365000FFF791FB06466A4601A9FFF758FB28468B
:10366000DDE90021FFF733FC2046FFF734FE0020A0
:10367000DEE770B506460C4600BF0EB9012000E03B
:10368000002010B140F24C4070BD00BF00BF0CB92B
:10369000012000E0002010B140F24C40F4E700BFF0
:1036A000002020606060011F3046FFF79FFB054649
:1036B00014E02846FFF774FB30B12846FFF75BFBA8
:1036C00061680844606005E02846FFF754FB216804
:1036D000084420602846FFF78FFB054625B12846A1
:1036E000FFF74EFB0028E4D00020CDE77CB5044670
:1036F00000BF0CB9012000E0002010B140F24C40A6
:103700007CBD00BF002020606060002512E00D49F4
:1037100051F825006946FFF7ACFF06460EB130466A
:10372000EEE76068019908446060206800990844E9
:1037300020606D1C0348001F0068A842E7DC0020E1
:10374000DEE70000840F00205060026041600860E6
:10375000704748600160704710B50446D4E9001016
:10376000FFF7F7FF10BD00604060704770B5054679
:103770000C46214628462268FFF7E6FF70BD70B56B
:1037800005460C46224628466168FFF7DDFF70BDFE
:1037900010B50446D4E90010FFF7DBFF10BD10B5EB
:1037A00004462046FFF7D8FF2046FFF7DCFF10BD98
:1037B00070B504460D462046FFF7CEFF2946204649
:1037C000FFF7D4FF70BD70B504460D462046FFF7E5
:1037D000C3FF29462046FFF7D2FF70BD01460868A7
:1037E000884201D1012070470020FCE700210160E0
:1037F00070470146086870470146086808B900200C
:10380000704700E0096808680028FBD10846F7E720
:103810000A6802600860704770B505460C460020D3
:10382000286000E0246820680028FBD12146284653
:10383000FFF7EEFF70BD70B505460E46144625B97C
:1038400021463046FFF7E8FF70BD05E02068A8423A
:1038500001D126603560246820680028F6D100BFB9
:10386000F2E70146086808B9002070470A68106846
:103870000860002010601046F7E710B5044607E026
:103880002068006818B92046FFF7EBFF10BD2468D8
:1038900020680028F4D100BFF8E706E00A688242F9
:1038A00002D102680A6003E009680A68002AF5D1BB
:1038B00000BF7047014600200A6801E0401C126802
:1038C000002AFBD17047024605E00868904201D10A
:1038D00001207047096808680028F6D100BFF8E7A2
:1038E0000146086808B9012070470020FCE702463D
:1038F0005088884201D1012070470020FCE74180B8
:1039000070470021418070470021017070470221FB
:103910000170704701210170704701460878022844
:1039200001D1012070470020FCE7014608780128FA
:1039300000D170470020FCE7014691F8200008B94B
:10394000012070470020FCE7014691F8200000F0BC
:1039500001007047014691F8200000F00200704716
:10396000014691F8200000F00400704790F8201004
:1039700021F0020180F82010704790F8201021F00B
:10398000010180F82010704790F8201021F0040108
:1039900080F82010704790F8201041F0040180F862
:1039A0002010704790F8201041F0020180F820109C
:1039B0007047002180F820107047082180F82010FF
:1039C000704790F8201041F0010180F820107047F6
:1039D00070B50446F9A500BF04F10801FAA003F090
:1039E00091FCFDA003F08EFC01F0F0FFA04201D19C
:1039F000FAA52DE094F82000072801D1F9A527E0C9
:103A000094F82000062801D1FCA521E094F82000BC
:103A1000052801D1FDA51BE094F82000032801D161
:103A2000FEA515E094F82000042801D1F0A50FE0D0
:103A300094F82000022801D1FBA509E094F82000A9
:103A4000012801D1FAA503E094F8200000B9FAA5F5
:103A50002946FBA003F056FCDFA003F053FCFCA0BA
:103A6000A16A03F04FFCDCA003F04CFCFCA0616AEF
:103A700003F048FCD8A003F045FCD4E90902811802
:103A8000FBA003F03FFCD4A003F03CFCD2A003F069
:103A900039FC70BD70B50446256904F11800FFF7C4
:103AA00077FE00202061207395F858000A2808D07E
:103AB00095F85810284602F0F9F90A2085F85800C0
:103AC0000AE095F82100217D884205D0217D284615
:103AD00002F0ECF90A20207570BD70B504460D4661
:103AE000256195F8210020750120207305F1500112
:103AF00004F11800FFF73AFE70BD70B506460C469B
:103B000021463046FFF7E9FF301D00F0F2FB054685
:103B100094F82100A84203DD2946204602F0C6F9A8
:103B200070BD10B504462046FFF7B4FF0421201DE8
:103B300000F079FC10BD10B5044600BF01F094FC04
:103B400008B1012000E0002010B14FF4C87010BD92
:103B500000BF00BF0CB9012000E0002010B140F20E
:103B60004C40F4E700BF201D00F0E4FB0020207370
:103B700020610A20207504F11800FFF7F4FD46F6D5
:103B8000EE312046FFF7BBFE0020E0E770B50546AA
:103B900000BF01F069FC08B1012000E0002010B175
:103BA0004FF4C87070BD00BF00BF0DB9012000E028
:103BB000002010B140F24C40F4E700BF202101206A
:103BC000FFF755FC044614B940F6FC00EAE7201D57
:103BD00000F0B0FB0020207320610A20207504F162
:103BE0001800FFF7C0FD46F6EE312046FFF787FECE
:103BF0002046FFF78CFE2C600020D3E770B504460A
:103C0000002500BF01F030FC08B1012000E00020D9
:103C100010B14FF4C87070BD00BF00BF0CB90120D7
:103C200000E0002010B140F24C40F4E700BF00BFBC
:103C300046F6EE312046FFF75AFE10B940F24D40ED
:103C4000E9E700BF00BFFEF7F5FA054600BF032114
:103C5000201D00F0E8FB206910B12046FFF71AFF95
:103C6000201D00F06DFB2046FFF757FE30B12046C7
:103C7000FFF747FE2046FFF75CFC02E02046FFF717
:103C800040FE00BF2846FEF7D9FA00BF01F062FCF3
:103C90000020C0E72DE9F041044615461E460027E6
:103CA00000BF01F0E1FB08B1012000E0002018B1E5
:103CB0004FF4C870BDE8F08100BF00BF0CB901200F
:103CC00000E0002010B140F24C40F3E700BF00BF1D
:103CD00046F6EE312046FFF70AFE10B940F24D409D
:103CE000E8E700BF00BFFEF7A5FA074600BF207B4C
:103CF00058B9634801682046FFF7EFFE00BF384619
:103D0000FEF79CFA00BF0020D4E7206901F09CFB7D
:103D1000A8B1207BFF2807D100BF3846FEF78EFAF6
:103D200000BF40F2EA30C5E7207B401C207300BF93
:103D30003846FEF783FA00BF40F2E930BAE70021C7
:103D400085EA01007140084307D100BF3846FEF7FD
:103D500075FA00BF4FF49660ACE701F07EFB38B116
:103D600000BF3846FEF76AFA00BF40F2B140A1E753
:103D7000206990F821004249096891F82110884291
:103D800006DD3F4A126892F82110206902F08EF891
:103D90002A463346211D3A48006800F01CFB00BF4C
:103DA0003846FEF74BFA00BF01F0D4FB34490968EE
:103DB00091F8600000F0DBFA7CE7000041424E4FD2
:103DC000524D414C0000000074736B206E616D65B4
:103DD0003A202573000000000A00000052554E4EA4
:103DE000494E470050454E4454494D454F55545F48
:103DF00053555350454E44454400000050454E44F1
:103E00005F53555350454E4445440000534C45457F
:103E1000505F53555350454E4445440050454E4421
:103E200054494D454F55540050454E440000000044
:103E3000534C454550000000524541445900000094
:103E400074736B20737461743A2025730000000052
:103E500073746B2073697A653A2025640000000052
:103E600073746B20626173653A20307825700000AE
:103E700073746B20746F70203A20307825700000C6
:103E80004000002010B504464FF0FF321346204694
:103E9000FFF700FF10BD70B50446002500BF01F01C
:103EA000E3FA08B1012000E0002010B14FF4C8701F
:103EB00070BD00BF00BF0CB9012000E0002010B1B0
:103EC00040F24C40F4E700BF00BF46F6EE3120461A
:103ED000FFF70DFD10B940F24D40E9E700BF00BF0C
:103EE000FEF7A8F9054600BF206901F0ADFA38B920
:103EF00000BF2846FEF7A2F900BF4FF47A70D7E75B
:103F0000207B401E2073207B002807DD00BF284651
:103F1000FEF794F900BF40F2E930C9E72046FFF709
:103F2000B9FD201D00F012FA30B100BF2846FEF79F
:103F300085F900BF0020BBE7201D00F0EBF9064625
:103F400031462046FFF7D9FD0121201D00F061FA1E
:103F500000BF2846FEF772F900BF01F0FBFA00200F
:103F6000A6E700005060026041600860704748604A
:103F70000160704710B50446D4E90010FFF7F7FF61
:103F800010BD00604060704770B505460C46214684
:103F900028462268FFF7E6FF70BD70B505460C465F
:103FA000224628466168FFF7DDFF70BD10B5044664
:103FB000D4E90010FFF7DBFF10BD10B50446204622
:103FC000FFF7D8FF2046FFF7DCFF10BD70B50446B1
:103FD0000D462046FFF7CEFF29462046FFF7D4FFC7
:103FE00070BD70B504460D462046FFF7C3FF294655
:103FF0002046FFF7D2FF70BD01460868884201D114
:10400000012070470020FCE7002101607047014655
:10401000086870470146086808B90020704700E04A
:10402000096808680028FBD10846F7E70A680260BB
:104030000860704770B505460C460020286000E017
:10404000246820680028FBD121462846FFF7EEFFB0
:1040500070BD70B505460E46144625B9214630465A
:10406000FFF7E8FF70BD05E02068A84201D1266097
:104070003560246820680028F6D100BFF2E70146C9
:10408000086808B9002070470A68106808600020B6
:1040900010601046F7E710B5044607E02068006896
:1040A00018B92046FFF7EBFF10BD246820680028F0
:1040B000F4D100BFF8E706E00A68824202D1026844
:1040C0000A6003E009680A68002AF5D100BF70475A
:1040D000014600200A6801E0401C1268002AFBD15A
:1040E0007047024605E00868904201D10120704700
:1040F000096808680028F6D100BFF8E7014608689B
:1041000008B9012070470020FCE702465088884229
:1041100001D1012070470020FCE741807047002159
:104120004180704700210170704702210170704783
:1041300001210170704701460878022801D1012051
:1041400070470020FCE701460878012800D170473D
:104150000020FCE7014691F8200008B901207047D3
:104160000020FCE7014691F8200000F001007047B4
:10417000014691F8200000F002007047014691F8D6
:10418000200000F00400704790F8201021F0020198
:1041900080F82010704790F8201021F0010180F87D
:1041A0002010704790F8201021F0040180F82010B2
:1041B000704790F8201041F0040180F820107047FB
:1041C00090F8201041F0020180F820107047002183
:1041D00080F820107047082180F82010704790F870
:1041E000201041F0010180F82010704770B504469E
:1041F000A1A500BF04F10801A2A003F083F8A5A0C7
:1042000003F080F801F0E2FBA04201D1A2A52DE06D
:1042100094F82000072801D1A1A527E094F82000F8
:10422000062801D1A4A521E094F82000052801D199
:10423000A5A51BE094F82000032801D1A6A515E050
:1042400094F82000042801D198A50FE094F82000EC
:10425000022801D1A3A509E094F82000012801D18A
:10426000A2A503E094F8200000B9A2A52946A3A0C6
:1042700003F048F887A003F045F8A4A0A16A03F072
:1042800041F884A003F03EF8A4A0616A03F03AF874
:1042900080A003F037F8D4E909028118A3A003F045
:1042A00031F87CA003F02EF87AA003F02BF870BD53
:1042B00070B506460C462068A0F1480509E096F85E
:1042C000210095F82110884200DA06E0A86CA0F1E0
:1042D000480505F14800A042F1D100BF05F14801B1
:1042E00006F14800FFF759FEF4653046FFF768FF16
:1042F00070BD70B504462046FFF77EFE08B1002071
:1043000001E020684838054615B195F8210070BDD8
:104310000A20FCE7014608684838704710B5044693
:1043200004F14800FFF742FE0020E0652046FFF759
:104330002BFF10BD10B504462046FFF722FE10BD2E
:1043400010B504462046FFF71CFE10BD10B504460C
:104350002046FFF751FE10BD10B5044604F1480099
:10436000FFF724FE2046E16DFFF7A2FF10BD0146D6
:10437000012901D100207047022902D140F2B34047
:10438000F9E7032902D140F2B440F4E7042902D14D
:1043900040F2B540EFE740F2B240ECE770B50446BA
:1043A0000D462046FFF7E4FE20B184F86050204619
:1043B000FFF7B4FF2046FFF7D5FE10B1204602F00C
:1043C00090F92046FFF7DAFE00B170BD204600F0FC
:1043D0009FFD00BFF9E72DE9F04106460F46144660
:1043E0001D46304600F0A6FD002086F860003946E4
:1043F0003046FFF75DFF4FF0FF3184EA010069406E
:10440000084304D022462B46304602F05DF9BDE851
:10441000F08170B504460D462168A1F14800294697
:10442000FFF7BCFF70BD2DE9F04105460F46286837
:10443000A0F14804A06CA0F1480607E039462046E8
:10444000FFF7ACFF3446A06CA0F1480604F1480029
:10445000A842F3D1BDE8F08170B505460E4614467A
:1044600024B931462846FFF7D4FF03E031462846F9
:10447000FFF7D9FF70BD000041424E4F524D414CF5
:104480000000000074736B206E616D653A20257327
:10449000000000000A00000052554E4E494E4700F1
:1044A00050454E4454494D454F55545F5355535014
:1044B000454E44454400000050454E445F5355531B
:1044C00050454E4445440000534C4545505F5355BC
:1044D0005350454E4445440050454E4454494D4583
:1044E0004F55540050454E4400000000534C454584
:1044F00050000000524541445900000074736B2085
:10450000737461743A2025730000000073746B208B
:1045100073697A653A2025640000000073746B208B
:10452000626173653A2030782570000073746B20E7
:10453000746F70203A20307825700000506002605F
:1045400041600860704748600160704710B50446DC
:10455000D4E90010FFF7F7FF10BD0060406070471E
:1045600070B505460C46214628462268FFF7E6FF4F
:1045700070BD70B505460C46224628466168FFF7B7
:10458000DDFF70BD10B50446D4E90010FFF7DBFF76
:1045900010BD10B504462046FFF7D8FF2046FFF7B0
:1045A000DCFF10BD70B504460D462046FFF7CEFF78
:1045B00029462046FFF7D4FF70BD70B504460D466E
:1045C0002046FFF7C3FF29462046FFF7D2FF70BD04
:1045D00001460868884201D1012070470020FCE7AD
:1045E000002101607047014608687047014608686D
:1045F00008B90020704700E0096808680028FBD16E
:104600000846F7E70A6802600860704770B505461B
:104610000C460020286000E0246820680028FBD1B8
:1046200021462846FFF7EEFF70BD70B505460E46E1
:10463000144625B921463046FFF7E8FF70BD05E076
:104640002068A84201D126603560246820680028CF
:10465000F6D100BFF2E70146086808B900207047AC
:104660000A6810680860002010601046F7E710B56F
:10467000044607E02068006818B92046FFF7EBFF02
:1046800010BD246820680028F4D100BFF8E706E0D8
:104690000A68824202D102680A6003E009680A6877
:1046A000002AF5D100BF7047014600200A6801E0EA
:1046B000401C1268002AFBD17047024605E00868DA
:1046C000904201D101207047096808680028F6D19E
:1046D00000BFF8E70146086808B9012070470020CC
:1046E000FCE702465088884201D101207047002033
:1046F000FCE7418070470021418070470021017034
:104700007047022101707047012101707047014616
:104710000878022801D1012070470020FCE70146FB
:104720000878012800D170470020FCE7014691F885
:10473000200008B9012070470020FCE7014691F8ED
:10474000200000F001007047014691F8200000F0C1
:1047500002007047014691F8200000F00400704705
:1047600090F8201021F0020180F82010704790F896
:10477000201021F0010180F82010704790F82010DF
:1047800021F0040180F82010704790F8201041F0CB
:10479000040180F82010704790F8201041F00201C9
:1047A00080F820107047002180F820107047082101
:1047B00080F82010704790F8201041F0010180F837
:1047C0002010704770B5044672A500BF04F10801BF
:1047D00073A002F097FD76A002F094FD01F0F6F8C8
:1047E000A04201D173A52DE094F82000072801D143
:1047F00072A527E094F82000062801D175A521E0D4
:1048000094F82000052801D176A51BE094F820003B
:10481000032801D177A515E094F82000042801D1E0
:1048200069A50FE094F82000022801D174A509E0E1
:1048300094F82000012801D173A503E094F820002A
:1048400000B973A5294674A002F05CFD58A002F0DF
:1048500059FD75A0A16A02F055FD55A002F052FD68
:1048600075A0616A02F04EFD51A002F04BFDD4E943
:104870000902811874A002F045FD4DA002F042FD2E
:104880004BA002F03FFD70BD70B50446002500BF8F
:10489000FDF7D0FC054600BF14B16F48046002E08C
:1048A00064206D49086000BF2846FDF7C7FC00BFC3
:1048B00070BD70B504460D4600260CB96748046803
:1048C00000BFFDF7B7FC064600BF1DB9624800688F
:1048D000606600E06566D4E91901884201D9606E1E
:1048E000A06600BF3046FDF7A9FC00BF70BD70B5E3
:1048F0000546002600BFFDF79DFC064600BF284682
:1049000000F0A5FA04461CB1204600F099FE28B13B
:1049100000BF3046FDF792FC00BF70BD284600F096
:1049200087FA28B100BF3046FDF788FC00BFF4E7E6
:1049300000F093FD28B100BF3046FDF77FFC00BFBB
:10494000EBE7A06E10B1A06E401EA066A06E28B16D
:1049500000BF3046FDF772FC00BFDEE73F49096843
:1049600091F8210000F006FB284600F070FA04469A
:10497000606E18B938480068A06601E0606EA066F5
:1049800000BF3046FDF75AFC00BF00F0E3FD00BF5A
:10499000C3E7000041424E4F524D414C0000000021
:1049A00074736B206E616D653A2025730000000002
:1049B0000A00000052554E4E494E470050454E44A5
:1049C00054494D454F55545F53555350454E4445FA
:1049D0004400000050454E445F53555350454E44EB
:1049E00045440000534C4545505F53555350454E88
:1049F0004445440050454E4454494D454F5554009C
:104A000050454E4400000000534C45455000000006
:104A1000524541445900000074736B2073746174F3
:104A20003A2025730000000073746B2073697A6567
:104A30003A2025640000000073746B206261736586
:104A40003A2030782570000073746B20746F7020EA
:104A50003A203078257000006400002040000020DB
:104A600050600260416008607047486001607047B4
:104A700010B50446D4E90010FFF7F7FF10BD006041
:104A80004060704770B505460C46214628462268AE
:104A9000FFF7E6FF70BD70B505460C462246284676
:104AA0006168FFF7DDFF70BD10B50446D4E9001062
:104AB000FFF7DBFF10BD10B504462046FFF7D8FF17
:104AC0002046FFF7DCFF10BD70B504460D462046BA
:104AD000FFF7CEFF29462046FFF7D4FF70BD70B523
:104AE00004460D462046FFF7C3FF29462046FFF740
:104AF000D2FF70BD01460868884201D1012070478D
:104B00000020FCE7002101607047014608687047FB
:104B10000146086808B90020704700E00968086885
:104B20000028FBD10846F7E70A6802600860704772
:104B300070B505460C460020286000E02468206817
:104B40000028FBD121462846FFF7EEFF70BD70B567
:104B500005460E46144625B921463046FFF7E8FFC4
:104B600070BD05E02068A84201D126603560246848
:104B700020680028F6D100BFF2E70146086808B9AE
:104B8000002070470A681068086000201060104616
:104B9000F7E710B5044607E02068006818B920461A
:104BA000FFF7EBFF10BD246820680028F4D100BF98
:104BB000F8E706E00A68824202D102680A6003E070
:104BC00009680A68002AF5D100BF70470146002035
:104BD0000A6801E0401C1268002AFBD170470246B7
:104BE00005E00868904201D1012070470968086813
:104BF0000028F6D100BFF8E70146086808B901208F
:104C000070470020FCE702465088884201D101200D
:104C100070470020FCE741807047002141807047C9
:104C2000002101707047022101707047012101705D
:104C3000704701460878022801D101207047002002
:104C4000FCE701460878012800D170470020FCE706
:104C5000014691F8200008B9012070470020FCE7C8
:104C6000014691F8200000F001007047014691F8DC
:104C7000200000F002007047014691F8200000F08B
:104C80000400704790F8201021F0020180F82010F5
:104C9000704790F8201021F0010180F82010704733
:104CA00090F8201021F0040180F82010704790F84F
:104CB000201041F0040180F82010704790F8201077
:104CC00041F0020180F820107047002180F8201088
:104CD0007047082180F82010704790F8201041F0AC
:104CE000010180F82010704770B50446A9A500BFE7
:104CF00004F10801AAA002F005FBADA002F002FB3E
:104D000000F064FEA04201D1AAA52DE094F8200095
:104D1000072801D1A9A527E094F82000062801D191
:104D2000ACA521E094F82000052801D1ADA51BE039
:104D300094F82000032801D1AEA515E094F82000D6
:104D4000042801D1A0A50FE094F82000022801D189
:104D5000ABA509E094F82000012801D1AAA503E041
:104D600094F8200000B9AAA52946ABA002F0CAFA1F
:104D70008FA002F0C7FAACA0A16A02F0C3FA8CA01F
:104D800002F0C0FAACA0616A02F0BCFA88A002F09E
:104D9000B9FAD4E909028118ABA002F0B3FA84A0F1
:104DA00002F0B0FA82A002F0ADFA70BD70B5002535
:104DB000A94C03E005F12000C5B2241D206800289D
:104DC000F8D02068FDF728FA2844C5B2284670BDFF
:104DD0004211A14951F8221000F01F02C2F11F0335
:104DE00001229A40114343119B4A42F82310704715
:104DF0004211994951F8221000F01F02C2F11F031D
:104E000001229A4091434311934A42F8231070477C
:104E100010B504462046FFF7DBFF8F48503890F866
:104E20005400A04203DD8C48503880F8544010BD37
:104E300001468948503800EBC1021068A0F14803D0
:104E4000986C904201D1012070470020FCE770B5BA
:104E500004468148503800EBC4052846FFF74AFE57
:104E600008B1002070BD28684838FBE77A48503800
:104E700090F85400784A503A02EBC001086848386C
:104E8000704710B50A207449503981F85400002445
:104E900007E07149503901EBC400FFF7F0FD601CD9
:104EA000C4B20A2CF5D3002405E000216A4840F87A
:104EB0002410601CC4B2002CF7D010BD70B504469D
:104EC00094F821506448503800EBC5063046FFF78F
:104ED00011FE10B12846FFF79BFF314604F1480050
:104EE000FFF7D0FD70BD70B5044694F821505A48C4
:104EF000503800EBC5063046FFF7FCFD10B12846E0
:104F0000FFF786FF314604F14800FFF7C4FD70BD8E
:104F100010B5044694F821005049096891F8211011
:104F2000884203D12046FFF7DEFF02E02046FFF76C
:104F3000C5FF10BD70B5044694F82150464850385E
:104F400000EBC50604F14800FFF7AEFD3046FFF761
:104F5000D1FD10B12846FFF74BFF3F48503890F87D
:104F60005400A84205D1FFF721FF3B49503981F891
:104F7000540070BD70B505463748503800EBC50485
:104F80002046FFF7B7FD18B921462068FFF7A7FDB7
:104F900070BD000041424E4F524D414C0000000098
:104FA00074736B206E616D653A20257300000000FC
:104FB0000A00000052554E4E494E470050454E449F
:104FC00054494D454F55545F53555350454E4445F4
:104FD0004400000050454E445F53555350454E44E5
:104FE00045440000534C4545505F53555350454E82
:104FF0004445440050454E4454494D454F55540096
:1050000050454E4400000000534C45455000000000
:10501000524541445900000074736B2073746174ED
:105020003A2025730000000073746B2073697A6561
:105030003A2025640000000073746B206261736580
:105040003A2030782570000073746B20746F7020E4
:105050003A20307825700000800A002040000020AF
:1050600050600260416008607047486001607047AE
:1050700010B50446D4E90010FFF7F7FF10BD00603B
:105080004060704770B505460C46214628462268A8
:10509000FFF7E6FF70BD70B505460C462246284670
:1050A0006168FFF7DDFF70BD10B50446D4E900105C
:1050B000FFF7DBFF10BD10B504462046FFF7D8FF11
:1050C0002046FFF7DCFF10BD70B504460D462046B4
:1050D000FFF7CEFF29462046FFF7D4FF70BD70B51D
:1050E00004460D462046FFF7C3FF29462046FFF73A
:1050F000D2FF70BD01460868884201D10120704787
:105100000020FCE7002101607047014608687047F5
:105110000146086808B90020704700E0096808687F
:105120000028FBD10846F7E70A680260086070476C
:1051300070B505460C460020286000E02468206811
:105140000028FBD121462846FFF7EEFF70BD70B561
:1051500005460E46144625B921463046FFF7E8FFBE
:1051600070BD05E02068A84201D126603560246842
:1051700020680028F6D100BFF2E70146086808B9A8
:10518000002070470A681068086000201060104610
:10519000F7E710B5044607E02068006818B9204614
:1051A000FFF7EBFF10BD246820680028F4D100BF92
:1051B000F8E706E00A68824202D102680A6003E06A
:1051C00009680A68002AF5D100BF7047014600202F
:1051D0000A6801E0401C1268002AFBD170470246B1
:1051E00005E00868904201D101207047096808680D
:1051F0000028F6D100BFF8E70146086808B9012089
:1052000070470020FCE702465088884201D1012007
:1052100070470020FCE741807047002141807047C3
:105220000021017070470221017070470121017057
:10523000704701460878022801D1012070470020FC
:10524000FCE701460878012800D170470020FCE700
:10525000014691F8200008B9012070470020FCE7C2
:10526000014691F8200000F001007047014691F8D6
:10527000200000F002007047014691F8200000F085
:105280000400704790F8201021F0020180F82010EF
:10529000704790F8201021F0010180F8201070472D
:1052A00090F8201021F0040180F82010704790F849
:1052B000201041F0040180F82010704790F8201071
:1052C00041F0020180F820107047002180F8201082
:1052D0007047082180F82010704790F8201041F0A6
:1052E000010180F82010704770B50446D8A500BFB2
:1052F00004F10801D9A002F005F8DCA002F002F8E0
:1053000000F064FBA04201D1D9A52DE094F8200063
:10531000072801D1D8A527E094F82000062801D15C
:10532000DBA521E094F82000052801D1DCA51BE0D5
:1053300094F82000032801D1DDA515E094F82000A1
:10534000042801D1CFA50FE094F82000022801D154
:10535000DAA509E094F82000012801D1D9A503E0DD
:1053600094F8200000B9D9A52946DAA001F0CAFFB7
:10537000BEA001F0C7FFDBA0A16A01F0C3FFBBA084
:1053800001F0C0FFDBA0616A01F0BCFFB7A001F033
:10539000B9FFD4E909028118DAA001F0B3FFB3A084
:1053A00001F0B0FFB1A001F0ADFF70BD00BF00BFC4
:1053B000FEE71FB50020D7490968D74A12680923BC
:1053C000CDE90032CDE902100346D44AD4A1D64833
:1053D00000F03DFC04B010BD10B5FCF73EFFFFF738
:1053E00050FD4FF48061D148FEF71FF804460CB120
:1053F000204610BDFFF7DDFF04460CB12046F8E75C
:1054000001F001FF04460CB12046F2E70020F0E76E
:10541000C7480078012800D170470020FCE700B59C
:10542000FFF7F6FF00B900BDC2480078FA2801DB9B
:10543000012000E0002000B1F5E7BE480078401CE4
:10544000BC49087000BFEEE70146BB4800688142D6
:1054500001D1012070470020FCE7B848007808B16E
:10546000012070470020FCE7B248007808B1012015
:1054700070470020FCE710B50024FFF7C9FF00B912
:1054800010BD00BFFCF7D6FE044600BFFFF7ECFFDF
:1054900028B900BF2046FCF7D1FE00BFF0E7A548C1
:1054A0000078401EA3490870FFF7DEFF28B100BF57
:1054B0002046FCF7C3FE00BFE2E7FFF7CEFF28B1AE
:1054C00000BF2046FCF7BAFE00BFD9E7FFF7CEFCCD
:1054D0009B49086008460068FFF7B6FF28B100BF87
:1054E0002046FCF7ABFE00BFCAE7FCF7CEFE00BFCC
:1054F0002046FCF7A3FE00BF00BFC1E710B50024A3
:1055000000BFFFF7B1FF08B1012000E0002010B19B
:105510004FF4C87010BD00BFFFF77AFF10B94FF409
:10552000FA70F7E785480078FA2802DB4FF4167026
:10553000F0E700BFFCF77EFE044600BF7F4800781E
:10554000401C7E49087000BF2046FCF777FE00BF74
:105550000020DFE710B50024FFF75AFF08B901204B
:1055600000E0002000B110BDFFF77EFF00B1FAE7B8
:10557000FFF773FF00B1F6E700BFFCF75BFE0446E0
:1055800000BFFFF773FC6E49086008460068FFF72C
:105590005BFF28B100BF2046FCF750FE00BFE2E7EA
:1055A000FCF76FFE00BF2046FCF748FE00BF00BFBF
:1055B000D9E710B5002400BFFFF756FF08B101205E
:1055C00000E0002010B14FF4C87010BD00BFFFF71D
:1055D0001FFF10B94FF4FA70F7E7FFF73EFF10B95D
:1055E00040F2A560F1E700BFFCF724FE044600BFCF
:1055F00052480078401E5149087000BF2046FCF711
:105600001DFE00BFFFF7A6FF0020DEE710B5FFF785
:10561000FFFE08B1012000E0002010B140F2F510BB
:1056200010BDFFF723FC4649086008460068424960
:10563000086001203E490870FCF721FE0020EFE7DA
:1056400001463948814201D1012070470020FCE722
:1056500041424E4F524D414C0000000074736B208C
:105660006E616D653A202573000000000A0000009D
:1056700052554E4E494E470050454E4454494D45B3
:105680004F55545F53555350454E44454400000018
:1056900050454E445F53555350454E4445440000D9
:1056A000534C4545505F53555350454E4445440077
:1056B00050454E4454494D454F55540050454E4475
:1056C00000000000534C4545500000005245414445
:1056D0005900000074736B20737461743A20257351
:1056E0000000000073746B2073697A653A202564AA
:1056F0000000000073746B20626173653A2030789B
:105700002570000073746B20746F70203A2030781D
:1057100025700000307800082C780008AD53000890
:1057200069646C6500000000880A0020800B00207E
:105730003200002030000020400000203100002016
:10574000440000205060026041600860704748607B
:105750000160704710B50446D4E90010FFF7F7FF69
:1057600010BD00604060704770B505460C4621468C
:1057700028462268FFF7E6FF70BD70B505460C4667
:10578000224628466168FFF7DDFF70BD10B504466C
:10579000D4E90010FFF7DBFF10BD10B5044620462A
:1057A000FFF7D8FF2046FFF7DCFF10BD70B50446B9
:1057B0000D462046FFF7CEFF29462046FFF7D4FFCF
:1057C00070BD70B504460D462046FFF7C3FF29465D
:1057D0002046FFF7D2FF70BD01460868884201D11C
:1057E000012070470020FCE700210160704701465E
:1057F000086870470146086808B90020704700E053
:10580000096808680028FBD10846F7E70A680260C3
:105810000860704770B505460C460020286000E01F
:10582000246820680028FBD121462846FFF7EEFFB8
:1058300070BD70B505460E46144625B92146304662
:10584000FFF7E8FF70BD05E02068A84201D126609F
:105850003560246820680028F6D100BFF2E70146D1
:10586000086808B9002070470A68106808600020BE
:1058700010601046F7E710B5044607E0206800689E
:1058800018B92046FFF7EBFF10BD246820680028F8
:10589000F4D100BFF8E706E00A68824202D102684C
:1058A0000A6003E009680A68002AF5D100BF704762
:1058B000014600200A6801E0401C1268002AFBD162
:1058C0007047024605E00868904201D10120704708
:1058D000096808680028F6D100BFF8E701460868A3
:1058E00008B9012070470020FCE702465088884232
:1058F00001D1012070470020FCE741807047002162
:10590000418070470021017070470221017070478B
:1059100001210170704701460878022801D1012059
:1059200070470020FCE701460878012800D1704745
:105930000020FCE7014691F8200008B901207047DB
:105940000020FCE7014691F8200000F001007047BC
:10595000014691F8200000F002007047014691F8DE
:10596000200000F00400704790F8201021F00201A0
:1059700080F82010704790F8201021F0010180F885
:105980002010704790F8201021F0040180F82010BA
:10599000704790F8201041F0040180F82010704703
:1059A00090F8201041F0020180F82010704700218B
:1059B00080F820107047082180F82010704790F878
:1059C000201041F0010180F82010704770B50024CC
:1059D000002500BFFCF72EFC044600BFFFF718FDB2
:1059E00008B1012000E0002008B1FB48056800BFB5
:1059F0002046FCF723FC00BF284670BD70B5044666
:105A0000F6A500BF04F10801F7A001F07BFCFAA0A5
:105A100001F078FCFFF7DAFFA04201D1F7A52DE0F5
:105A200094F82000072801D1F6A527E094F820007B
:105A3000062801D1F9A521E094F82000052801D11C
:105A4000FAA51BE094F82000032801D1FBA515E07E
:105A500094F82000042801D1EDA50FE094F820006F
:105A6000022801D1F8A509E094F82000012801D10D
:105A7000F7A503E094F8200000B9F7A52946F8A09F
:105A800001F040FCDCA001F03DFCF9A0A16A01F0AE
:105A900039FCD9A001F036FCF9A0616A01F032FCB2
:105AA000D5A001F02FFCD4E909028118F8A001F07B
:105AB00029FCD1A001F026FCCFA001F023FC70BD91
:105AC00010B5044604F12C00FFF74BFE04F1400032
:105AD000FFF747FE04F14800FFF743FE04F15000D2
