:020000040800F2
:10000000107B002049010008D1050008D305000835
:10001000D7050008DB050008DF0500080000000028
:10002000000000000000000000000000E3050008E0
:10003000E505000800000000AF150008E70500080E
:100040006301000863010008630100086301000800
:1000500063010008630100086301000863010008F0
:1000600063010008630100086301000863010008E0
:1000700063010008630100086301000863010008D0
:1000800063010008630100086301000863010008C0
:1000900063010008630100086301000863010008B0
:1000A00063010008630100086301000863010008A0
:1000B0006301000863010008630100086301000890
:1000C0006301000863010008630100086301000880
:1000D00063010008FD0500086301000863010008D2
:1000E0006301000863010008630100086301000860
:1000F0006301000863010008630100086301000850
:10010000630100086301000863010008630100083F
:10011000630100086301000863010008630100082F
:10012000630100086301000863010008630100081F
:10013000DFF810D003F04AFE00480047DF03000854
:10014000AFF30080107B0020064880470648004738
:10015000FEE7FEE7FEE7FEE7FEE7FEE7FEE7FEE777
:10016000FEE7FEE74B020008310100080CB5002055
:10017000019000906C48006840F480306A49086043
:1001800000BF6948006800F4003000900198401CEE
:100190000190009818B90198B0F5A06FF1D16248AC
:1001A000006800F4003010B10120009001E0002050
:1001B00000900098012843D15C48006840F010008E
:1001C0005A4908600846006820F0030008600846A5
:1001D000006840F002000860534840685249486097
:1001E0000846406848600846406840F480604860BF
:1001F0000846406820F47C1048600846406840F497
:10020000E81048600846006840F08070086000BF51
:100210004548006800F000700028F9D04248406866
:1002200020F00300404948600846406840F0020062
:10023000486000BF3C48406800F00C000828F9D135
:100240000CBD10B5FFF792FF10BD10B53648006821
:1002500040F00100344908600846406834490840CD
:100260003149486008460068324908402E49086014
:100270000846006820F4802008600846406820F4A2
:10028000FE0048604FF41F008860FFF7DAFF4FF070
:1002900000602949086010BD10B50021002000222F
:1002A000214B5B6803F00C0121B1042906D0082919
:1002B00028D107E0214B224C236027E01F4B204C24
:1002C000236023E0184B5B6803F47010164B5B68E7
:1002D00003F48032022303EB904022B9194B4343CD
:1002E000174C23600DE0104B5B6803F4003323B11F
:1002F000144B4343124C236003E0104B4343104C18
:10030000236003E00D4B0E4C236000BF00BF064B83
:100310005B68C3F303130C4CE15C094B1B68CB40D7
:10032000074C236010BD0000001002400020024076
:100330000000FFF8FFFFF6FE08ED00E000127A0073
:100340000000002000093D000400002006E045A058
:1003500003F04EFDC820002102F00EFFF7E745A094
:1003600003F046FD4FF4FA60002102F005FF45A0BE
:1003700003F03EFD474802F069FE04461CB12146E9
:1003800045A003F035FD4FF4FA60002102F0F4FEC1
:100390004AA003F02DFD3F4802F09FFE04461CB129
:1003A00021464AA003F024FD4FF4FA60002102F038
:1003B000E3FE4EA003F01CFD364802F0A1FC04460B
:1003C0001CB121464DA003F013FD07E029A003F066
:1003D0000FFD4FF47A70002102F0CEFEF6E71FB554
:1003E00000F031F94EA003F003FD02F09BFA4FF448
:1003F000FA7002F0D9F851A003F0FAFC14204FF47F
:100400008061524A0323CDE90032CDE90210002376
:10041000AFF2C7024EA11F4802F0C0FC04461CB157
:1004200021464DA003F0E4FC56A003F0E1FC1420AB
:100430004FF48061574A0423CDE90032CDE9021020
:100440000023AFF2E50254A1554802F0A7FC044690
:100450001CB1214653A003F0CBFC02F07DFB002031
:1004600004B010BD7461736B312072756E6E696E6D
:10047000670D0A007461736B322072756E6E696E5F
:10048000670D0A0073757370656E64207461736B19
:10049000310D0A007800002073757370656E64205A
:1004A0007461736B31206661696C2120636F6465D0
:1004B000203A202564200D0A000000007265737543
:1004C0006D65207461736B310D0A00007265737580
:1004D0006D65207461736B31206661696C212063E6
:1004E0006F6465203A202564200D0A0064657374EA
:1004F000726F79207461736B310D0A0064657374D7
:10050000726F79207461736B31206661696C212090
:10051000636F6465203A202564200D0A0000000006
:1005200057656C636F6D6520746F2054656E6365ED
:100530006E744F532074696E790D0A0063726561A1
:100540007465207461736B310D0A0000680100202E
:100550007461736B3100000054656E63656E744F97
:100560005320437265617465207461736B3120663A
:1005700061696C2120636F6465203A202564200D39
:100580000A000000637265617465207461736B32E8
:100590000D0A0000680500207461736B32000000D2
:1005A000F000002054656E63656E744F53204372F3
:1005B00065617465207461736B32206661696C21BA
:1005C00020636F6465203A202564200D0A00000036
:1005D000704700BFFEE700BFFEE700BFFEE700BFB9
:1005E000FEE77047704710B502F0B8F928B102F085
:1005F000BCF903F0B0F802F0E4F910BD10B540F218
:100600002551064800F08CFE38B1044800F008FE81
:10061000C4B22146014800F0FFFD10BD0038014082
:1006200008B54FF4A06000F0CDF825208DF800004B
:1006300001208DF801008DF802008DF80300684656
:1006400000F0C5F808BD00B585B00121042000F018
:1006500043FC0121880300F03FFC4FF40070ADF82B
:10066000100018208DF8130003208DF8120004A943
:10067000524800F075F94FF48060ADF81000042086
:100680008DF8130004A94D4800F06AF94FF4E130E9
:1006900000900020ADF80400ADF80600ADF80800A9
:1006A000ADF80C000C20ADF80A006946444800F093
:1006B000BAFCFFF7B5FF012240F22551404800F097
:1006C0004AFD01213E4800F03AFD05B000BD70B57D
:1006D00004460D462946204600F09EFD00BF8021BD
:1006E000204600F007FE0028F9D070BD2DE9F0414A
:1006F00007460D461646002405E0295D3846FFF7FB
:10070000E6FF601CC4B2B442F7DB00BF40213846AC
:1007100000F0F0FD0028F9D0BDE8F08170B5064684
:100720000C46002500BF615D3046FFF7D0FF6D1C11
:10073000605D0028F7D100BF4021304600F0DAFDAF
:100740000028F9D070BD2DE9F04105460C46260A77
:10075000E7B23146284600F05FFD00BF8021284601
:1007600000F0C8FD0028F9D03946284600F054FDB5
:1007700000BF8021284600F0BDFD0028F9D0BDE86B
:10078000F08170B504460D46E1B20D4800F044FD1D
:1007900000BF80210A4800F0ADFD0028F9D02046B6
:1007A00070BD10B5044600BF2021054800F0A2FD31
:1007B0000028F9D0024800F033FD10BD00080140C8
:1007C0000038014031490143314A1160704770B52A
:1007D000002100230F22C47804B32D4C246804F4B4
:1007E000E064C4F5E064210AC1F10403CA4044781E
:1007F00004FA03F18478144021430901254C06785A
:10080000A155047804F01F050124AC4005786D1152
:10081000AD0005F1E025C5F8004109E0047804F0D9
:100820001F050124AC401C4D0678761145F8264082
:1008300070BD1A4A0A400243154B1B1F1A607047CD
:1008400039B1134A121D12680243114B1B1D1A6065
:1008500006E00F4A121D126882430D4B1B1D1A60E1
:100860007047042808D14FF0E021096941F00401E4
:100870004FF0E022116107E04FF0E021096921F01B
:1008800004014FF0E0221161704700000000FA05FA
:100890000CED00E000E400E080E100E080FFFF1FDD
:1008A00010B50446CC48844208D10121042000F050
:1008B0002DFB0021042000F029FB46E0C7488442BC
:1008C00008D10121082000F021FB0021082000F0C0
:1008D0001DFB3AE0C248844208D10121102000F0FB
:1008E00015FB0021102000F011FB2EE0BD488442D2
:1008F00008D10121202000F009FB0021202000F078
:1009000005FB22E0B848844208D10121402000F0D4
:10091000FDFA0021402000F0F9FA16E0B3488442C5
:1009200008D10121802000F0F1FA0021802000F0A0
:10093000EDFA0AE0AE48844207D10121801500F0AB
:10094000E5FA0021A01500F0E1FA10BD10B5012173
:10095000084600F0DBFA0021012000F0D7FA10BDB4
:100960002DE9F04102460025002600200023002446
:10097000002791F803C00CF00F0591F803C00CF0AC
:10098000100CBCF1000F03D091F802C04CEA050531
:1009900091F800C0BCF1000F31D0146800202BE0AA
:1009A0004FF0010C0CFA00F3B1F800C00CEA03069A
:1009B0009E4220D183004FF00F0C0CFA03F7BC438A
:1009C00005FA03FC4CEA040491F803C0BCF1280FBB
:1009D00006D14FF0010C0CFA00FCC2F814C00AE07A
:1009E00091F803C0BCF1480F05D14FF0010C0CFA8F
:1009F00000FCC2F810C0401C0828D1D31460B1F824
:100A000000C0BCF1FF0F34DD546800202EE000F17F
:100A1000080C4FF0010808FA0CF3B1F800C00CEA1A
:100A200003069E4221D183004FF00F0C0CFA03F70E
:100A3000BC4305FA03FC4CEA040491F803C0BCF182
:100A4000280F05D100F1080C08FA0CF8C2F8148040
:100A500091F803C0BCF1480F07D100F1080C4FF02A
:100A6000010808FA0CF8C2F81080401C0828CED300
:100A70005460BDE8F0814FF6FF7101800221817062
:100A80000421C17070470246002093680B400BB1EF
:100A9000012000E0002070470146886880B270475E
:100AA00002460020D3680B400BB1012000E000207B
:100AB00070470146C86880B2704701617047416164
:100AC00070470AB1016100E041617047C160704741
:100AD0004FF480320A438261816182618269826956
:100AE000704702460020434B18684FF68073184049
:100AF00040EA021008433F4B186070473E49C86106
:100B00007047F0B50A46002300240021002500F0BC
:100B10000046B6F1004F02D1364EF16901E0354E84
:100B20007168C0F3034583B200F44016B6F5401F68
:100B300008D121F070612F4E766826F070662D4F37
:100B40007E6012E000F48016B6F5801F06D1032601
:100B500006FA05F4A14341F0706106E0460D360146
:100B600003FA06F6B14341F0706122B1460D360139
:100B700003FA06F6314300F00046B6F1004F02D109
:100B80001C4EF16101E01B4E7160F0BD30B50022DA
:100B90008B071C0F0F2303FA04F2164B08338C103B
:100BA00053F824309343134C08348D1044F8253007
:100BB00023468C1053F824308C07240F00FA04F4D9
:100BC00023430C4C08348D1044F8253030BD0A49BD
:100BD000DC3108607047000000080140000C014053
:100BE000001001400014014000180140001C0140A9
:100BF000002001400000014000002042DF48006862
:100C000040F00100DD49086008464068DC490840C2
:100C1000DA49486008460068DA490840D749086060
:100C20000846006820F4802008600846406820F4E8
:100C3000FE0048604FF41F0088607047CF49096884
:100C400021F48031CD4A11601146096821F48021D8
:100C50001160B0F5803F03D0B0F5802F0ED106E0D3
:100C6000C649096841F48031C44A116007E0C349AC
:100C7000096841F4A021C14A116000E000BF00BF33
:100C8000704710B501460022002300204A11012AB6
:100C900002D1BA4C236806E0022A02D1B74C236A7B
:100CA00001E0B64C636A01F01F02012494401C402D
:100CB0000CB1012000E0002010BD38B500200090EC
:100CC0000024002500BF3120FFF7DBFF0546009818
:100CD000401C00900098B0F5A06F01D0002DF2D01C
:100CE0003120FFF7CEFF08B1012400E000242046A8
:100CF00038BD01460020A14A106820F0F80040EA03
:100D0000C10010607047A04908607047024600208B
:100D10009A4B586820F47C1042EA01031843974B21
:100D20005860704798490866704701460020934A0A
:100D3000506820F003000843506070478F484068B7
:100D400000F00C007047014600208C4A506820F0EB
:100D5000F00008435060704701460020874A506801
:100D600020F4E06008435060704701460020834A49
:100D7000506820F4605040EAC1005060704729B1CB
:100D80007E4A527A02437D4B5A7204E07B4A527A81
:100D900082437A4B5A7270477B49D831086070475A
:100DA00001460020754A506820F4404008435060D6
:100DB00070470021714A20321170704A82F8201069
:100DC000012802D004280AD104E001216B4A203214
:100DD000117005E00521694A2032117000E000BF62
:100DE00000BF70476949086070476449096A014358
:100DF000624A11627047654944390860704730B5EE
:100E000000210022002400235C4D6D6805F00C01D8
:100E100021B1042905D0082923D105E05C4D0560E6
:100E200022E05B4D05601FE0544D6D6805F47012C3
:100E3000524D6D6805F48034022505EB92421CB9D1
:100E4000544D554305600BE04C4D6D6805F400357D
:100E50001DB1504D5543056002E04D4D55430560B1
:100E600002E04B4D056000BF00BF444D6D6805F0CA
:100E7000F0010909484D6B5C0568DD4045603F4D58
:100E80006D6805F4E061090A434D6B5C4568DD401F
:100E900085603A4D6D6805F46051C90A3E4D6B5C42
:100EA0004568DD40C560354D6D6805F44041890BEE
:100EB0003A4D6B5CC568B5FBF3F5056130BD29B1F2
:100EC0002E4A526902432D4B5A6104E02B4A526963
:100ED00082432A4B5A61704729B1284A92690243DA
:100EE000264B9A6104E0254A92698243234B9A611A
:100EF000704729B1214AD2690243204BDA6104E0EC
:100F00001E4AD26982431D4BDA61704729B11B4AE0
:100F1000D2680243194BDA6004E0184AD26882436F
:100F2000164BDA60704729B1144A12690243134B19
:100F30001A6104E0114A12698243104B1A6170472A
:100F400012494039086070470F49C86470470B491F
:100F5000C87170470948406A40F08070074948628C
:100F6000704701460020054A92680A400AB10120F4
:100F700000E000207047014988727047001002406D
:100F80000000FFF8FFFFF6FE0000424280044242EC
:100F900000127A0000093D00140000202400002007
:100FA00010B50446FB48844209D101218803FFF7AC
:100FB000ADFF00214FF48040FFF7A8FF32E0F64874
:100FC000844209D101214804FFF7ADFF00214FF40D
:100FD0000030FFF7A8FF25E0F048844209D1012145
:100FE0008804FFF7A0FF00214FF48020FFF79BFF4C
:100FF00018E0EB48844209D10121C804FFF793FFB0
:1010000000214FF40020FFF78EFF0BE0E5488442FB
:1010100008D101210805FFF786FF00214FF4801059
:10102000FFF781FF10BD2DE9F04786B005460E465B
:101030000024A24600BFA1460027B08900B100BF2E
:101040002F462C8A4CF6FF700440F08804432C8213
:10105000AC894EF6F3100440B08831890843718999
:1010600008430443AC81AC8A4FF6FF400440B0898A
:101070000443AC8201A8FFF7C2FEC648874202D1F2
:10108000DDF810A001E0DDF80CA0A88900F4004014
:1010900040B10AEBCA0000EB0A1031684900B0FB0E
:1010A000F1F807E00AEBCA0000EB0A10316889008A
:1010B000B0FBF1F86420B8FBF0F0040120096421D2
:1010C00001FB1089A88900F4004040B1322000EBF8
:1010D000C900B0FBF1F000F00700044308E0322043
:1010E00000EB09106421B0FBF1F000F00F000443A5
:1010F0002C8106B0BDE8F0874FF416510160002145
:101100008180C18001810C21418100218181704752
:1011100010B502460020108A4FF2FF0318400B88DA
:101120004C8823438C882343CC8823431843108264
:1011300010BD0021018041808180C180704721B1B4
:10114000828942F40052828104E082894DF6FF7365
:101150001A4082817047F0B503460024002600251E
:10116000002040F66A17B94200D100BF1846C1F30B
:10117000421401F01F06012707FA06F5012C01D1E0
:101180000C3004E0022C01D1103000E014301AB110
:1011900007682F43076002E00768AF430760F0BDB0
:1011A0001AB1838A0B43838202E0838A8B43838252
:1011B0007047028A4FF6F0731A400282028A0A438D
:1011C0000282704782894FF2FF731A4082818289BE
:1011D0000A438281704721B1828942F002028281F2
:1011E00004E082894FF6FD731A4082817047028ABB
:1011F0004FF6DF731A400282028A0A430282704766
:1012000021B1028A42F48042028204E0028A4BF653
:10121000FF731A4002827047C1F308028280704750
:1012200001468888C0F308007047818941F00101B8
:1012300081817047028BD2B20283028B42EA012283
:1012400002837047028B02F47F420283028B0A43BF
:101250000283704721B1828A42F02002828204E038
:10126000828A4FF6DF731A408282704721B1828AE8
:1012700042F01002828204E0828A4FF6EF731A4035
:101280008282704721B1828A42F00802828204E0A1
:10129000828A4FF6F7731A408282704721B18289A1
:1012A00042F40042828103E08289C2F30E0282810D
:1012B000704721B1828A42F40062828204E0828A0D
:1012C0004FF2FF731A4082827047828A4FF6FB7397
:1012D0001A408282828A0A438282704721B1828ABE
:1012E00042F00202828204E0828A4FF6FD731A40C5
:1012F0008282704702460020B1F5007F00D100BF16
:1013000013880B400BB1012000E00020704701F46E
:101310000072B2F5007F00D100BFCA43028070475F
:1013200070B50246002400230025002040F66A160E
:10133000B14200D100BFC1F3421501F01F030126E5
:1013400006FA03F3012D02D19689334006E0022DFF
:1013500002D1168A334001E0968A33400C120126EE
:1013600006FA04F41688344013B10CB1012000E0F1
:10137000002070BD10B50022002340F66A14A1427F
:1013800000D100BF0A1201249440A3B2DC430480C0
:1013900010BD0000003801400044004000480040FB
:1013A000004C00400050004010B50446204600F0BC
:1013B000E4F810BD10B500F0D5F810BD10B500F080
:1013C000D3F810BD10B500F0D1F810BD10B504462B
:1013D000204600F0CFF810BD10B50446002000F004
:1013E000B2F8204600F095F810BD10B535480CC88D
:1013F00035480068002102F069FC3449086008465D
:101400000068FFF7E9FF10BD10B500F071F810BDDE
:1014100000F0B6F810B500F0C0F810BD10B500F03F
:10142000C1F810BDF0B50446059D581920F007001D
:101430004FF08077061F30463760061F3046346015
:10144000061F304632604FF01237061F30463760B5
:101450004FF00337061F304637604FF00237061F44
:10146000304637607F10061F30463760061F304613
:1014700031604FF01137061F304637604FF010379C
:10148000061F304637604FF00937061F3046376079
:101490004FF00837061F304637604FF00737061FFA
:1014A000304637604FF00637061F304637604FF042
:1014B0000537061F304637604FF00437061F3046A9
:1014C0003760F0BD400000200000002048000020F0
:1014D00010B5002807DA0A07140E1F4A00F00F03A0
:1014E0001B1FD45403E00A07130E1C4A135410BDEB
:1014F00000BF19480C38006800F4E0601849084340
:10150000001D15490C390860BFF34F8F00BF00BFA5
:10151000FEE770B504462546B5F1807F00D311E0A3
:1015200025F07F40401E4FF0E02148610F214FF031
:10153000FF30FFF7CDFF00204FF0E021886107204A
:10154000086100BF70BD10B5044621464FF0FF3062
:10155000FFF7BEFF10BD000018ED00E000E400E062
:101560000000FA0572B6704762B67047EFF310805C
:1015700072B6704780F310887047B0FA80F07047F9
:1015800017484FF0FF010170002080F309881548CB
:101590004FF08051016062B6FEE712484FF0805173
:1015A000016070470F484FF080510160704772B67C
:1015B000EFF3098028B1203880E8F00F0A49096864
:1015C0000860094809490A680260106890E8F00F4D
:1015D000203080F309884EF0040E62B6704700BFD9
:1015E00022ED00E004ED00E0380000203C00002087
:1015F00010B504462046FFF7D7FEC0F1200010BD0D
:1016000010B50446E143491C04EA0100FFF7F0FF6E
:10161000401E10BD10B504462046FFF7E9FF401EEE
:1016200010BD2DE9F04104460F469046802C06D2AD
:1016300000252046E11704EB91718E1009E0204649
:10164000FFF7E8FF0546681F44FA00F080F0200627
:10165000AD1F3D60C8F80060BDE8F0812DE9F041A4
:1016600004460E461746802C08D32046FFF7D2FFCB
:10167000401F012101FA00F0451E2C443A46314634
:101680002046FFF7CEFFBDE8F081416821F002015E
:10169000416070472DE9F0410446204600F032FCDD
:1016A000061F204600F048FC0746314600F048FC83
:1016B00005462846BDE8F08170B504462046FFF790
:1016C000E9FF05462C60284670BD70B504462046EB
:1016D000FFF7F2FF0546284600F029FC204600F0FF
:1016E0001CFC70BD70B504462046FFF7D3FF0546CD
:1016F0002846FFF7CAFF204600F014FC70BD30B545
:10170000F84C04EBC11454F822308360F54C743C5F
:10171000C460D860743404EBC11444F82200F14C66
:10172000843C246A01258D402C43EE4D843D2C627F
:1017300005F1240454F82150012494402C43E94D30
:10174000603D45F8214030BD70B5C4688368DC60F9
:10175000A360E44D05EBC11555F82250854220D118
:10176000E04D05EBC11545F82230DE4D743DAB422E
:1017700017D1143555F821600125954026EA050555
:10178000D84E603E46F82150354655F8215045B9AF
:10179000A6F124052D6A01268E40B543D14E843E24
:1017A000356270BD7CB50446204600F0ABFB0546B3
:1017B0006A4601A9FFF735FF2046DDE90021FFF762
:1017C000C3FF7CBD7CB50446204600F09BFB05466C
:1017D0006A4601A9FFF725FF2046DDE90021FFF752
:1017E0008EFF7CBD70B505460C46284600F08AFB8E
:1017F00004F11001884201D3012070BD0020FCE7F4
:101800002DE9F04105460C46284600F095FB804640
:10181000211F00F095FB0646284600F073FB211DB2
:10182000471A3946304600F072FB2146284600F040
:101830006EFB3046FFF749FF3046BDE8F08170B5DA
:1018400004460D46284600F05DFB001D6168084413
:1018500060602046FFF730FF204670BD70B504463B
:1018600000BF207900F0020050B100BF256800BF22
:101870002846FFF797FF21462846FFF7E0FF04467A
:10188000204670BD70B505462846FFF703FF0446A5
:1018900000BF207900F0010038B12046FFF782FF39
:1018A00021462846FFF7CBFF0546284670BD70B598
:1018B00004460D4629462046FFF794FF68B12946A5
:1018C0002046FFF79DFF06462046FFF7F5FE30460F
:1018D00000F02DFB3046FFF775FF70BD70B5044674
:1018E0000D4629462046FFF77DFF70B12946204668
:1018F000FFF786FF06463046FFF7C7FE3046FFF784
:10190000C1FF06463046FFF75DFF70BD70B5044667
:101910000D46264629462046FFF764FF68B1291F79
:101920002046FFF76DFF0646304600F000FB2046DC
:10193000FFF7C2FE2046FFF745FF304670BD2DE998
:10194000F04705460E462C6837686648603850F800
:1019500024004FF0FF31B94000EA0109B9F1000F4E
:1019600017D160488438006A611C4FF0FF328A400A
:1019700000EA0208B8F1000F02D10020BDE8F087AC
:101980004046FFF73DFE04462C605648603850F84C
:1019900024904846FFF734FE07463760514800EB75
:1019A000C41050F82700E9E77CB5044600200190F8
:1019B0000090002504B97CBD6A4601A92046FFF7C6
:1019C0004DFE0198182804DA694601A8FFF7B7FF11
:1019D000054625B12846DDE90021FFF7B5FE28467A
:1019E000E9E710B5024600230AB9002010BD00BF88
:1019F000481E10444C1EA043034613B1B3F1804F60
:101A000001D90020F2E70C2B01D91846EEE70C2093
:101A1000ECE770B504460D460CB9002070BD2946B0
:101A20002046FFF744FF2046FFF75CFE204600F00B
:101A300083FAF3E70246002100BF08E02948803816
:101A400050F82100904201D101207047491C2548DF
:101A5000843800688842F1DC0020F6E70146002067
:101A600000BF07E01F4A803A52F820208A4200D186
:101A700005E0401C1B4A843A12688242F2DC00BF37
:101A8000184A843A1268521E82420BD0154A843A90
:101A90001268521E134B803B53F82230114A803A91
:101AA00042F820300F4A843A1268521E0D4B843B94
:101AB0001A60704700220B4B843B1A60002005E03F
:101AC0000023084A803A42F82030401C0328F7DB04
:101AD000044A743AA2F110039A61DA6100221A6290
:101AE000002013E00C6B00200023F84A42F820305D
:101AF000002108E0F54A143A02F1740303EBC01325
:101B000043F82120491C2029F4DB401C1828EBDB7A
:101B1000704710B5FFF7CEFF002010BD2DE9F04152
:101B200004460E4600BFE94824380068032801D166
:101B3000012000E0002018B140F22230BDE8F08121
:101B40002046FFF777FF10B140F22330F6E7A6F109
:101B5000080004214A1E0240851A00BF04F0030059
:101B600010B14FF44870E9E70C2D02D3B5F1804F66
:101B700002D940F22130E1E76FF00301204600F086
:101B8000DFF907462946384600F0C1F9384600F02B
:101B9000C4F93846FFF779FD3846FFF713FE38469B
:101BA000FFF78AFD80460021404600F0B0F940462C
:101BB00000F0B8F9404600F0BAF900BFC348243835
:101BC00001680068401CC14A243A1060101D40F8AA
:101BD000214000BF0020B1E770B504460D46FFF775
:101BE00069FF29462046FFF799FF70BD70B505468D
:101BF000B5F1804F01D9002070BD04212846FFF7C0
:101C0000F0FE06463046FFF7CFFE04460CB9002032
:101C1000F2E731462046FFF7FCFEEDE770B50446DB
:101C20000D4604FB05F0FFF7E1FF064626B104FB75
:101C300005F1304602F094F8304670BD2DE9F34FBF
:101C400085B00E4604210598FFF7CBFE81464FF084
:101C5000100A09EB060101EB0A003146FFF7C1FE4D
:101C60000390B9F1000F03D0042E01D9039800E0CE
:101C7000484604900498FFF797FE8046B8F1000F9D
:101C800003D1002007B0BDE8F08F404600F054F9C2
:101C900007463146384600F056F90546EC1BA4B11C
:101CA000544512D2AAEB040002900298B04201D926
:101CB000029800E030460190019805EB000B314698
:101CC000584600F040F90546EC1B24B12146404639
:101CD000FFF71CFE804649464046FFF79AFED1E7D3
:101CE00070B5044604B970BD00BFA4F108000546F4
:101CF0002846FFF7EAFC2846FFF7B0FD05462846D0
:101D0000FFF7C0FD05462846FFF75CFD00BFEAE788
:101D10002DE9F84F04460F464FF0000A34B12FB9B1
:101D20002046FFF7DDFF0020BDE8F88F1CB93846DC
:101D3000FFF75CFFF8E700BFA4F1080800BF4046CA
:101D4000FFF7A8FC8146404600F0DCF8064648460E
:101D500000F0D8F8304400F1040B04213846FFF7B6
:101D600040FE0546B5421DD900BF99F8040000F0B9
:101D7000010008B15D4515D93846FFF737FF8246A7
:101D8000BAF1000F1BD0BE4201D2304600E0384607
:101D9000009021465046009A01F0C9FF2046FFF707
:101DA0009FFF0CE0B54205D94046FFF76BFD40466A
:101DB000FFF798FC29464046FFF790FDA2465046A3
:101DC000B2E77CB5044600200190009000BF0CB93A
:101DD000012000E0002010B140F24C407CBD00BF6B
:101DE0002046FFF727FE10B94FF44970F6E76FF071
:101DF0000301204600F0A4F80546284600F082F8CA
:101E000006466A4601A9FFF70CFC2846DDE90021D9
:101E1000FFF79AFC2046FFF721FE0020DEE72DE9C0
:101E2000F04106460C4600BF0EB9012000E000203C
:101E300018B140F24C40BDE8F08100BF00BF0CB9C2
:101E4000012000E0002010B140F24C40F3E700BF59
:101E5000002020606060011F304600F071F80546E8
:101E600015E000BF287900F0010030B1284600F0ED
:101E700049F861680844606005E0284600F042F8CF
:101E80002168084420602846FFF704FC05464DB150
:101E90002F46384600F036F808B9012000E000204F
:101EA0000028DED00020C6E77CB5044600BF0CB990
:101EB000012000E0002010B140F24C407CBD00BF8A
:101EC000002020606060002515E00000AC6A002062
:101ED000204951F825006946FFF7A1FF06460EB1DB
:101EE0003046EBE76068019908446060206800991B
:101EF000084420606D1C1748001F0068A842E7DCFA
:101F00000020DBE70146486820F0030070470279B3
:101F100002F003020A4342607047416841F0010148
:101F200041607047416821F001014160704741689C
:101F300041F0020141607047014601F1080070471D
:101F40000246501870470246481E10444B1E9843E4
:101F5000704700008C6A002070B50446256900BFF8
:101F6000D4E906104860016000BF00BF0020206176
:101F7000207395F858000A2808D095F8581028467C
:101F800000F0D8FF0A2085F858000AE095F82100F3
:101F9000217D884205D0217D284600F0CBFF0A2014
:101FA000207570BD10B502460B46136193F82100F1
:101FB00010750120107302F1180003F150010C6834
:101FC000606004604160086000BF00BF10BD10B5D4
:101FD00004462046FFF7C0FF0421201D00F0ABFAA5
:101FE00010BD10B5044600BF00F0E4FC08B10120AC
:101FF00000E0002010B14FF4C87010BD00BF00BF5A
:102000000CB9012000E0002010B140F24C40F4E790
:1020100000BF201D00F010FA0020207320610A206C
:10202000207504F1180000F0A7F946F6EE312046BD
:1020300000F0ADF90020E0E770B5054600BF00F004
:10204000B9FC08B1012000E0002010B14FF4C870C5
:1020500070BD00BF00BF0DB9012000E0002010B12D
:1020600040F24C40F4E700BF20210120FFF7D6FDED
:10207000044614B940F6FC00EAE7201D00F0DCF944
:102080000020207320610A20207504F1180000F060
:1020900073F946F6EE31204600F079F900BF0220D0
:1020A000207000BF2C600020D2E770B504460025E8
:1020B00000BF00F07FFC08B1012000E0002010B15B
:1020C0004FF4C87070BD00BF00BF0CB9012000E024
:1020D000002010B140F24C40F4E700BF00BF46F6CC
:1020E000EE31204600F04BF910B940F24D40E9E7DF
:1020F00000BF00BFFFF766F9054600BF0321201DA2
:1021000000F019FA206910B12046FFF725FF201DC5
:1021100000F098F900BF2078022801D1012000E0EA
:10212000002038B100BF0020608000BF2046FFF7CC
:10213000D7FD04E000BF0020608000BF00BF00BFEB
:102140002846FFF743F900BF00F0AAFC0020B9E7DA
:102150002DE9F041044615461E46002700BF00F059
:1021600029FC08B1012000E0002018B14FF4C8702C
:10217000BDE8F08100BF00BF0CB9012000E00020E5
:1021800010B140F24C40F3E700BF00BF46F6EE311D
:10219000204600F0F4F810B940F24D40E8E700BFE7
:1021A00000BFFFF70FF9074600BF207B58B97948F9
:1021B00001682046FFF7F6FE00BF3846FFF706F934
:1021C00000BF0020D4E7206900F0E4FBA8B1207B29
:1021D000FF2807D100BF3846FFF7F8F800BF40F2EC
:1021E000EA30C5E7207B401C207300BF3846FFF76C
:1021F000EDF800BF40F2E930BAE7002185EA0100BE
:102200007140084307D100BF3846FFF7DFF800BF31
:102210004FF49660ACE700F0C6FB38B100BF38461B
:10222000FFF7D4F800BF40F2B140A1E7206990F871
:1022300021005849096891F82110884206DD554A65
:10224000126892F82110206900F074FE2A46334685
:10225000211D5048006800F046F900BF3846FFF7DE
:10226000B5F800BF00F01CFC4A49096891F860000D
:1022700000F0FFF87CE710B504464FF0FF3213463C
:102280002046FFF765FF10BD2DE9F04704464FF0EB
:10229000000900BF00F08EFB08B1012000E0002023
:1022A00018B14FF4C870BDE8F08700BF00BF0CB98B
:1022B000012000E0002010B140F24C40F3E700BFE5
:1022C00000BF46F6EE31204600F059F810B940F252
:1022D0004D40E8E700BF00BFFFF774F8814600BF3C
:1022E000206900F057FB38B900BF4846FFF76EF889
:1022F00000BF4FF47A70D6E7207B401E2073207B0E
:10230000002807DD00BF4846FFF760F800BF40F235
:10231000E930C8E72046FFF71FFE201D00F098F8BF
:1023200030B100BF4846FFF751F800BF0020BAE7C0
:10233000201D00F06CF806462746354629463846EB
:10234000FFF730FE381D00F051F8804695F8210067
:10235000404503DD4146284600F0ECFD00BF012169
:10236000201D00F0DEF800BF4846FFF72FF800BF41
:1023700000F096FB002096E7006040607047024640
:102380005088884201D1012070470020FCE741803D
:10239000704700003800002030B50B461968A1F1E5
:1023A000480409E090F8211094F82120914200DAC5
:1023B00006E0A16CA1F1480404F148019942F1D171
:1023C00000BF00F1480104F14802556851600A60FD
:1023D0004D60296000BF00BFC36500BF90F82010AA
:1023E00041F0020180F8201000BF30BD70B50446F6
:1023F000204600F0D1F808B1002001E020684838FC
:10240000054615B195F8210070BD0A20FCE701468C
:1024100008684838704710B5044604F1480000F0D9
:10242000B5F80020E06500BF94F8200020F002001D
:1024300084F8200000BF10BD10B50446204600F00F
:10244000A2F810BD10B50446204600F09CF810BD5F
:1024500010B50446204600F09FF810BD10B50446A4
:1024600004F1480000F092F82046E16DFFF794FF78
:1024700010BD0146012901D100207047022902D177
:1024800040F2B340F9E7032902D140F2B440F4E747
:10249000042902D140F2B540EFE740F2B240ECE748
:1024A00070B504460D4600BF94F8200000F002000D
:1024B00020B184F860502046FFF7ADFF00BF94F8CC
:1024C000200000F0010010B1204601F0B4F800BF78
:1024D00094F8200000F0040000B170BD204600F028
:1024E00097F900BFF9E72DE9F04106460F4614467B
:1024F0001D46304600F09EF9002086F860003946FF
:102500003046FFF749FF4FF0FF3184EA0100694090
:10251000084304D022462B46304601F07AF8BDE845
:10252000F08170B504460D462168A1F148002946A6
:10253000FFF7B6FF70BD2DE9F04105460F4628684C
:10254000A0F14804A06CA0F1480607E039462046F7
:10255000FFF7A6FF3446A06CA0F1480604F148003E
:10256000A842F3D1BDE8F08170B505460E46144689
:1025700024B931462846FFF7D4FF03E03146284608
:10258000FFF7D9FF70BD006040607047D0E90012CE
:102590004A60116000BF704701460868884201D157
:1025A000012070470020FCE770B50446002500BFFD
:1025B000FEF708FF054600BF14B13E48046002E084
:1025C00064203C49086000BF2846FEF7FFFE00BFBC
:1025D00070BD70B504460D4600260CB93648046837
:1025E00000BFFEF7EFFE064600BF1DB93148006888
:1025F000606600E06566D4E91901884201D9606E21
:10260000A06600BF3046FEF7E1FE00BF70BD70B5AA
:102610000546002600BFFEF7D5FE064600BF284649
:1026200000F08EF804461CB1204600F0AFFA28B145
:1026300000BF3046FEF7CAFE00BF70BD284600F05E
:1026400070F828B100BF3046FEF7C0FE00BFF4E7C7
:1026500000F0A9F928B100BF3046FEF7B7FE00BF71
:10266000EBE7A06E10B1A06E401EA066A06E28B170
:1026700000BF3046FEF7AAFE00BFDEE70E4909683C
:1026800091F8210000F007F9284600F059F80446B7
:10269000606E18B907480068A06601E0606EA06629
:1026A00000BF3046FEF792FE00BF00F0F9F900BF10
:1026B000C3E700005C00002038000020506002608A
:1026C00041600860704770B50025894C03E005F152
:1026D0002000C5B2241D20680028F8D02068FEF72D
:1026E00063FE2844C5B2284670BD00BF4211804930
:1026F00051F8221000F01F02C2F11F0301229A407C
:10270000114343117A4A42F8231000BFA2F150014D
:1027100091F85410814203DDA2F1500181F8540078
:10272000704701467248503800EBC1021068A0F1B2
:102730004803986C904201D1012070470020FCE7CB
:1027400070B504466A48503800EBC405284600F0CE
:10275000C6F808B1002070BD28684838FBE7644817
:10276000503890F85400624A503A02EBC0010868B1
:10277000483870470A215E4A503A82F854100021C6
:10278000084609E05A4A503A02EBC0010960496024
:1027900000BF411CC9B208460A28F3D3002005E057
:1027A0000022534941F82020411CC8B20028F7D02C
:1027B00070472DE9F041054695F821604C485038A6
:1027C00000EBC604204600F08AF810B13046FFF74F
:1027D0008CFF05F14807214638462268FFF76EFF57
:1027E00000BFBDE8F08170B5044694F82150404820
:1027F000503800EBC506304600F071F810B128469D
:10280000FFF773FF314604F1480000F05FF870BD38
:1028100010B5044694F821003649096891F8211052
:10282000884203D12046FFF7DEFF02E02046FFF793
:10283000C0FF10BD70B5054695F821402C485038B2
:1028400000EBC40600BFD5E9121000F03CF800BF51
:10285000304600F044F888B100BF6111244850F8B8
:10286000210004F01F01C1F11F02012191408843A2
:1028700062111F4941F8220000BF00BF1C485038B8
:1028800090F85400A04205D1FFF71DFF18495039B8
:1028900081F8540070BD70B506461548503800EBFD
:1028A000C605284600F01BF860B92C6800BFD4E9C3
:1028B000001000F008F800BF2946204600F006F896
:1028C00000BF00BF70BD48600160704770B505462D
:1028D0000C46224628466168FFF7F0FE70BD0146AF
:1028E0000868884201D1012070470020FCE7000001
:1028F000B80900203800002000BF00BFFEE71FB568
:102900000020A6490968A64A12680923CDE90032C9
:10291000CDE902100346A34AA3A1A54800F03EFA60
:1029200004B010BD10B5FEF760FDFFF723FF4FF4B4
:10293000C041A048FFF750F904460CB1204610BD35
:10294000FFF7DDFF04460CB12046F8E701F0ADF9D2
:1029500004460CB12046F2E70020F0E796480078E4
:10296000012800D170470020FCE700B5FFF7F6FF13
:1029700000B900BD91480078FA2801DB012000E091
:10298000002000B1F5E78D480078401C8B490870A5
:1029900000BFEEE701468A480068814201D101206C
:1029A00070470020FCE78748007808B10120704795
:1029B0000020FCE78148007808B101207047002022
:1029C000FCE710B50024FFF7C9FF00B910BD00BF38
:1029D000FEF7F8FC044600BFFFF7ECFF28B900BF84
:1029E0002046FEF7F3FC00BFF0E774480078401E75
:1029F00072490870FFF7DEFF28B100BF2046FEF7DE
:102A0000E5FC00BFE2E7FFF7CEFF28B100BF20469C
:102A1000FEF7DCFC00BFD9E7FFF7A1FE6A490860BA
:102A200008460068FFF7B6FF28B100BF2046FEF752
:102A3000CDFC00BFCAE7FEF7F1FC00BF2046FEF761
:102A4000C5FC00BF00BFC1E710B5002400BFFFF701
:102A5000B1FF08B1012000E0002010B14FF4C870B0
:102A600010BD00BFFFF77AFF10B94FF4FA70F7E717
:102A700054480078FA2802DB4FF41670F0E700BFE4
:102A8000FEF7A0FC044600BF4E480078401C4D49AC
:102A9000087000BF2046FEF799FC00BF0020DFE76A
:102AA00010B50024FFF75AFF08B9012000E000200C
:102AB00000B110BDFFF77EFF00B1FAE7FFF773FF2B
:102AC00000B1F6E700BFFEF77DFC044600BFFFF74C
:102AD00046FE3D49086008460068FFF75BFF28B1E5
:102AE00000BF2046FEF772FC00BFE2E7FEF792FC53
:102AF00000BF2046FEF76AFC00BF00BFD9E710B553
:102B0000002400BFFFF756FF08B1012000E00020BD
:102B100010B14FF4C87010BD00BFFFF71FFF10B910
:102B20004FF4FA70F7E7FFF73EFF10B940F2A560E7
:102B3000F1E700BFFEF746FC044600BF21480078DD
:102B4000401E2049087000BF2046FEF73FFC00BF32
:102B5000FFF7A6FF0020DEE710B5FFF7FFFE08B184
:102B6000012000E0002010B140F2F51010BDFFF789
:102B7000F6FD154908600846006811490860012003
:102B80000D490870FEF744FC0020EFE701460848B5
:102B9000814201D1012070470020FCE7F440000889
:102BA000F0400008F928000869646C650000000026
:102BB000C0090020880A00202A00002028000020E8
:102BC00038000020290000203C00002070B50024BF
:102BD000002500BFFEF7F6FB044600BFFFF7BEFE70
:102BE00008B1012000E0002008B1FE48056800BFE0
:102BF0002046FEF7EBFB00BF284670BD10B504462B
:102C000004F12C0000F07EFB04F1400000F07AFBA0
:102C100004F1480000F076FB04F1500000F072FB74
:102C20000A2084F85800002084F86000E06500BFA6
:102C3000E08000BF10BD70B50546286DA0F11804F6
:102C4000A069A0F1180606E02046FFF7C0F9344657
:102C5000A069A0F1180604F1180005F1500188429E
:102C6000F2D170BD70B5044600252046FFF78EFFF7
:102C700010B140F26D7070BD00BFFEF7A3FB0546BA
:102C800000BF04F1500000F040FB10B92046FFF7F0
:102C9000D2FF204600F049FB10B12046FFF7CAFDE5
:102CA00000BF94F8200000F0010010B1204600F0B1
:102CB000C2FC00BF94F8200000F0020010B12046D2
:102CC000FFF7A9FB00BFD4E90B104860016000BF0B
:102CD00000BF2046FFF792FF00BF082084F82000C5
:102CE00000BF00BF2846FEF771FB00BFFFF7D8FE0C
:102CF0000020C0E710B504462046FFF7B3FF10BD23
:102D000010B5044600BFFFF755FE08B1012000E0F2
:102D1000002010B14FF4C87010BD00BF0CB90120E5
:102D200000E0002008B1AF48046800BF4DF6D8218C
:102D3000201D00F0F2FA10B940F24D40ECE700BF60
:102D40002046FFF727FE28B1FFF72DFE10B140F215
:102D5000A460E1E72046FFF7CDFFDDE710B50020D6
:102D6000FFF7CEFF10BD2DE9F04105460A27286D7B
:102D7000A0F1180609E0301DFFF738FB0446BC42FD
:102D800000DA2746B069A0F1180606F1180005F12F
:102D900050018842EFD13846BDE8F0812DE9FC5F53
:102DA00004468B4615461E460CAF97E88007002068
:102DB000019000BFFFF7FEFD08B1012000E00020F8
:102DC00018B14FF4C870BDE8FC9F00BF00BF0CB93C
:102DD000012000E0002010B140F24C40F3E700BFBA
:102DE00000BF0DB9012000E0002010B140F24C40BE
:102DF000E9E700BF00BFB8F1000F01D1012000E0FA
:102E0000002010B140F24C40DDE700BF00BF4DF69E
:102E1000D821201D00F081FA10B140F26C70D2E789
:102E200000BFB9F1400F01D2012000E0002010B135
:102E300040F27470C7E7092F05D12046FFF7A6FEC0
:102E400008B9012000E0002010B140F26F70BAE72D
:102E5000092F01DD012000E0002010B140F26F7069
:102E6000B1E72046FFF7CAFE04F12C005E490A686C
:102E7000506002604160086000BF00BF201D4DF639
:102E8000D821418000BF4346584A31462846CDF8F4
:102E90000090FEF7C7FA2060A561E66184F8217012
:102EA000C4F82480C4F828900F22594604F1080081
:102EB00000F061FFC4F864A0BAF1000F03D14C48E0
:102EC0000068A06601E0C4F868A000BFFEF77AFAC7
:102ED000019000BF00BF002084F8200000BF204602
:102EE000FFF781FC00BF0198FEF770FA00BFFFF703
:102EF00035FD08B1FFF7D4FD002064E710B50024CC
:102F0000FFF758FD00B110BD00BFFEF75BFA0446A5
:102F100000BF34480068FFF78DFC32480068FFF7B7
:102F200062FC00BF2046FEF751FA00BFFFF7B8FD74
:102F300000BFE8E72DE9F04104460D46002700BF39
:102F4000FFF738FD08B1012000E0002018B14FF470
:102F5000C870BDE8F08100BF00BF0CB9012000E0DF
:102F6000002010B140F24C40F3E700BF00BF4DF627
:102F7000D821201D00F0D1F910B940F24D40E8E70A
:102F800000BF092D01DB012000E0002010B140F25C
:102F90006F70DEE700BFFEF715FA074600BF94F832
:102FA0002100A84208D100BF3846FEF70FFA00BF43
:102FB000FFF776FD0020CCE704F1500000F0A5F902
:102FC00040B92046FFF7CFFE0646B54202DD84F841
:102FD0005850354600BF94F8200000F0020078B148
:102FE00008E00000380000204C0000205D2D0008A3
:102FF0005C00002084F821502046FFF72FFA1CE0E7
:1030000000BF94F8200000F0010010B184F82150B6
:1030100013E0204600F089F978B12046FFF70AFC5A
:1030200084F821502046FFF7B5FC18B12046FFF781
:10303000C0FB02E02046FFF7D6FB00BF3846FEF794
:10304000C5F900BFFFF72CFD002082E770B50446EC
:1030500000250CB9012000E0002008B1E848046810
:1030600000BF4DF6D821201D00F057F910B940F2ED
:103070004D4070BD00BF2046FFF788FD10B140F203
:103080007270F6E72046FFF785FC08B1012000E0EA
:10309000002028B1FFF787FC10B140F2A460E8E7F8
:1030A00000BFFEF78FF9054600BF204600F03DF94E
:1030B00010B12046FFF7BEFB00BF94F8200040F09F
:1030C000040084F8200000BF00BF2846FEF77EF908
:1030D00000BFFFF7E5FC0020CBE770B504460025F4
:1030E00000BF0CB9012000E0002010B140F24C40BC
:1030F00070BD00BF00BF4DF6D821201D00F00DF9B6
:1031000010B940F24D40F3E700BF2046FFF742FC04
:1031100008B1012000E0002010B14FF4EE60E7E7B5
:1031200000BFFEF74FF9054600BF00BF94F820002E
:1031300000F0040040B900BF2846FEF747F900BF81
:10314000FFF7AEFC0020D3E700BF94F8200020F08A
:10315000040084F8200000BF204600F0E6F810B11B
:103160002046FFF755FB00BF2846FEF72FF900BFAA
:10317000FFF796FC0020BBE770B504460D4600261D
:1031800000BFFFF717FC08B1012000E0002010B1DC
:103190004FF4C87070BD00BFFFF705FC10B140F2DE
:1031A000A460F7E7002184EA01006940084301D1E7
:1031B000012000E0002018B1FFF7A0FE0020E9E7A1
:1031C0004FF0FF3184EA01006940084301D101203A
:1031D00000E0002008B16520DCE700BFFEF7F2F850
:1031E000064600BF22462B468548006800F011FACB
:1031F00083480068FFF71EFB00BF3046FEF7E6F885
:1032000000BFFFF74DFC0020C4E770B50446002561
:1032100000BFFFF7CFFB08B1012000E0002010B194
:103220004FF4C87070BD00BF00BF0CB9012000E0B2
:10323000002010B140F24C40F4E700BF00BF4DF653
:10324000D821201D00F069F810B940F24D40E9E79F
:1032500000BF00BFFEF7B6F8054600BF2046FFF7E7
:1032600099FB28B900BF94F8200000F0010038B99C
:1032700000BF2846FEF7AAF800BF40F26E70D1E703
:1032800000BF94F8200000F0040038B100BF2846C9
:10329000FEF79CF800BF40F27170C3E7204600F0D3
:1032A000CAF92046FFF7B4FA00BF2846FEF78EF8A9
:1032B00000BFFFF7F5FB0020B4E770B50546002618
:1032C00005B970BD00BFFEF77DF8064600BF4D484A
:1032D0000068A0F12C0404E02046A847E06AA0F1B1
:1032E0002C0404F12C0047498842F5D100BF304638
:1032F000FEF76CF800BF00BFE3E710B54248FFF7E8
:10330000DCFF10BD006040607047014608688842DD
:1033100001D1012070470020FCE702465088884216
:1033200001D1012070470020FCE7014691F8200000
:1033300008B9012070470020FCE770B5044633A5AA
:1033400000BF04F1080134A000F052FD36A000F0E7
:103350004FFDFFF73BFCA04201D134A52DE094F8CE
:103360002000072801D133A527E094F82000062883
:1033700001D136A521E094F82000052801D137A518
:103380001BE094F82000032801D138A515E094F83B
:103390002000042801D12AA50FE094F8200002287B
:1033A00001D135A509E094F82000012801D134A508
:1033B00003E094F8200000B933A5294634A000F0BA
:1033C00017FD19A000F014FD35A0A16A00F010FD52
:1033D00015A000F00DFD36A0616A00F009FD12A0F5
:1033E00000F006FDD4E90902811835A000F000FDC7
:1033F0000DA000F0FDFC0CA000F0FAFC70BD000078
:10340000380000204C0000203B33000841424E4F62
:10341000524D414C0000000074736B206E616D656D
:103420003A202573000000000A00000052554E4E5D
:10343000494E470050454E4454494D454F55545F01
:1034400053555350454E44454400000050454E44AA
:103450005F53555350454E4445440000534C454539
:10346000505F53555350454E4445440050454E44DB
:1034700054494D454F55540050454E4400000000FE
:10348000534C45455000000052454144590000004E
:1034900074736B20737461743A202573000000000C
:1034A00073746B2073697A653A202564000000000C
:1034B00073746B20626173653A2030782570000068
:1034C00073746B20746F70203A2030782570000080
:1034D0002DE9F84F82469046994600200090834699
:1034E00000210E460F4600BFFDF76CFF009000BFA5
:1034F000CAE90E89A7480068A0F1400B1DE0DBE98E
:103500000E108C1940EB0705DAE90E10091BA841D3
:1035100000D217E0DAE90E0160406940084306D1A5
:103520009AF821009BF82110884200DA0AE026462A
:103530002F46DBF84000A0F1400B0BF1400095490D
:103540008842DCD100BFDAE90E10891B60EB07006E
:10355000CAE90E100BF140008E49884208D0DBE921
:103560000E20DAE90E31D21A60EB0100CBE90E2011
:103570000AF140000BF140014A6848600160426076
:10358000106000BF00BF00BF0098FDF71FFF00BF25
:10359000BDE8F88F70B50446002600BFFDF712FFA6
:1035A000064600BF04F1400000F0ECF808B100202E
:1035B00001E0206C40380546F5B17649206C884220
:1035C0001AD06FF001014810D4E90E238A1A60EB7B
:1035D0000300D5E90E13511A984108D3D5E90E20FE
:1035E000D4E90E31D2184841C5E90E2004E06FF04D
:1035F00001014810C5E90E1000BFD4E91010486061
:10360000016000BF00BF00BF3046FDF7DFFE00BF16
:1036100070BD70B5044615461E462A463346204600
:10362000FFF756FF00BF94F8200040F0010084F837
:10363000200000BF70BD10B504462046FFF7AAFF6A
:1036400000BF94F8200020F0010084F8200000BFA3
:1036500010BD2DE9F04704460D464FF0000900BFAC
:10366000FDF7B0FE814600BF4B48D0E900100919B4
:103670006841494AC2E90010464800F083F830B179
:1036800000BF4846FDF7A2FE00BFBDE8F0874148F5
:103690000068A0F14007D7E90E01201A75EB010080
:1036A00003D30021B963F9630CE0D7E90E10091BBD
:1036B00060EB0500C7E90E1000BF4846FDF786FE27
:1036C00000BFE2E733480068A0F14006306CA0F18B
:1036D00040080FE00023D6E90E105940584001433E
:1036E00000D00CE002213046FEF7DAFE4646306C90
:1036F000A0F1400806F1400026498842EAD100BF07
:1037000000BF4846FDF762FE00BF00BFBDE72DE9E0
:10371000F041002700BFFDF755FE074600BF1D48DA
:1037200000F030F808B1002002E01A480068403884
:10373000064616B1D6E90E1002E04FF0FF310846FA
:103740000C46054600BF3846FDF740FE00BF204648
:103750002946BDE8F08110B5FFF700F908B901204E
:1037600000E0002000B110BD01200021FFF771FF33
:1037700000F05BFA0949096891F82100FEF747FF5C
:1037800000BFF0E701460868884201D10120704778
:103790000020FCE75400002030000020380000200A
:1037A00070B504460026002500BFFDF70BFE064657
:1037B00000BFF84AD4E9063006CA59185041C4E996
:1037C0000610F5488068A0F10C050AE0D4E906303F
:1037D000D5E90612591A904100D208E0E868A0F134
:1037E0000C0505F10C00EC4908318842EED100BF10
:1037F00004F10C0005F10C014A6848600160426068
:10380000106000BF00BFE448816804F10C008142F1
:1038100004D1E14AD4E90610C2E9001000BF3046E5
:10382000FDF7D4FD00BF70BD2DE9F041044600272F
:1038300000BFFDF7C7FD074600BFD7488068A0F16D
:103840000C0500BFD4E903104860016000BF00BF51
:10385000A54219D104F10C000168814201D1012176
:1038600000E0002109B1002001E0E0680C380646C4
:103870002EB94FF0FF31C84A1160516004E0C64ACA
:10388000D6E90610C2E9001000BF3846FDF79EFDDC
:1038900000BFBDE8F0812DE9F05F044615461E46E5
:1038A0000AAF97E8800DDDF8389000BF0CB9012011
:1038B00000E0002018B140F24C40BDE8F09F00BF8E
:1038C00000BFBAF1000F01D1012000E0002010B1CB
:1038D00040F24C40F1E700BFB9F1020F09D10021DD
:1038E00087EA010088EA0101084302D140F6380066
:1038F000E3E7B9F1010F08D1002185EA0100714029
:10390000084302D140F63700D7E7B9F1010F05D0DF
:10391000B9F1020F02D040F63A00CEE74FF0FF3186
:1039200085EA01007140084302D140F63500C4E742
:103930004FF0FF3187EA010088EA0101084302D114
:1039400040F63600B9E7012084F83200C4E9085691
:103950000021A161E161C4E90A78A4F83090C4F8BB
:1039600004A0C4F808B004F10C0000F0A0F94DF672
:10397000D920608000BF00209FE710B5044600BF3B
:103980000CB9012000E0002010B140F24C4010BD05
:1039900000BF00BF4DF6D921204600F08BF910B9C9
:1039A00040F24D40F3E700BF94F8320010B940F602
:1039B0003400ECE794F83200022802D12046FFF7E9
:1039C00033FF00BF002084F83200002121626162D1
:1039D000A161E161A162E16220866060A06004F102
:1039E0000C0000F064F900BF0020608000BF00BF41
:1039F00000BFCCE710B5044600BF0CB9012000E0C1
:103A0000002010B140F24C4010BD00BF00BF4DF689
:103A1000D921204600F04EF910B940F24D40F3E7AD
:103A200000BF94F8320010B940F63400ECE794F887
:103A3000320002280BD12046FFF7F6FED4E9080138
:103A4000C4E906012046FFF7ABFE0020DCE794F84E
:103A50003200012803D094F83200032817D1022045
:103A600084F832000023D4E908105940584001433B
:103A700004D1D4E90A01C4E9060103E0D4E908014C
:103A8000C4E906012046FFF78BFE0020BCE740F6A4
:103A90003900B9E710B5044600BF0CB9012000E0B9
:103AA000002010B140F24C4010BD00BF00BF4DF6E9
:103AB000D921204600F0FEF810B940F24D40F3E75E
:103AC00000BF94F8320010B940F63400ECE794F8E7
:103AD0003200032803D094F83200012802D140F6C6
:103AE0003B00E1E794F83200022805D1012084F878
:103AF00032002046FFF798FE0020D5E72DE9F0417F
:103B0000064614461D46069F00BF0EB9012000E080
:103B1000002018B140F24C40BDE8F08100BF00BF6A
:103B20004DF6D921304600F0C5F810B940F24D40AD
:103B3000F2E700BF96F8320010B940F63400EBE728
:103B400096F83200022802D140F63C00E4E7308EBD
:103B5000012809D147B9002184EA010069400843DE
:103B600002D140F63700D7E7308E02280AD1012F64
:103B700008D1002184EA01006940084302D140F6DF
:103B80003800C9E717B9C6E9084501E0C6E90A45A2
:103B90000020C1E73000002060000020F8B5064694
:103BA00014461D46002022462B4600903046FFF763
:103BB000A5FFF8BDF8B5064614461D46012022466D
:103BC0002B4600903046FFF799FFF8BD70B50026F0
:103BD00000BFFDF7F7FB064600BF3A48D0E90010EA
:103BE0004FF0FF3251405040014302D14C1E254658
:103BF00013E0344806C83448D0E90030591A9041DF
:103C000002D30024254608E02E48D0E900202E49A2
:103C1000D1E90031D41A60EB010500BF3046FDF751
:103C2000D5FB00BF2046294670BD70B5254806C8A3
:103C30002548D0E90030591A904100D270BDFEF7F6
:103C400003FF20488068A0F10C04E068A0F10C0597
:103C500020E01D48D4E90632D0E90010C91A90418D
:103C600000D21DE02046FFF7DFFD208E022807D19D
:103C7000D4E90A01C4E906012046FFF791FD02E0FC
:103C8000032084F83200D4E9011088472C46E0680C
:103C9000A0F10C0504F10C000A4908318842D8D182
:103CA00000BFFEF72CFF00BFC8E700207047006090
:103CB0004060704702465088884201D10120704719
:103CC0000020FCE760000020300000202DE9F05FBC
:103CD0000546002092469B4688460646814640247B
:103CE0001BE0284641464746224600F05FF853460F
:103CF0005A46C01A914110D311461846224600F088
:103D000046F82D1A67EB01084F4622460120002194
:103D100000F03DF817EB00094E41201EA4F101040C
:103D2000DFDC484631462A464346BDE8F09F40EA7C
:103D300001039B0703D009E008C9121F08C0042A29
:103D4000FAD203E011F8013B00F8013B521EF9D210
:103D50007047D2B201E000F8012B491EFBD2704738
:103D60000022F6E710B513460A4604461946FFF747
:103D7000F0FF204610BD10B5044604E00B7800F8B3
:103D8000013B03B1491C521EF8D2204610BD202A27
:103D900004DB203A00FA02F1002070479140C2F1A2
:103DA000200320FA03F3194390407047202A04DBD4
:103DB000203A21FA02F00021704721FA02F3D040A4
:103DC000C2F120029140084319467047064C074D46
:103DD00006E0E06840F0010394E8070098471034DB
:103DE000AC42F6D3FCF7A8F9F840000818410008E7
:103DF0000FB4054B10B503A9044A029800F018F857
:103E000010BC5DF814FB0000830700087000002060
:103E100002E008C8121F08C1002AFAD17047704793
:103E2000002001E001C1121F002AFBD170470000F1
:103E30002DE9FF4F8DB09B460F460446002606E055
:103E400025280BD05A460F999047641C761C207881
:103E50000028F5D111B03046BDE8F08F0025A84606
:103E60000122984900E0054314F8013F203B02FA83
:103E700003F00842F7D120782E2817D114F8010F4B
:103E800045F004052A280ED06FF02F022078A0F10B
:103E9000300109290AD808EB880102EB410100EB47
:103EA0000108641CF2E757F8048B641C20786C2826
:103EB0000DD004DC4C2812D06A2811D104E07428FB
:103EC0000DD07A280CD10AE045F4001507E061789E
:103ED00045F48015814202D1641C05F58015641CEF
:103EE0002078692844D008DC0028B3D0582867D04F
:103EF00063280FD0642808D13AE0702865D0732871
:103F000012D075285AD078285AD05A460F9990471F
:103F1000761CD5E017F8040B8DF8000000208DF812
:103F20000100E946012003E057F8049B4FF0FF3001
:103F300069074FF0000501D40AE06D1C45450DDA14
:103F40008542FADB19F805100029F6D106E06D1C50
:103F50008542FCDB19F805100029F8D12E4404E055
:103F600019F8010B5A460F9990476D1EF8D2A7E039
:103F70000A200021CDE90801C5F3025002280CD027
:103F800001CFC117021E71F100020CDA0023D0EB41
:103F9000030063EB01012D2208E0FF1D27F0070756
:103FA000F7E80201EEE72A0504D52B228DF8282038
:103FB00001223CE0EA073AD02022F7E70A2000E09D
:103FC00010200021CDE9080107E01020002145F074
:103FD0000405CDE908014FF00808C5F30250022896
:103FE00010D001CF00214FF0000A2A0720D52278F7
:103FF000702A0DD0DDE908C38CF0100C5CEA030CCC
:104000000CD015E0FF1D27F00707F7E80201EAE7EB
:1040100040228DF828204FF0010A0CE050EA0103FD
:1040200006D030238DF828308DF8292002229246C0
:104030002278582A04D024A20DF120090B9209E01D
:1040400026A2F9E7DDE90823FFF740FE0B9B9B5C06
:1040500009F8013D50EA0102F4D1ADEB090020302E
:104060000890680701D44FF001080899884503DDDE
:104070000898A8EB000000E000208046002506E03C
:104080000AA85A46405D0F9990476D1C761C55450D
:10409000F6DB04E030205A460F999047761CB8F1C1
:1040A0000001A8F10108F5DC05E019F8010B5A46FA
:1040B0000F999047761C0899481E08900029F4DC57
:1040C000641CC4E6092801003031323334353637F8
:1040D0003839616263646566000000003031323354
:1040E00034353637383941424344454600000000F4
:1040F000380A00205000000018410008000000208D
:1041000074000000103E00088C410008740000207C
:104110009C7A0000203E000800A24A040000000033
:104120000000000001020304060708090000000067
:104130000102030401020304060708090204060839
:10414000000000000000000000000000000000006F
:104150000000000000000000E80300000000000074
:10416000000000004C0000204C0000205400002003
:104170005400002064000000FFFFFFFFFFFFFFFF6F
:0C41800068000020680000200000000023
:0400000508000131BD
:00000001FF
