:020000040800F2
:1000000068C002201D030008F7720008276A000874
:100010008170000837450008A78400080000000030
:100020000000000000000000000000002D7C00081F
:10003000A946000800000000E70300082F7C000824
:1000400037030008370300083703000837030008A8
:100050003703000837030008370300083703000898
:100060003703000837030008370300083703000888
:100070003703000837030008370300083703000878
:100080003703000837030008370300083703000868
:100090003703000837030008370300083703000858
:1000A0003703000837030008370300083703000848
:1000B0003703000837030008370300083703000838
:1000C000370300083703000837030008757A000873
:1000D0003703000837030008370300083703000818
:1000E0003703000837030008370300083703000808
:1000F00037030008370300083703000837030008F8
:1001000037030008370300083703000837030008E7
:1001100037030008370300083703000837030008D7
:1001200037030008370300083703000837030008C7
:1001300037030008370300083703000837030008B7
:1001400037030008370300083703000837030008A7
:100150006946000837030008416D000837030008AE
:100160003703000837030008370300083703000887
:1001700037030008370300083703000800000000B9
:100180003703000837030008370300083703000867
:10019000370300084146000837030008370300080A
:1001A00037030008370300083703000800F002F89F
:1001B00000F0A4F80AA090E8000C82448344AAF15D
:1001C0000107DA4501D100F099F8AFF2090EBAE85B
:1001D0000F0013F0010F18BFFB1A43F0010318477B
:1001E000E877070008780700103A24BF78C878C17C
:1001F000FAD8520724BF30C830C144BF04680C602D
:10020000704700000023002400250026103A28BF74
:1002100078C1FBD8520728BF30C148BF0B60704778
:100220006E2902F0A781702900F06383662925F00A
:10023000E284652925F0DF84672925F0DC846129C3
:1002400025F0DB8403681B0A28BF41F0800169297F
:1002500000F0D482642900F0D182752900F0CE82AA
:100260006F2902F06B82782900F02F83E92902F0D0
:100270000582E42902F00282F52902F0FF81EF29CC
:1002800002F06882F82900F02E830368DB0928BF9A
:1002900041F08001632901F02C81732901F0318143
:1002A000E32903F0AE84F32903F0B3840020704700
:1002B0001FB525F0F8FB9DE8030000F065FE01F096
:1002C0001BFA04000020002124F010FD401C606097
:1002D0000020002124F0F4FCE0600020002124F044
:1002E0001BFD206101F0C6FC00F020FE1FBD10B513
:1002F000002001F08BFE01F026FD10BD02F0A1F8F8
:100300001146FFF7D5FF22F02FFB03F084FA03B468
:10031000FFF7EDFF03BC1EF0ACFB0000094880476F
:1003200009480047FEE7FEE7FEE7FEE7FEE7FEE7D7
:10033000FEE7FEE7FEE7FEE704480549054A064BEF
:1003400070470000E97C0008AD01000868BA02208F
:1003500068C0022068BC022068BC022072B67047E8
:1003600062B67047EFF3108072B6704780F3108862
:100370007047B0FA80F0704772B64EF62250CEF257
:10038000000040F2FF01C0F200010170294800683E
:10039000006880F3088847F6D000C2F2020048F6F1
:1003A000E801C2F202010A680260106880F309885D
:1003B000EFF3148040F0020080F31488BFF36F8FD6
:1003C000BDE8F00F01BC0FBCBDE8005006BC62B632
:1003D000084719484FF080510160704716484FF0A8
:1003E00080510160704772B6EFF309801EF0100F64
:1003F00008BF20ED108A40F804ED20E9F00F47F621
:10040000D005C2F202052E68306048F6E801C2F25B
:1004100002010A682A601068B0E8F00F50F804EB97
:100420001EF0100F08BF00F009B880F3098862B60B
:100430007047000008ED00E004ED00E0B0EC088A31
:10044000B0EC08CAFFF7F1BF704770B5064600F080
:100450007FFD056806F10B0020F00704B4429CBF45
:10046000002070BD2B466A68BAB11068A04210D354
:1004700004F1080188423CBF5068586007D35168B6
:10048000101941601168091B016058601460101D4B
:1004900070BD13465268002AE7D12146284600F075
:1004A0005FFD0028DED170BD70B50446051F00F069
:1004B0004FFD0068002C14BF446870BD002C18BFAD
:1004C000AC423CBF20466468F8D301680A18AA42CF
:1004D00018BF456003D12A680546114401602868A9
:1004E0004119A1421CBF6C6070BD616869602168E0
:1004F0000844286070BD70B50D460646041F00F024
:1005000027FD0268BDB1DEB105F10B0020F0070147
:10051000A9423CBF002070BD23688B4238BF5068A1
:1005200013D35A1A082A36D3601840F8042B2160D6
:10053000FFF7BAFF2FE03046FFF7B6FF002070BD8F
:100540002846BDE87040FFF780BF002818BFA042D2
:100550003CBF02464068F8D303EB040C84451CD131
:10056000D0F800C06344994217D8A3EB010CBCF14A
:10057000080F0DD3D0F804C06318C3F804C0D4F832
:1005800000C000686044401A18602160536002E0B7
:10059000236040685060201D70BD2846FFF755FF5E
:1005A000050008D031462068021F284600F0CBFB2A
:1005B000201DFFF779FF284670BD53EA020C00F0BA
:1005C00069802DE9F04B4FF00006002B1FBFB3FAF6
:1005D00083F503FA05F424FA05F65E4012BF1643CC
:1005E000B2FA82F502FA05F4C5F120051EBF22FA1F
:1005F00005FC44EA0C04203556EA044C4FEA144446
:1006000018BF641C4FF000084FF00009904271EBD6
:10061000030C39D3002919BFB1FA81F701FA07F6A3
:10062000B0FA80F700FA07F6C7F120071EBF20FADC
:1006300007FC46EA0C062037B6FBF4FCA7EB0507DF
:10064000103F07F01F0BCBF120062CFA06F60CFA30
:100650000BFB44BFB3460026202FA4BF5E464FF0DD
:10066000000B5BEA060C08BF4FF0010B19EB0B09FE
:1006700048EB0608ABFB027C06FB02CC0BFB03CC71
:10068000C01B71EB0C01C1E70B46024641464846D0
:10069000BDE8F08B13B5084318BF4FF0FF3001469B
:1006A000AFF30080BDE81C407047B2F120030AD5CB
:1006B000C2F1200301FA02F120FA03F341EA030137
:1006C00000FA02F0704700FA03F14FF000007047A3
:1006D00053EA020C23D010B54C1084EA530404D51D
:1006E0004042C1F1000138BF491E1B4204D55242AD
:1006F000C3F1000338BF5B1EFFF75FFF14F0804FAC
:1007000004D04042C1F1000138BF491E14F0004F2F
:1007100004D05242C3F1000338BF5B1E10BD13B5B5
:1007200040424FF0000070EB0104B8BF012001F01F
:10073000004100281CBF6FF000414FF0FF30AFF3C5
:1007400000801CBD0FB4044910B503AA029800F044
:10075000DDFE10BC5DF814FBA400002070B504465B
:1007600085690068C10601D5302600E02026C00753
:1007700007D070BDD4E9012130469047206A401C63
:1007800020626D1EF6D570BD70B50446856900788F
:10079000C00707D170BDD4E9012120209047206A0D
:1007A000401C20626D1EF6D570BD70B50C46054626
:1007B000012A05D02878800600D5EA69002302E0E6
:1007C000012305E05B1C934202D2E05C0028F9D1D2
:1007D000A869E618C01AA861286A18442862284641
:1007E000FFF7BCFF04E0D5E9012114F8010B9047A5
:1007F000B442F8D32846FFF7C7FF70BD2DE9F0419A
:100800000646002410687529314616A510D001F05F
:100810009FFE002802DA404213A507E031688A07EC
:1008200001D512A502E0490704D511A5012401E074
:1008300001F097FE00210A2206F1240709E0B0FB2F
:10084000F2FCB0FBF2F302FB1C0030307854184687
:10085000491C0028F3D123462A463046BDE8F04122
:1008600000F0D3BB000000002D0000002B000000B2
:1008700020000000F0B40D460188090502D5214C86
:100880007C4402E01F4C7C440E34002100F124061D
:1008900008E002F00F071209E75D42EA03721B0944
:1008A0007754491C52EA0307F3D102780023120758
:1008B00004D5702D06D009B1022311342246F0BCB4
:1008C00000F0A3BB01231034F8E770B504460D46D1
:1008D0002146106801F045FE024629462046BDE843
:1008E00070400023C6E7D21D22F00703D3E900239E
:1008F000C0E70368126843F0200303600823C36164
:100900000023B7E7765402002DE9F05F89460446DC
:100910004FF0000ADFF874B1FB44C0F820A0204675
:10092000E1688847002874D0252806D0D4E9012141
:100930009047206A401C2062F1E700265F4620466F
:10094000E16888472028054607DB312D05D2781954
:1009500010F8200C08B10643F1E7B00701D526F0E6
:100960000406C4F81CA00027C4F818A02A2D09D03A
:10097000284624F014F938B304EB8708303DC8F852
:10098000185019E059F8041B204604EB87029161C6
:10099000E1688847012F054618D1E069002820DA70
:1009A00026F020061DE0D8F8180000EB800005EBCB
:1009B00040003038C8F818002046E16888470546EE
:1009C00024F0EDF80028EED1012F0AD02E2D08D109
:1009D0002046E16888477F1C0546022F46F0200626
:1009E000C4DBA069002803DA404246F00106A0619A
:1009F000F00701D026F010066C2D0BD0682D09D021
:100A00004C2D39D06A2D35D0742D35D07A2D33D078
:100A100016E038E0E1682F4620468847B842054690
:100A200009D16C2F26D04FF48060E1680643204640
:100A30008847054604E06C2F1AD04FF480700643B7
:100A40000DB3A5F14100192802D8203546F40066FF
:100A50004A462946204626604E46FFF7E1FB80B114
:100A600001280BD0F61D26F0070000F1080956E713
:100A70004020E4E78020D8E70020D6E706F104090B
:100A80004DE7284652E7206A00F002B806540200FB
:100A900030BCBDE8C09F000010B5044603E021F063
:100AA000CFFE401C09D014F8010B05490028F6D1EF
:100AB000BDE810400A2021F0C3BE4FF0FF3010BD4A
:100AC000A400002010B5002000F0BBFDFFF70FFCD4
:100AD000BDE8104001201DF0CCBF0B460146184672
:100AE00000F098BD0EB5054614460E4613A000F062
:100AF000AFFD284600F0ACFD16A000F0A9FD304681
:100B000000F0A6FD15A000F0A3FD00218DF80B104C
:100B10000A210DF10A008DF80A1008E094FBF1F2A9
:100B200001FB124294FBF1F4303200F8012D002C4D
:100B3000F4DC00F08DFDFFF7C5FF00002A2A2A2013
:100B4000617373657274696F6E206661696C656448
:100B50003A2000002C2066696C6520002C206C690E
:100B60006E65200010B5431C02E010F8011B71B146
:100B70008107FAD14FF0013202C88C1A8C4314EA73
:100B8000C211F9D0C01A0A0603D0C01E10BDC01A87
:100B900010BD0A0401D0801E10BD0902FCD0401E09
:100BA00010BD40EA010370B59B072ED14FF001360E
:100BB000042A2AD308C810C99D1B9D43121F15EA99
:100BC000C61517D0D8B2E1B2401A50EA056110D16B
:100BD00098B2A1B2401A50EA05410AD123F07F40F1
:100BE00024F07F41401A50EA052102D1180EA0EBF3
:100BF000146070BDA342DBD018BA21BA884201D973
:100C0000012070BD4FF0FF3070BD0AB9002070BDEB
:100C100010F8013B11F8014B63B1A3420AD1521EF7
:100C200008D010F8013B11F8014B1BB1A34201D1D0
:100C3000521EEDD1181B70BD032A40F2308010F017
:100C4000030C00F0158011F8013BBCF1020F624467
:100C500098BF11F801CB00F8013B38BF11F8013BF8
:100C6000A2F1040298BF00F801CB38BF00F8013BA5
:100C700011F0030300F06780083AC0F0088051F8D3
:100C8000043B083A51F804CBA0E80810F5E7121D20
:100C90005CBF51F8043B40F8043BAFF30080D2073F
:100CA00024BF11F8013B11F801CB48BF11F8012B0B
:100CB00024BF00F8013B00F801CB48BF00F8012B2E
:100CC0007047431A28BF9A427FF6B6AF10441144CA
:100CD000032A40F2268010F0030F1EBF11F8013DD9
:100CE000521E00F8013D10F0030F7FF4F6AF11F033
:100CF000030300F0CA84083AC0F00B8051F8043DA9
:100D0000083A51F804CD40F8043D40F804CDFFF70F
:100D1000F3BF121D5CBF51F8043D40F8043DAFF332
:100D20000080D20724BF11F8013D11F801CD48BF62
:100D300011F8012C24BF00F8013D00F801CD48BF97
:100D400000F8012C704710B5203AC0F00B80B1E8D4
:100D50001850A0E81850B1E81850A0E81850203AF0
:100D6000BFF4F5AF5FEA027C24BFB1E81850A0E8F9
:100D7000185044BF18C918C0BDE810405FEA827C13
:100D800024BF51F8043B40F8043B08BF7047D2072A
:100D900028BF31F8023B48BF11F8012B28BF20F8CB
:100DA000023B48BF00F8012B704702F0FF0343EA03
:100DB000032242EA024200F002B84FF00002042986
:100DC000C0F0128010F0030C00F01B80CCF1040C7A
:100DD000BCF1020F18BF00F8012BA8BF20F8022BAE
:100DE000A1EB0C0100F00DB85FEAC17C24BF00F854
:100DF000012B00F8012B48BF00F8012B70474FF082
:100E0000000200B5134694469646203922BFA0E85A
:100E10000C50A0E80C50B1F12001BFF4F7AF090766
:100E200028BFA0E80C5048BF0CC05DF804EB890057
:100E300028BF40F8042B08BF704748BF20F8022B9A
:100E400011F0804F18BF00F8012B704710B5044611
:100E500010F0030F08BF11F0030F40F015804FF0A2
:100E6000013E121FC0F20E8051F8043BA3EB0E0CA2
:100E70002CEA030C1CEACE1C08BF40F8043BF0D05F
:100E8000A1F1040102F10402521E08DB11F8013B3A
:100E900000F8013B002BF7D11146FFF78EFF2046EB
:100EA00010BD00000000000030B44FF0013C50F8CD
:100EB000042B51F8043BCCFA52F4D51A20D1FCB9DA
:100EC00050F8042B51F8043BCCFA52F4D51A17D140
:100ED000B4B950F8042B51F8043BCCFA52F4D51AAB
:100EE0000ED16CB950F8042B51F8043BCCFA52F4F3
:100EF000D51A05D1002CDAD030BC4FF00000704775
:100F000029BAB1FA81F111F01801D1F12000844021
:100F1000F2D1CA40CB4012F0FF0213F0FF0330BC05
:100F2000D01A7047704770477047000070B5064C84
:100F30007C44064D7D4404E0204601680844804717
:100F4000241DAC42F8D170BD706D0700946D070090
:100F50000048704754010020704770477047704741
:100F600038B504460A4600206946AFF300800028E1
:100F700008BF38BD02460099204600F0C9FB012099
:100F800038BD012001F080B8F8B5AFF30080054608
:100F900000200C46102000BF0646A819A0420DD91B
:100FA000324669460020AFF30080070008BF01F019
:100FB0006BF80098A04218BF0546C419FFF7C8FF98
:100FC00005600746F01D20F007004619284600F08E
:100FD0000AF8B44208BFF8BDA21B31463868BDE824
:100FE000F84000F095BB00210160C0E90110704796
:100FF0001020704710B500F087FB006810BD10B5D9
:10100000044600F081FB046010BD2DE9F0470D4659
:1010100099469246044600F124080168880604D5E2
:10102000E06921F01001216000E00120A84201DD0B
:10103000471B00E00027A1697A1902EB0900081A92
:10104000A0612078C00602D42046FFF787FB002667
:1010500008E0D4E901211AF806009047206A401CF4
:10106000761C20624E45F4DB2078C0060AD5204667
:10107000FFF774FB06E0D4E9012130209047206A95
:10108000401C2062381EA7F10107F4DC07E0D4E918
:10109000012118F805009047206A401C2062281E94
:1010A000A5F10105F3DC2046FFF76EFB2078000672
:1010B00002D50220BDE8F0870120FBE72DE9FF4FB4
:1010C0000C461E464FF0FF378BB0D2E90001DDF829
:1010D00060800A908A46C1F30A5505B93D46002151
:1010E00008464FF00000BAF1000F00F4400005DAA6
:1010F00000EB80004FF4400101EA50004FEA9059A4
:10110000B9F1010F00DDB9460A9850EA4A000ED045
:1011100044F61050A5F2FF3545432F14B8F1000FE7
:101120001ED07542291E1EDDC9F100021CE0B8F177
:10113000010F4FF0000001D0302103E0F24305E041
:101140002154401CB042FBDB3046002200212154D8
:101150000B99C1F80880C1E900200FB000F0BCB9BC
:10116000BD1B6D1CDEE74A4600DA694206A800F0A6
:101170001BFC06AB93E8070003AB83E8070050466F
:101180000A9922F0F4FC8DE80700A0F500501F3802
:1011900000900398002D0ADD42F21F014A460844E0
:1011A000002303A90390684622F0A0FF09E0A0F500
:1011B00000504A461F38002303A90390684622F0D6
:1011C000BFFF8DE807000004000C03D04FF0FF3094
:1011D000410800E01046B8F1000F03D00022009251
:1011E00015461EE0751E05D400F0ACFA303262558B
:1011F0006D1EF9D5B3460122084302D000227F1CA0
:1012000004E02078302801D100227F1E002A0997AF
:1012100084D01DE0112D07DA00F094FA30326255C7
:101220006D1C50EA0102F5D1084302D00098C8B104
:101230000EE00021681E05E0235C625C63542254CA
:10124000401E491C8142F7DBAB46A81B401E09909B
:10125000002004F80B000B98099AC0F80880C0E938
:10126000002B7AE711264FF0000857E72DE9F04FE1
:1012700088460446D21D22F0070191B0D1E9000151
:10128000CDE90A0123F0A8F802460B98C00F01D05F
:101290002D2007E02068810701D52B2002E02021C6
:1012A00001EAC000032A099001D0072A05DB0346A2
:1012B0004146204600F0FCFA0BE12078800601D57B
:1012C000E06900E00620B8F1650F814606D0B8F16C
:1012D000660F18D0B8F1670F70D131E00020B9F176
:1012E000110F009001DB112301E009F101030AAAAB
:1012F00001A90CA8FFF7E2FEDDE90C70002609F158
:101300000105834647E001204B4600904FF000471F
:101310000AAA01A90CA8FFF7D1FEDDE90DB00C99CE
:101320005D46002610B909F101000D18B9EB050062
:1013300003D4C0F1FF3609F10105A5EB09002BE04C
:10134000B9F1010F01DA4FF001090020B9F1110FD5
:101350000090484601DD112300E003460AAA01A9D6
:101360000CA8FFF7ABFEDDE90C704D460026834666
:10137000207800070AD4AB4500DA5D4601A8012DAC
:1013800004DD411911F8011C302907D04F4502DA5C
:1013900017F1040F04DA012082460FE06D1EEEE71C
:1013A000002F02DCED1B3E4403E0781CA84200DD68
:1013B0007D1CB81B00F1010A4FF0004720780007A0
:1013C00003D4AA4501DB4FF0FF3A0021B7F1004FEB
:1013D0000DF143088DF8431024D002202B23002F59
:1013E00001DA7F422D230A21021EA0F1010000DC58
:1013F0005FB197FBF1FC97FBF1F201FB1C7C1746F8
:101400000CF1300C08F801CDEEE7A8F101000370F3
:101410002188090501D5452100E06521A0F10108D9
:1014200000F8011C09980FA9A1EB0807FF1D00B1E6
:101430000120411901EBEA70A1693844081A401EE5
:10144000A0612078C00602D42046FFF787F90998EA
:1014500028B1D4E901219047206A401C20622078FD
:10146000C00622D52046FFF779F91EE0002E04DBE6
:10147000B34502DD01A8805D00E03020D4E9012100
:101480009047206A401C2062761CAAF101005FEAA6
:10149000000A0AD100F030F9C0680168405CD4E964
:1014A00001219047206A401C2062281EA5F10105F9
:1014B000DCDC07E0D4E9012118F8010B9047206A31
:1014C000401C2062381EA7F10107F3DC2046FFF71D
:1014D0005BF9032011B041E630BCBDE8C08F10B508
:1014E000436913B1AFF3008001E0FFF75EF901201B
:1014F00010BD127800F124010A7000224A70012206
:10150000EDE711684FF0FF32E9E70000074B70B5D7
:101510000D467B4400F0B9F90446284621F07CF9D9
:1015200010B14FF0FF3070BD204670BD2B1302008C
:1015300070B50446C068810713D0800601D5A56A3E
:1015400004E0A169606808442169451A204600F05A
:101550004DFB002206462946204600F097FA304609
:1015600070BD002070BD70B510B1BDE87040DFE700
:101570000025074C6E1E07E02046FFF7D9FF00B19B
:101580003546206D20F00104002CF5D1284670BDB1
:10159000500000202DE9F04198461746044602FB12
:1015A00001F609B100250AE01046BDE8F08114F803
:1015B000010B414621F044F9401CF6D06D1CB542A8
:1015C000F5DB3846F1E721F02BB90000CA68431C6F
:1015D0000FD00D4B1A420CD1D3070AD081F8250049
:1015E0004B680B6300238B6012F0C06F0B6003D05D
:1015F00004E04FF0FF30704742F00072034B1A4096
:10160000034B1A43CA60704780200800BFFFDFFF0A
:10161000001048002DE9F041074615460E461020FF
:10162000FEF713FF04000AD06760C4E9026500F00A
:1016300067F80168216004600020BDE8F0810120A6
:10164000FBE710B500F008FDBDE8104000F0FFBC5E
:1016500010B5044602E0641C1DF018FA207800283A
:10166000F9D110BD431A28BF9A427FF66CAB1044E3
:10167000114410F0030F1EBF11F8013D521E00F877
:10168000013D10F0030F7FF4F6AF103AC0F00A806E
:1016900010B531E9185020E91850103ABFF4F9AFED
:1016A000BDE81040530724BF31E9081020E90810B5
:1016B00044BF51F8043D40F8043D12F0030F08BF49
:1016C0007047D20728BF31F8023D48BF11F8012CFE
:1016D00028BF20F8023D48BF00F8012C70470000E9
:1016E000004870474C01002010B500F005F8001DBF
:1016F00010BD00BFF9350200004870476C010020A2
:101700000048704784010020004870474C010020C9
:10171000034640688C46002818BF88423CBF0346F9
:101720004068F8D318681844884207D00CF10300C9
:1017300020F00700001D411A521A0146081D0A60D8
:10174000FEF7B2BE30B5B0F10A0271F100034FEA04
:10175000900E4EEA817EB0EB0E0061EB91014FEAF4
:10176000101E4EEA017E10EB0E0041EB11114FEA04
:10177000102E4EEA016E10EB0E0041EB11214FEAE4
:10178000104E4EEA014E10EB0E0041EB1141401895
:1017900041F100014FEAD00040EA41704FEAD10127
:1017A0004FEA810444EA907410EB800544EB010495
:1017B0006D1944EB0404521BA3414FF0000348BFD2
:1017C0000A3200D530BD401C41F1000130BD10B5DA
:1017D00000F05CFE00F0080010BD2DE9F0410F465E
:1017E000134615460A4606460021084600F096FEB6
:1017F0000446401CFEF729FE306030B1611C2B46C8
:101800003A46BDE8F04100F089BE4FF0FF30BDE838
:10181000F08100000FB47CB50C0009AA009001D043
:101820002044401E084B7B4469460190089800F014
:101830002CF805461CB10020694600F0AFFE284692
:101840007CBC5DF814FB00007D0D00007CB51D46DE
:1018500016460C00009001D02044401E074B7B44EC
:101860002A4669460190304600F00FF805461CB143
:101870000020694600F092FE28467CBD450D000020
:1018800001694A1C02610878704700B58FB0CDE944
:1018900001310021059105497944CDE90310114634
:1018A0006846FFF731F80FB000BD0000E5FFFFFF0D
:1018B0002DE9F0411F46044603260168072A01F47A
:1018C000006004DB08B116A505E016A503E008B129
:1018D00015A500E015A521F010002060A069C01E2C
:1018E000A0610FB1401EA0612046FEF737FF4FB147
:1018F000D4E9012138469047206A401C2062C01C70
:10190000206206E0206AFAE7D4E9012115F8010B0C
:101910009047761EF8D22046FEF736FFBDE8F081EC
:101920004E414E006E616E00494E4600696E660083
:1019300000B58DB0099000920B904FF0FF300A90E7
:1019400000200C90054878440690054878446A4683
:10195000079009A801F05CFB0DB000BDE716000080
:10196000FF1600000FB400B58DB010A909900091CA
:101970000B904FF0FF300A9000200C9006487844FE
:101980000690064878446A4607900F9909A801F026
:101990003FFB0DB05DF814FBAF160000C71600004A
:1019A00001F0C2BB01F008BC2DE9F04781461646A4
:1019B0008AB0354878440DC88DE80D003248784427
:1019C000801C03AC0DC884E80D0041F69B30084430
:1019D000372190FBF1F290FBF1F5A5F1800501FBB9
:1019E00012041B3C02D56442012000E00020DFF815
:1019F00098A080460027FA44AAF1BE0A0EE0E0074C
:101A00000AD03246684607EB470101230AEB810101
:101A100022F096FB8DE8070064107F1C002CEED1AD
:101A2000194F7F44AE3F19E0E80715D007EB0410CB
:101A30000DF1180A90E80E008AE80E00C068F04226
:101A400001D1981908903246012306A903A822F073
:101A500077FB03AB83E807006D10641C002DE3D116
:101A60004FF0010332466946B8F1000F03A802D0D7
:101A700022F03CFB01E022F063FBC9E90001C9F858
:101A800008200AB0BDE8F087284402002DE9F041A3
:101A9000044616460D464769007B80072ED038461F
:101AA0001CF0EBFF50BB3EB3012E02D0022E25D11D
:101AB00004E0204601F030FD05441DE038461CF0EE
:101AC000D9FFE168002841F01001E16005DA204605
:101AD00000F058F80120BDE8F081C9030BD5626819
:101AE000E16A914200D81146A26911442269891A1B
:101AF000814200DD08460544002D01DA0220EAE7B4
:101B0000E16A6068E268814206D29103E06203D52F
:101B100022F4003141F01002A6690027AE4213DC26
:101B2000E16A814201D90B4600E0034603EB060C53
:101B30002369ACEB030CAC4506DD814201D98C4630
:101B400000E084469C4505D1A760276042F0200054
:101B5000A5620DE0AD1BE669AE1B8142A66000D90F
:101B60000846C01A281A20605819606022F0200028
:101B700003490840E060002084F84870ABE70000AB
:101B8000BFCFD7FFC16821F4001141F08001C160CF
:101B900000218160016070472DE9F04781461446BD
:101BA0000E464FF0FF383248D5685769054209D0D4
:101BB0003846A1691CF065FF002811DB2C48C043A2
:101BC0000540E5602B463246494638461CF05CFF2E
:101BD000A16920F00042B21A11440028A16103D08B
:101BE0002046FFF7CFFF4046BDE8F08770B50446BA
:101BF0000569C06A6168884200D80846E16821F436
:101C00002011E160C90312D5A84208D02246411B29
:101C10002846FFF7C1FF10B14FF0FF3070BD002024
:101C2000E562C4E90150E06820F48030E060002003
:101C300070BD10B50446C06820F02000E060A16AC5
:101C4000A06988420DD02046FFF7D0FFE06820F45D
:101C5000405040F01000E060A06AA0612069E0629E
:101C6000606044F24001E0688843E06010BD00001D
:101C70001000020010B542485421FFF7C0F8414857
:101C80005421FFF7BCF840485421FFF7B8F83F490A
:101C90003B483C4A3F4B08603D490A603A4919605D
:101CA000531C0365481C1065012008653B48344AF5
:101CB00039A1784401F074FC20B9384878440A38D6
:101CC00001F0CBFD37482F4A35A1784401F068FC7C
:101CD00020B9344878440A3801F0BFFD32482A4A16
:101CE0002FA1784401F05CFC20B92F4878440A38D1
:101CF00001F0B3FD40232248DC000021224601F020
:101D00002CFC20B125487844543801F0A6FD1D482C
:101D100022464023002101F020FC20B121487844D4
:101D2000543801F09AFD184822461023002101F092
:101D300014FC002806D01C487844BDE810405638F2
:101D400001F08BBD10BD104870B5006D20F001048E
:101D50000B4801F09DFC0B4801F09AFC0A4801F089
:101D600097FC09E0206D20F00105204601F090FC71
:101D70002046FEF799FB2C46002CF3D170BD0000E5
:101D800050000020A4000020F800002000000020E7
:101D90000400002008000020720000004241020000
:101DA000770000002E4102001A4102002DE9FE4397
:101DB0000E461746804600210846AFF300800546D0
:101DC0000020009001905EB130784FF0FF3900B1F3
:101DD000AFB11DB1D5E90001CDE9000100240CE04F
:101DE000002000F020B8315D6A46641C02A801F0B2
:101DF000CEFC411C03D0012803D0BC42F3D348469B
:101E0000EFE71DB1DDE90001C5E90001B8F1000F00
:101E100003D0BDF80810A8F80010BDF8080000288D
:101E2000DFD02046DDE706BCBDE8F88370B50C4680
:101E300005460AB1104603E004210020AFF30080FC
:101E400022462946BDE870400346002000F03CB819
:101E50002DE9F84F9146884607464FF000045FEAA7
:101E6000030A0D681BD107210020AFF300808246D2
:101E700015E015F8011B5246684601F088FC06463D
:101E8000401C13D0B61C0AD01FB1BDF8000027F8C3
:101E90001400BDF80000641C70B1C8F80050002F99
:101EA000E7D04C45E5D3204600F00BB8FFF72CFCFB
:101EB000042101603046F7E70021601EC8F80010D9
:101EC000F2E718BCBDE8E08F01F008BC01F042BCAD
:101ED0002DE9F84F9B461746894680460024DDF8D9
:101EE00028A00D685FEA0A001ED10921AFF3008027
:101EF000824619E007B315F8011B524668467F1E5B
:101F000001F045FC0646401C19D0B61C0CD0B8F1B7
:101F1000000F03D0BDF8001028F81410BDF8000021
:101F2000641C90B1C9F80050B8F1000FE2D05C45D4
:101F3000E0D3204600F00EB8C9F80050F9E7FFF7EB
:101F4000E3FB042101603046F4E70021601EC9F87C
:101F50000010EFE718BCBDE8E08F2DE9FF4F914678
:101F60008846824683B00024109F0E688FBB0A21EA
:101F70000020AFF3008007462BE017B1D7E900B18E
:101F800002913A466846318801F021FC0546401C22
:101F90000BD0BAF1000F16D00698291981420CD93E
:101FA000EFB10299C7E900B119E0FFF7ADFB0421D9
:101FB0000160284607B000F019B80AEB04002A4671
:101FC0006946FEF739FE30882C4450B1B61CC8F87B
:101FD0000060D8F8000010B1B9F10109CDD2204657
:101FE000E8E70021641EC8F80010F8E730BCBDE83F
:101FF000C08F10B5FFF778FB006890F80111012938
:1020000001D0012010BDD0F80B0110BD2DE9F04129
:102010000646FFF775FB8046454613E016B1E068BB
:10202000B0420ED120682860D4E90101D8F80070D0
:1020300088472046FEF738FAD8F80000B842EBD1BE
:1020400000E025462C68002CE8D1BDE8F08100288E
:1020500001D01CF00EBD704710B5002102A001F0A8
:10206000E3FB012010BD0000534947414252543A5E
:102070002041626E6F726D616C207465726D696E65
:102080006174696F6E00000010B501F0EDFBBDE8F2
:102090001040FFF7DCBF520001F01ABC2DE9F041FF
:1020A0000F46144605468046800704D084B12F8031
:1020B000541E08F10205022C0AD3284624F001061A
:1020C00047EA07427100FEF79CFEA41B05EB46059C
:1020D00004B12F804046BDE8F081000070B5054690
:1020E00001B90721541A241DB4F5B67F09DD28680B
:1020F00000F05DF9A04204DC2868401C2860012043
:1021000070BD002C05DA2868401E286000F04FF9E9
:102110000444072094FBF0F0401C70BD2DE9F04F03
:102120001F4615468B468246002689B0FFF7E4FA23
:10213000D0F810800024BBF1000F70D015F8010B0F
:1021400010B125280DD10FE024B1641E06A850F867
:102150002450F3E7002130460AF8061009B000F0D9
:102160006DB90AF80600C7E0E94615F8010B5928D1
:1021700070D023DC49286ED014DC44286DD008DCF4
:102180002528EED041283ED0422849D043282CD1E2
:1021900056E04528E9D0462869D0472876D0482817
:1021A00023D17AE04D380C281FD2DFE800F0881EDA
:1021B000061E1E9BA0A9B3B5C1CFD6E75A38212869
:1021C00013D2DFE800F0111212121212121A26377F
:1021D000455012592612741212797E1280128912F9
:1021E00096A212B3BDCB1100A8E725200AF806007D
:1021F000761C5E4513D26D1EA0E7D8F80010BA69B0
:10220000D8F8240011E0D8F80410BA69D8F82800EA
:102210000BE0D8F808103A69D8F82C0005E0B2E0D5
:10222000D8F80C103A69D8F8300002FB001101EB25
:102230000809AAE006A840F82450D8F818108AE047
:102240007969642091FBF0F21332484668A192E06C
:10225000FA6889E08AE022E0FFE706A840F8245007
:1022600065A5641C6AE7FA6866A1484683E006A88B
:1022700040F8245064A5F4E7384600F0ADF8642136
:1022800090FBF1F201FB120258E0FFE7384600F044
:10229000A3F802465FA168466DE0BA6864E0B868DA
:1022A0000C210B3090FBF1F201FB120205E0FA6900
:1022B00059A14846521C5EE03A694DA1F9E77A6897
:1022C00052E00A2116E0B8680C2802DAD8F810109B
:1022D000ADE7D8F81410AAE706A840F82450D8F8BB
:1022E000341038E006A840F824504DA5B9E73A6804
:1022F0003AE009210AF80610761C5E45B2D342E0A6
:1023000006A840F8245048A5ABE7BA6902B90722ED
:1023100048A1AAE700210CE0786900F26C700890EF
:10232000D7E9061208A8FFF7D9FE06E0BA69EFE779
:102330000121D7E9062000F02EF802462CA1AAE7D9
:1023400006A840F82450D8F81C1004E006A840F86D
:102350002450D8F8201001EB080582E77969642041
:1023600091FBF0F200FB121221A17EE77A69484648
:1023700028A102F26C7200F0BBF806E00AF8060031
:10238000761C5E4501D30020E8E619F8010B002811
:102390003FF4DFAEF2E7511A00D5C91D401A01D54E
:1023A00000207047072190FBF1F0401C7047810727
:1023B0000CD1642190FBF1F201FB120151B94FF4F1
:1023C000C87190FBF1F201FB120018B1002000F27D
:1023D0006D1070470120FAE708B5416901F26C7190
:1023E0000091D0E906126846FFF778FE009808BD14
:1023F000252E326400000000256D2F25642F2579DD
:10240000000000002532640025592D256D2D25641E
:102410000000000025640000252E33640000000049
:1024200025483A254D00000025483A254D3A2553C8
:1024300000000000252E31640000000030BCBDE823
:10244000C08F7546FFF74CF9AE4605006946534606
:1024500020F00700854618B020B5FDF76DFFBDE8F8
:1024600020404FF000064FF000074FF000084FF0FB
:10247000000BAC46ACE8C009ACE8C009ACE8C00948
:10248000ACE8C00921F007018D46704710B504463D
:10249000FF2801D9002010BDFFF726F90068005D74
:1024A00010F0980F03D0C10701D140F4806010F400
:1024B000846F01D040F4006010F0BA0F01D040F4F6
:1024C000807010F0BE0F01D040F40070810604D57A
:1024D000010602D440F0800001E020F02000C10796
:1024E00001D0410601D5092CD5D140F4805010BD52
:1024F0000FB41CB5084B06AA7B44694600900598AA
:10250000FFF7C3F904460020694600F047F820466B
:102510001CBC5DF814FB0000A10000007CB51D464A
:1025200016460C00009001D02044401E074B7B440F
:102530002A46694601903046FFF7A7F905461CB1C7
:102540000020694600F02AF828467CBD750000008E
:1025500009684A0501D540B27047C905FCD500B2EB
:10256000704709684A0501D5C0B27047C905FCD556
:1025700080B2704711680268006A530501D508707F
:102580000AE0D30501D5088006E0130603D5C2177B
:10259000C1E9000200E00860012070470A6802F803
:1025A000010B0A607047D1E900239A4202D2531C02
:1025B0000B601070704700002DE9FF5F15468A46DA
:1025C0000446DFF8AC80F8440027D8E900103E4606
:1025D000CDE9001010E03AF816106A4602A801F0A2
:1025E000F6F8411C07D02178890603D5E26939182D
:1025F00091420DD80744761C2078800602D5E06908
:10260000B84205DDAE42E6DB3AF816000028E2D11A
:10261000A069C01BA0612046FEF7A0F8D8E9001011
:10262000CDE90010002017E03AF818106A4602A819
:1026300001F0CDF8B0F1FF3F81460BD000250DF140
:10264000080B05E0D4E901211BF8050090476D1C3B
:102650004D45F7D308F10100B0428046E4DB206A23
:10266000384420622046FEF78FF800F003B80000DF
:102670003A3802003FBCBDE8C09F00002DE9F041A0
:102680008046D21D22F007020025D2E90002F5297A
:1026900015A614D0011E72F1000106DA0023D0EB5A
:1026A000030063EB020211A608E0D8F800108B07C4
:1026B00001D50FA602E0490701D50EA60125114656
:1026C000002408F1240704E0FFF73CF830323A55C3
:1026D000641C50EA0102F7D12B463246214640469F
:1026E000BDE8F041FEF791BC000000002D000000A5
:1026F0002B0000002000000030B4002100F1240471
:1027000008E002F00705D208303542EA4372DB08E0
:102710006554491C52EA0305F3D10468002310A252
:10272000250708D504F020040C4304D0C469012314
:102730000CA2641EC46130BCFEF767BC10B5044631
:1027400021461068FFF70DFF02462046BDE8104005
:102750000023D1E7D21D22F00701D1E90023CBE706
:1027600000000000300000002DE9FF4F1C4691469C
:102770004FF0FF3581B000218A468846D4E90167D1
:10278000A16902986D1C8847216A83468847002802
:10279000F6D1BBF1FF3F0CD0002F26F4C0661ADD46
:1027A000700615D5BBF12B0F0AD0BBF12D0F0FD141
:1027B00004E04FF0FF3005B000F081B846F48066C9
:1027C000A16902986D1C88477F1E8346002F02DD99
:1027D000BBF1300F03D0B9F1000F2AD025E0A16979
:1027E0006D1C02987F1E46F400768847002F8346B2
:1027F00005DDBBF1780F06D0BBF1580F03D0B9F15E
:10280000000F10D011E0B9F1000F02D0B9F1100F94
:102810000BD1A1696D1C02987F1E26F400768847B3
:102820008346102000E0082081464FEAE9700090BE
:1028300017E00A20F8E74346AAFB0928DDF800C0A4
:102840007F1E03FB098046F4007605F101050AFBB3
:102850000C0112EB0B0A029841EBEB78A169884757
:102860008346002F06DD4946584601F0D6F95FEA57
:10287000000BE0D5E16902988847B00502D46FF0FB
:10288000010098E7F00718D1700610D55146700581
:1028900005D50023D1EB030163EB080200E04246BB
:1028A0002068031D23600068C0E9001205E020686D
:1028B000011D21600068C0E900A828467BE730BC04
:1028C000BDE8C08F2DE9FF5F1D464FF0FF3B9146ED
:1028D0004FF000085F46D5E90146A96901987F1CC1
:1028E0008847296A824688470028F6D1BAF1FF3F17
:1028F0000CD0002E24F4C06419DD600614D5BAF1A2
:102900002B0F09D0BAF12D0F0ED103E0584604B0B9
:1029100000F07EB844F48064A96901987F1C884760
:10292000761E8246002E02DDBAF1300F03D0B9F1D7
:10293000000F26D032E0A969761E01987F1C44F46E
:1029400000748847002E824605DDBAF1780F06D064
:10295000BAF1580F03D0B9F1000F10D01EE0B9F151
:10296000000F02D0B9F1100F18D1A969761E019895
:102970007F1C24F4007488478246102002E008205F
:1029800000E00A20814609E0A96908FB0908761ED3
:1029900001987F1C44F4007488478246002E05DDB0
:1029A0004946504601F039F90028EDDAE969019805
:1029B0008847A00502D46FF00100A8E7E00725D101
:1029C000600613D5600502D5C8F1000000E040465E
:1029D00029680A1D2A600968220501D5087015E0DA
:1029E000220701D5088011E008600FE02868011D6A
:1029F00029600068210502D580F8008006E02107E3
:102A000002D5A0F8008001E0C0F8008038467EE7DB
:102A100030BCBDE8C09F2DE9FF5F4FF0000899462C
:102A2000144646469169D2E901A7DDF838B001980D
:102A30008847054659EA0B0005D009E0A1690198CD
:102A4000761C88470546216A284688470028F5D124
:102A5000681C03D05FEACA7005D015E04FF0FF3064
:102A600004B000F048B82068011D2160D0F8008053
:102A70000AE05FEACA7001D108F8015BA169761C1F
:102A800001987F1E88470546002F1ADD681C18D064
:102A9000B9F1000F0DD0E81705EBD060421120F01E
:102AA0001F0059F822102A1A012090400142E0D15B
:102AB00007E0BBF1000FDCD12846216A88470028D7
:102AC000D7D0E16901988847BBF1000F07D1002EEC
:102AD00005DD5FEACA7002D1002188F80010A06805
:102AE000B84203DDBBF1000F03D017B16FF0010056
:102AF000B6E73046B4E730BCBDE8C09F2DE9FF4FD4
:102B000006468BB00878FF2806D0491C2D2805D032
:102B100000244FF0000908E000200CE00124F8E751
:102B200009EB8903491C00EB43090878FF28F7D11A
:102B300014B1C9F100008146107800252C46AA4640
:102B400029462D2801D02B2804D1521C2D2813D022
:102B5000002082468B461078FF280FD04FF0000CE3
:102B60000A21521CA5FB017804FB018105FB0C1115
:102B7000C5194BEB0104EEE70120EAE70021084606
:102B80004FF00000BAF1000F02D000EB80004008C7
:102B9000C0F38157012F01DD4FF0FF370E9955EA41
:102BA000040009EB01080BD04FF0020918F5FA7F79
:102BB00016DA4FEACA70002F706008DD012007E0C6
:102BC0004FEACA70C6E900B00FB000F013BA002097
:102BD0003060FEF799FDC0F800901821084616E015
:102BE000B8F5FA7F18DD002F02DAF748784401E0E3
:102BF000F6487844D0E90010C6E9001040EACA70EF
:102C00007060FEF781FDC0F80090142108460FB0F7
:102C100000F0F3B922F08ABF002108464FF000000F
:102C2000B8F10001099002DAC7F1000200E03A466B
:102C300001DAC8F1000106A8FEF7B6FE06AB93E87C
:102C4000070003AB83E8070044F23E005BEA04019F
:102C50000090584604D144F21E012C465D46009176
:102C6000210C0904014306D10099240444EA1544C7
:102C70002D041039009104F07F41014306D10099E1
:102C8000240244EA15642D020839009104F07041D1
:102C9000014306D10099240144EA15742D01091F4E
:102CA000009104F04041014306D10099A40044EA98
:102CB0009574AD00891E009104F00041084304D1D1
:102CC00000986D196441401E00904FF001033A4690
:102CD0006846B8F1000FCDE9014503A902DD21F0F6
:102CE00044FA01E021F017FABAF1000F04460D464C
:102CF00001D084F00044002108464FF000000999FB
:102D000040F2FF77484010F00C0F07D124F000404C
:102D1000284303D0C4F30A50B84212D1FEF7F4FCA2
:102D2000C0F80090C4F30A50B8420AD1A8487844C9
:102D3000D0E90010C6E9001004F0004108437060BB
:102D400042E7C6E900543FE72DE9FF4F1F464FF029
:102D5000000A4FF0FF38454691B0D7E90146CDF85B
:102D60003CA0FEF7C9FCC0680168405C1090B969DE
:102D700012986D1C8847396A814688470028F6D129
:102D8000B9F1FF3F0AD0002E24F4D06411DDB9F16F
:102D90002B0F08D0B9F12D0F0BD102E0404615B032
:102DA00013E744F48064B96912986D1C8847761E55
:102DB0008146600504A901D52D2000E02B20002EBE
:102DC00001F1010B0DF130088DF810003FDDB9F174
:102DD000690F08D0B9F1490F05D0B9F16E0F02D0D3
:102DE000B9F14E0F1CD13B4601A8009580E8500276
:102DF000DDE912126FF0020022F065FFC11CCED196
:102E00000EE0B96912986D1C884781461398761EAA
:102E100044F4007405600F98401C002E0F9016DDDE
:102E2000B9F1300FEDD0B9F1780F02D0B9F1580FE8
:102E30000DD10F9801280AD13B46CDE90054DDE9B8
:102E40001212001F029622F03CFFC11CA7D110995C
:102E500089453ED144F0800406E01399681CAAF12C
:102E6000010A44F400740860B9696D1C1298761E5A
:102E7000884730288146F0D02BE01099894505D14C
:102E8000200603D4761E44F0800418E0484621F062
:102E900086FE08B3761E0DF123029345A9F130009A
:102EA00044F4007406D20BF8010B200607D5AAF1F2
:102EB000010003E0200602D40AF101008246A005C9
:102EC00002D51399681C0860B96912986D1C88476F
:102ED0008146002ED1DC53E0002E51DDB9F1650FA3
:102EE00002D0B9F1450F4BD1A00549D5B9696D1C88
:102EF0001298761E24F440748847002E81460CDD1B
:102F00002B2804D0B9F12D0F07D144F48074B9698E
:102F100012986D1C8847761E8146E00501D52D214B
:102F200000E02B2108F8011BCDF8008021E0761E7F
:102F30000DF13901884544F400740CD2A9F1300038
:102F400010F0FF0088F8000002D10099884509D9E7
:102F500008F1010806E0E00501D51E4801E042F253
:102F60000F708246B96912986D1C88478146139884
:102F70000560002E04DD484621F011FE0028D6D160
:102F8000F96912988847FF2053468BF8000088F8AB
:102F9000000000200A900B9004AA0CA90AA8FFF7D1
:102FA000ADFDA00502D46FF00100F8E614F0240F87
:102FB00012D0E0071CD13868DDE90A12031D3B601E
:102FC0000068C0E9001213E0004E0700F24D070050
:102FD000B64C0700F1D8FFFF0AA9684621F0CCFDE6
:102FE000E00705D13868009A011D39600068026069
:102FF0002846D4E630BCBDE8C08F30BCBDE8C04F29
:10300000FFF708BE02681144137801601846704744
:10301000D160054979445161044979441162002124
:103020001161114600F008BEEDFFFFFFBB08000074
:10303000426842B1016811F8013B23B1521EC0E958
:103040000012184670470121C160881E704742680F
:103050005AB1C368016843B983688B4205D0491EE1
:10306000521CC0E90012002070474FF0FF3070473B
:103070000FB40B0010B54FF000048AB00FA90091F7
:103080000E99CC60234C7C44234A7A44CDE9064215
:1030900000D004236FF00042CDE901321F4A7A4488
:1030A0006B4608920246002022F009FE0AB010BCCE
:1030B0005DF814FBF0B507464FF0FF301E4615468D
:1030C0000C463B4685B06A460091CDE90101314688
:1030D0000020049004A8FFF7CBFF04990346601872
:1030E00025B109B1024600E022462A6000290ED02F
:1030F000002B02DD0099814209D03B466A463146E9
:10310000001B0094CDE9010404A8FFF7B1FF05B04E
:10311000F0BD0000A7FFFFFFC1FFFFFF3708000061
:1031200000230360FFF7C6BF2DE9F04791460E4626
:1031300080460446002514F8017B2FB1FEF7D4FA2F
:103140000068C05DC007F6D12B2F02D02D2F1ED0F6
:10315000641E4A463146204600F02BFF26B13268F5
:10316000A24201D1C6F800804FF002046A0518D5CA
:103170000023D0EB030563EB01025D1B934109DBE8
:103180000023D0EB030063EB0101BDE8F08745F4B9
:103190008065DEE7FEF7B8FA046000204FF00041DA
:1031A000F3E7021E71F10002EFDAFEF7ADFA0460F8
:1031B0004FF0FF304108E8E72DE9F05F93460F46F6
:1031C000804604460026FEF79FFAD0F8009082461B
:1031D00014F8015B2DB1FEF787FA0068405DC00767
:1031E000F6D12B2D02D02D2D1FD0641E0021CAF840
:1031F00000105A463946204600F0DBFE024627B151
:103200003868A04201D1C7F80080DAF8000002282F
:103210000ED0CAF8009070050AD500200346D2EB04
:10322000000063EB010100F005B846F48066DDE7BD
:103230001046F8E730BCBDE8C09F2DE9FF4F4FF0C6
:1032400000089A461446C146464683B0D2E901B703
:10325000CDF80080CDF804809169049888471099D2
:1032600005465AEA010005D009E0A1690498761CD8
:1032700088470546216A284688470028F5D1681CFA
:1032800003D05FEACB7005D02AE04FF0FF3007B0E3
:1032900000F05DB82068011D2160D0F800801FE0BB
:1032A00002A86A46E9B200F072FA411C07D0801CFD
:1032B00009D04FF000095FEACB7007D00AE0E1695E
:1032C000049888473EE04FF0010904E0BDF808107B
:1032D00028F8021B7F1EA1690498761C88470546C2
:1032E000002F1ADD681C18D0BAF1000F0DD0E817B6
:1032F00005EBD060421120F01F005AF822102A1A64
:10330000012090400142CBD107E010980028C7D19E
:103310002846216A88470028C2D0E1690498884776
:10332000B9F1000F0ED1109830B9002E04DD5FEA1C
:10333000CB7001D1A8F80000A068B84202DD109857
:1033400018B117B16FF00100A1E730469FE730BC1C
:10335000BDE8C08F2DE9FF4F4FF000089B46144693
:10336000454683B0D2E90196CDF80080CDF80480BF
:103370009169DDF848A00498884707465BEA0A008F
:1033800005D009E0A16904986D1C88470746216AA9
:10339000384688470028F5D1781C03D05FEAC97009
:1033A00005D01BE04FF0FF3007B000F047B82068B1
:1033B000011D2160D0F8008010E05FEAC97007D1DC
:1033C0006A464046B9B200F002FA411C31D080444E
:1033D000A1696D1C0498761E88470746002E14DDEF
:1033E000781C12D0BBF1000007D03B46DDE910127B
:1033F00000F043FE0028E0D107E0BAF1000FDCD175
:103400003846216A88470028D7D0E1690498884760
:10341000BAF1000F06D1002D04DD5FEAC97001D1B9
:1034200088F80000A068B04203DDBAF1000F03D0B5
:1034300016B16FF00100B7E72846B5E730BCBDE82C
:10344000C08F2DE9FF5F9B46144600273D469169DA
:10345000D2E90196DDF840A00198884780465BEAF2
:103460000A0005D009E0A16901986D1C88478046D3
:10347000216A404688470028F5D1B8F1FF3F03D0C4
:103480005FEAC97005D014E04FF0FF3004B000F0DF
:1034900040B82068011D216007680AE05FEAC97032
:1034A00001D127F8028BA1696D1C0198761E88470F
:1034B0008046002E15DDB8F1FF3F12D0BBF10000B1
:1034C00007D04346DDE90E1200F0D7FD0028E5D114
:1034D00007E0BAF1000FE1D14046216A8847002891
:1034E000DCD0E16901988847BAF1000F05D1002DC1
:1034F00003DD5FEAC97000D13880A068B04203DD07
:10350000BAF1000F03D016B16FF00100BEE72846F4
:10351000BCE730BCBDE8C09F10B50146C26890074B
:1035200003D0900607D5886A0AE0FEF7EDF801217E
:103530000160881E10BD8B69486818440B69C01A69
:1035400091F848301BB191F84910401A10BD110391
:10355000FCD50028FADD401E10BD70B5C468A50773
:1035600013D0650211D4B2F5807F09D0B2F5007F87
:1035700006D0B2F5806F08D1012300F1240106E0E6
:103580005D1E6FF07F46B54201D3012070BD016121
:10359000C361416024F470611143C160002070BDBB
:1035A0002DE9F0410C461646070047D0104600F0C2
:1035B0006FF82078611C61280AD0722802D0772821
:1035C0003CD102E00125002405E00225042402E0AC
:1035D000082448F2020511F8010B2B2806D06228B6
:1035E00009D011F8010C74280AD00BE045F003054E
:1035F00044F00204EFE745F0040544F00104EAE773
:1036000044F01004384621461BF039FA411C15D00D
:103610000021316171604FF40071F560F1617061FA
:10362000200704D5304602220021FEF72FFA306D24
:1036300040F0010030653046BDE8F0810020FBE736
:103640002DE9F0410D460646104C206DC10704D00F
:10365000410804D020F00104F7E722460EE0542090
:10366000FCF7F3FE07000ED0206D47F00101084380
:10367000542120653846FDF7C2FB3A4629463046BC
:10368000BDE8F0418CE70020D6E7000050000020A4
:103690002DE9F04704464FF000094FF0FF37C568A9
:1036A000D4E90486A80707D02046FEF79FFA3046E3
:1036B0001BF0DDF9002802DA3846BDE8F08728055E
:1036C00002D54046FCF7F0FE4C212046FDF797FB63
:1036D000206D20F0010020654846EEE72DE9F84313
:1036E0009946174680464FF000060C0002D18846E6
:1036F000012717A4B9F1000F25D105210020AFF350
:10370000008081461FE014F8011B4A46684600F01D
:103710003EF8761C0546401C0FD0AD1C13D0B8F106
:10372000000F03D0BDF80010A8F80010BDF800008D
:10373000002800D03046BDE8F883FDF7E5FF0421FE
:1037400001602846F7E77F1EDDD26FF00100F2E747
:10375000000000007CB50C46054622B90621002079
:10376000AFF3008002462146684600F030F8044678
:10377000401C07D025B1224669462846FDF75CFA71
:1037800020467CBDFDF7C0FF04210160F8E7F8B5D5
:1037900016460C460546FDF7A7FF036893F801019E
:1037A000012804D0185D78B101202C80F8BDD3F831
:1037B00003013246214603F20313C718684600236B
:1037C000B84700992980F8BD4FF0FF30F8BD2DE9CA
:1037D000F04116460C460546FDF786FF036893F850
:1037E0000101012807D0FF2C12D8185D80B10120FB
:1037F0002C70BDE8F081D3F807013246214603F270
:103800000713C7182846BC46BDE8F04100236047AF
:103810004FF0FF30EDE710B50446AFF300802046CF
:10382000BDE81040FCF773BD70B505460C460A2094
:1038300000E06D1C1BF02AF935B128780028F8D17A
:1038400002E0641C1BF022F914B120780028F8D1A2
:10385000BDE870400A201BF019B910B500F01CFC3F
:10386000BDE81040FEF7F3BB10B5012805D00021DC
:1038700003A0FFF7D9FF012010BD09A1F8E7000060
:1038800053494752544D454D3A204F7574206F6649
:103890002068656170206D656D6F727900000000B1
:1038A0003A2048656170206D656D6F727920636F95
:1038B0007272757074656400520000F007BC0021DC
:1038C00001E0801C491C0288002AFAD10846704792
:1038D00001B5FDF7B1F901BD10B50446FDF704FFD0
:1038E0000068005D00F0010010BD00002DE9F04F00
:1038F00004460D46D21D22F0070089B0D0E900979A
:103900004846394620F068FD0246F80F01D02D23C5
:1039100007E02068810701D52B2302E0202101EA7E
:10392000C0038DF820300BB1012000E00020032AF5
:10393000824601D0072A04DB29462046FDF7B8FF5E
:103940003FE12078800601D40D2500E0E569C7F34A
:103950000A560D2D49DA00214FEA175B08464FF051
:103960000000002F00F4400007DA00EB80004FF465
:10397000400100EBD07001EA60008115012901DDF2
:103980004FF0FF3100224FEA850CBCF1180F06D32F
:103990001346ACF118004FF08052C24003E04FF4E0
:1039A000801323FA0CF30CF10C0CBCF1200F04D3A0
:1039B000ACF1200C09FA0CF001E007FA0CF0002938
:1039C0004FF0004801DD18B90FE00ED140450CD38F
:1039D00019EB02095F4121B9404502D19F4329EA11
:1039E0000209BBEB175F00D0761C2088000502D5CA
:1039F0007B48784402E07A487844193808AA302392
:103A000002F80A30037C0AF10101002E0AF1020AD1
:103A100053546A4602DC4FF0300101E04FF03101AF
:103A20004FF001088DF8001002D0A6F2FF3603E037
:103A300059EA470100D06B4E002D02DC21780907BE
:103A400004D54FF002082E218DF80110C446002144
:103A50000BE0C7F303433F01C35C491C6D1E02F832
:103A60000830052908F1010801DA002DF1DC0021F8
:103A70000CE000EB1973491C1B786D1E082902F835
:103A800008304FEA091908F1010801DA002DF0DCCD
:103A900021688B0602D516E0A8F10108E04505DD96
:103AA00002EB080313F8013C302BF5D0B8F1000FFE
:103AB00009DD02EB080313F8013C2E2B03D10907A3
:103AC00001D4A8F10108002D05DD3E2102F80810FF
:103AD0006D1E08F10108407C002E02F8080008F174
:103AE000010804DA2D20764202F8080002E02B20BB
:103AF00002F808000A214FF47A70864208F10108A2
:103B00000BDB96FBF0F3303302F8083096FBF0F352
:103B100008F1010800FB136601E0642E0CDB642051
:103B200096FBF0F3303302F8083096FBF0F308F11F
:103B3000010800FB136601E00A2E06DB96FBF1F09C
:103B4000303002F8080008F1010896FBF1F001FBA3
:103B50001060303002F80800A16908F1010808EB94
:103B6000050202EB0A00081AA0612078C00602D400
:103B70002046FCF7F3FD216A08AE01EB0A00206243
:103B800004E0D4E9012116F8010B9047BAF1010ACB
:103B9000F7D22078C00602D52046FCF7DFFD6E463E
:103BA00009E016F8010B3E280FD0D4E90121904717
:103BB000206A401C2062B8F10108F2D22046FCF7CE
:103BC000E3FD09B0032000F00FB8206A284420620A
:103BD00003E0D4E90121302090476D1EEBD3F8E7D4
:103BE0002924020002FCFFFF30BCBDE8C08F10B5E5
:103BF000436913B1AFF3008001E0FEF7DDFC012063
:103C000010BD128800F1240182840022C2840122A6
:103C1000EDE711684FF0FF32E9E73A2800D230387B
:103C200020F02002412A01D3A2F13700884201D3BB
:103C30004FF0FF30704700002DE9F34F4FF0000ABE
:103C40000C4656468DB001200C9001F10C000B90F3
:103C500062690B9801219047051E2DD0252D2CD08F
:103C6000216A8847C0B162690B9801219047216A97
:103C700088470028F7D16269411E0B98904700E001
:103C8000761CA1690D988847216A88470028F7D1DA
:103C9000E1690D988847DBE7A1690D988847A8423C
:103CA000074601D1761CD3E7E1690D9888477F1C50
:103CB00002D1BAF1000F6FD06BE162690B98002757
:103CC0003D46394690472A2804D162690B98012164
:103CD00090470125DFF8D08262690B980121904757
:103CE000A0F130010A290AD24745E5DC07EB87013C
:103CF00000EB4107303FDFD445F01005ECE7E90663
:103D000001D46FF000476C280AD04C2814D06828E2
:103D100015D06A280DD074281CD07A281AD01DE03E
:103D200062690B98012190476C2802D045F0040588
:103D300014E045F002050DE045F020050AE0626957
:103D40000B9801219047682802D045F0080505E04E
:103D500045F4006562690B9801219047C4E9015759
:103D600065283DD019DC58287AD00CDC452837D09E
:103D700004DC252826D041289ED131E046282FD0CA
:103D8000472899D12CE05B2877D0612828D0632878
:103D90007CD0642823D15AE0F6E06F2848D008DCB4
:103DA00066281DD067281BD0692821D06E2816D11F
:103DB00027E0702845D0732868D0752847D0782828
:103DC0000DD14DE0A1690D988847252805463FF49F
:103DD00069AFE1690D9888476D1C3FF46AAFD8E080
:103DE0000D9923466A466FF0010021F068FFC5E097
:103DF00045F0400023464FF000026060A80736D42B
:103E00003EE0E8077FF447AF2068011D21600068AD
:103E1000290501D506701BE7290701D5068017E79C
:103E2000A90703D5F117C0E9006111E706600FE7A4
:103E300045F0400023464FF008026060A80716D402
:103E40001EE040F60E0125EA0100606016E045F034
:103E5000400023464FF00A026060A80707D40FE035
:103E600045F040006060A80708D5234610220D9950
:103E70006FF00100FEF778FC80E007E01022234697
:103E80000D996FF00100FEF71DFD77E04FF000097E
:103E900063284F46C8464B46CB4602D05B2806D027
:103EA00038E0E80601D40120A060012732E0626911
:103EB000D4F80CB00B98012190475E2807D14FF041
:103EC000010949466269D4F80CB00B989047216902
:103ED00039B900210A4603AB43F82120491C0829BF
:103EE000FADBD8B3216949B308F1010862690B987C
:103EF000012190475D28F4D1B9F1000F09D00020CD
:103F000003A951F82020D24341F82020401C082862
:103F1000F7DB03AB2069002820794FEA40701ED000
:103F20005B462246CDF80080CDE901970D99002827
:103F30006FF0010020DAFFF784FA1FE0C11703AA2F
:103F400000EBD1614B1121F01F0102EB8302411AFA
:103F500013680120884003431360C7E719E00D99F7
:103F6000224600286FF00100009702DAFFF765F99A
:103F700004E0FEF750FD01E0FFF7ECF900280ADA53
:103F8000401C06D10C9820B14FF0FF300FB000F06C
:103F90000DB85046FAE7E90701D10AF1010A0644D3
:103FA00000200C9054E60000CCCCCC0C30BCBDE81A
:103FB000C08F2DE9F74F4FF000091546CA46009C07
:103FC00014F8010B302801D0ADB115E014F8010B45
:103FD0004FF00109782803D0582801D04DB10BE0EB
:103FE0000DB1102D08D14FF0000914F8010B102568
:103FF00002E0082500E00A2500274FEAE57B3E465F
:10400000B84616E0A5FB07234FF0010905FB0800A1
:104010000BFB0731030C05FB0616D7181FFA80F8B7
:1040200046F10006381E76F5803000D3CA4614F8F3
:10403000010B2946FFF7F1FD0028E3DA019838B1BA
:10404000B9F1000F01D0641E00E0009C01980460EB
:10405000BAF1000F08D0FDF757FB02210160C81E1E
:10406000014603B000F006B8310441EA174148EABE
:104070000740F6E730BCBDE8C08F10B508E030F867
:10408000024B9C4204D10AB1002010BD012010BD9A
:10409000491EF4D2104610BD10B5014602A0FFF72C
:1040A000C3FB012010BD0000534947525452454400
:1040B0003A2052656469726563743A2063616E27C1
:1040C00074206F70656E3A200000000001B5FCF7A7
:1040D000F8FD01BD2DE9FF4F1F464FF03C0987B0A9
:1040E0004FF00042DDE9141001F10108DDF858A09D
:1040F00002EA40500390002005908346054604469E
:104100000490B969461E08988847AAF1010A0290EE
:10411000BAF1000F3BDD02982E2815D01021FFF7D1
:104120007CFD00282EDB4FF0010B0599014317D0D1
:10413000B9F1000F0BDB4A46C117FCF7B6FA05438D
:104140000C43A9F1040905E0012004900BE008B13B
:1041500045F0010501200590049820B9361D02E0C4
:10416000049800B1361FB969089808F1010888471A
:10417000BBF1000FAAF1010A0290C9D00999C1F858
:104180000080C5E70298702808D0502806D0F96949
:1041900008988847BBF1000F14D04FE00020029030
:1041A0000120BBF1000F049009D0B969089808F10B
:1041B00001088847AAF10109B9F1000F07DCF96984
:1041C000089888476FF001000BB000F013B92B2856
:1041D00004D02D280CD14FF0FF300490B969089815
:1041E00008F101088847A9F10109B9F1000FE6DDDE
:1041F000411CE4D00A21FFF710FD0028DFDB029903
:1042000008F1010801EB810100EB41000290B9695E
:10421000089888470A21FFF700FD099AA9F10109CA
:10422000B9F1000FC2F8008001DD0028E7DAF96972
:10423000089888470499029800FB016655EA040033
:1042400004D004F04041090002D006E0039898E051
:10425000A40044EA9574AD00B61E04F000410800C5
:1042600002D16D196441761E159810F0240F03D009
:104270004FF00B095C4803E04FF028096FF07D0018
:104280008246564507DAAAEB06018944B9F1410F87
:1042900001DD4FF0410901200021A9F10102FCF7E5
:1042A00004FA024628400B462140084301D0012170
:1042B00000E00021501E029143F1FF3128402140CF
:1042C000084301D0012000E000200299834651EA12
:1042D0000B014FD0002108464FF00000039900F475
:1042E000400039B100EB80004FF4400100EBD0708A
:1042F00001EA60008015012802DD4FF0FF3000E088
:1043000013D0401C36D0029860B3BBF1000F0CD123
:104310004A4601200021FCF7C8F928402140084303
:1043200001D0012000E00020E0B101204A46002138
:10433000FCF7BBF9034640190A4661412D1A8C412E
:1043400011D3B9F1400F09DD159810F0240F02D0F8
:10435000AAF1340603E0AAF1170600E0761C002556
:104360004FF0004406E05B1E42F1FF3220EA0305F5
:1043700021EA0204CAF10100B04206DA1B4903989F
:1043800008430190002000900EE0039AC4F3D3216B
:10439000E80A0A43164940EA44500A433146CDE947
:1043A0000002684620F0F1FB159810F0240F0BD0A6
:1043B0001598C00715D13868DDE90012031D3B6070
:1043C0000068C0E900120CE002A8694620F0D4FBA6
:1043D0001598C00705D13868029A011D3960006838
:1043E00002604046F0E6000002FCFFFF0000F07FA4
:1043F0000000F03F30BCBDE8C08F00002DE9FF4F4A
:1044000092461D4685B04FF00041DDE9124BDDE9D3
:1044100014727F1E01EA4B50414940F0FF4940EAC7
:104420000108002122F020004928049102D04E28E2
:1044300028D04CE03BA0012607C88DE80700A969F9
:104440000698641C88477F1E014606D41DF80600A6
:1044500018B121F0200181420BD0E9690698884704
:10446000032E34D0082E32D06FF0010009B000F0D6
:104470005FB8761C032E01D0082EE0D1601CCAF86C
:104480000000DCE7A9690698641C88477F1E2AD4CF
:1044900020F02000412826D1A9690698641C88478D
:1044A0007F1E20D420F020004E281CD1A969069838
:1044B000641C88477F1E48F4002849F48009CAF824
:1044C000004001D4282806D0E969069888475FEAA9
:1044D000CB7012D022E0A9690698641C88477F1E21
:1044E00001D4002803DAE96906988847BCE729283F
:1044F000F1D1641CCAF80040E9E71BF0240F07D093
:1045000028680499031D2B600068C0E9001805E0C5
:104510002868021D2A600068C0F800902046A5E7C0
:104520000000F07F494E46494E49545900000000B2
:1045300030BCBDE8C08FFEE7806A816D41F040016C
:104540008165012180F8351000F0BCB8B0B5846AEF
:10455000A06B18B3A06B4BF6BE6188421ED0A56B52
:10456000226CD4E91713606D013DA56302EB83054E
:104570002564E56BED1AE56300F004FC70B1A06DF5
:1045800040F04000A065002084F83400012084F849
:1045900035002046BDE8B04000F094B8B0BD10B57D
:1045A000846AA06B58B1A06B4BF6BE61884220D1E3
:1045B00004F1440207CAA0632264E1633FE020687B
:1045C000C168C9073BD18168C90738D00121416161
:1045D0000268920708D5C26822F01E02C26000205D
:1045E00084F8340084F835102046BDE8104000F00F
:1045F0006BB8A06BD4E91713226C013801EB83016F
:10460000A063E06BC01AE06302EB83002064A06B40
:1046100010B94BF6BE60A063606D00F0B3FB70B1E3
:10462000A06D40F04000A065002084F83400012017
:1046300084F835002046BDE8104000F043B810BDB6
:10464000014800F04FB800BFA4760220E0B58DF815
:10465000070004480DF1070101224FF4FA7301F03D
:104660003BFD8CBD1C780220DA4800F0E3BA00BFA5
:10467000F0B585680468D0E91060012700F01C00DF
:10468000102D07FA00F070600846636008BF1046FE
:10469000A06008BF0A46E260F0BD0000014601A02C
:1046A000FCF750B8257300007047000001A0FCF72C
:1046B000F3B900BF48414C206572726F722121210D
:1046C0000D0000007047000005490A7890F8350099
:1046D000022803D1012A1CBF01200870704700BFC7
:1046E000A0760220B0B5044600680569690705D5C3
:1046F00004214161A16D41F00201A165A90705D521
:1047000002214161A06D40F00100A065A06D58B18B
:104710000120184984F83500206D816300F063FAA8
:1047200010B1206DFFF708FFE80605D520681021BD
:104730004161204600F072F8280705D5206808215D
:104740004161204600F02CFAE80708BFB0BD2068A0
:104750000168890706D5C16821F01E01C1600121E9
:1047600084F83510012141612046BDE8B040FFF7D3
:10477000ABBF00BF39450008C8B1F8B5044690F892
:10478000350028B9002084F83400204600F048F8AD
:10479000022084F835002068A169026822F4804272
:1047A000026031B14FF0000CC4F824C003E00120D6
:1047B0007047D4F824C00368174D271D2B400360B1
:1047C000E8CF62691943102B41EA0201226A41EAEB
:1047D000060104F1280641EA070141EA050141EA20
:1047E000020164CE41EA0C0141EA0201026841EA99
:1047F000050141EA060141EA0201016004BFE169E5
:104800008161C16841F01F01C16000200121A065E4
:1048100084F83510F8BD00BF07F0E0FF70470000D6
:104820002DE9F04F87B0044602A81421FCF7E7FAFF
:1048300020686449884240F0C2800094624C634919
:1048400002AEDFF88C814FF002094FF00A0A03250F
:10485000012720688B4640F480402060206800F4E7
:10486000804001900198206840F01000206020688E
:1048700000F0100001900198206840F001002060D5
:10488000206800F0010001900198206840F00800C5
:104890002060206800F0080001900198206840F036
:1048A00004002060206800F0040001900198206856
:1048B00040F002002060206800F0020001900198A2
:1048C000CDF80C900A20069003200590012004905A
:1048D0007020029001F540603146C0471020CDE9BC
:1048E000055ACDE90397314602904FF09040C047FA
:1048F000CDE9055ACDE903974FF400705F460BF5FB
:10490000006B314602905846C0470120CDE9055A58
:1049100007F580653146CDE903904FF4E0700290D1
:104920002846C04703204FF0040A31460590012075
:10493000CDF818A0CDE903904FF4007002902846FE
:10494000C04703203146CDF818A003250127CDF834
:104950000C90059001200490082002905846C04712
:104960000A203146CDE905501848CDE90397802744
:104970000297C047174D4FF400500022A4F53E6344
:104980004FF400612862C5E90032C5E90222202007
:104990004FF400722F61C5E90521E861284600F057
:1049A00093F908B1FFF782FE009800210022A86267
:1049B0000565552000F02EFC552000F01DFC07B0C9
:1049C00000F00AB8000005504C10024000040048F6
:1049D0000D4E00080877022030BCBDE8C08F0000F3
:1049E0002DE9F04F91B0904690F834200446022013
:1049F000012A00F08E8084F835000120464A9A464C
:104A0000D4F850B084F834000020D4F80090B0EB13
:104A1000134FCBE90D20414ACBF82C20D9F80020C8
:104A200022F0020241EA020141F48041C9F800107B
:104A300006D1A06309F1280158464246534654E086
:104A4000374801AD4021CBF830002020CBF81C00C6
:104A50002846C4F83CA0C4F84080FCF7D0F931489F
:104A600001215246102912D050F821309A4206D224
:104A70000DE055F82120013245F821203246B2FBE5
:104A8000F3F606FB1327002FF3D00131EAE7029972
:104A900002234FF6FE72013902910F2181B1934238
:104AA0000ED855F821603EB150F821705F4397420F
:104AB00002D8013E3B46F6E745F821600139EDE7B3
:104AC000D3B1BAFBF3F004F1440501384100584377
:104AD000A163590808EB8002C4E91721A06BE16BC0
:104AE00085E8030109F12801584600F04BF938B177
:104AF000A06D40F04000A065012084F8350005E07D
:104B00002068016841F0010101600020002184F863
:104B1000341011B000F008B8394500089F4500086E
:104B20004D450008345E020830BCBDE8C08FB0B50A
:104B3000044690F83400022501282FD084F835501F
:104B4000012084F834002068016821F0010101602F
:104B500000F02AFA054620680068C0070BD000F074
:104B600023FA401BB0F57A7FF5D9A06D032540F0FC
:104B70002000A06500E00025206D00F012F810B1C3
:104B8000206DFFF7D9FC2068016821F480410160A5
:104B9000002084F83400012084F835002846B0BD98
:104BA000704710B590F82510022914D10168D0E99A
:104BB00010230C6824F00E040C600C6824F001042F
:104BC0000C6003F01C01012303FA01F15160002184
:104BD00080F8253002E00421C1630121002280F821
:104BE0002420084610BDB0B590F8251002291CD12C
:104BF0000168826BD0E910340D6825F00E050D6058
:104C00000D6825F001050D6004F01C014FF0010452
:104C100004FA01F159604FF0000180F8241080F887
:104C200025402AB19047002102E00421C1630121FF
:104C30000846B0BDF0B5D0E9101302680C681568DD
:104C400003F01C036E070ED504269E4016EA0407E7
:104C500009D013689B0603D4136823F00403136080
:104C60004E60016B2BE0AE0714D502269E4016EA7B
:104C700004070FD013689B0606D4136823F00A03B9
:104C80001360012280F82520002280F824204E6045
:104C9000C16A14E02D0716D508259D402C4012D07E
:104CA000146824F00E041460012202FA03F34B602E
:104CB0000021C26380F8241080F82520416B11B1D7
:104CC000BDE8F0400847F0BD002854D0F0B50221FF
:104CD00000F108072A4D142280F82510274903689F
:104CE000D0CF01F1080C8E46634538BFA1F5806135
:104CF00038BF05F580651D44B4F5804FB5FBF2F271
:104D00004FEA820547F6F072C0E91015196821EAEA
:104D10000201426941EA040141EA060141EA070150
:104D200041EA0201826941EA0201C26941EA0201E3
:104D3000026A41EA0201196013D00EF1A80163452D
:104D400005F01C034FF00F0438BFAEF556710A682A
:104D50009C40A2430A600A68446804FA03F31A43B9
:104D60000A6000210122C16380F8241080F8252008
:104D7000BDE8F04000E00121084670470004024011
:104D8000F8FBFDBFB0B5044690F8240001281DD003
:104D9000012084F8240094F82500012813D1022072
:104DA00084F825000020E0632068056825F00105EF
:104DB00005602046FFF75CFC2068226B01683AB171
:104DC00041F00E010AE0002084F824000220B0BD6A
:104DD00021F004010160016841F00A0101600168ED
:104DE00041F0010101600020B0BD0000B0B50446F3
:104DF00000F0DAF80546F348611C007818BF044457
:104E000000F0D2F8401BA042FAD3B0BD2DE9F84F14
:104E1000594A4FF008094FF0000B4FF0010A4FF0CC
:104E2000000C904200F1384208BF4FF007094FEAEA
:104E3000B223072B38BF4FEAB22900220D6835FA9A
:104E400002F408BF00F0A2B80AFA02F415EA040856
:104E500000F085804F68122F00F287800AFA07F56C
:104E600015F0061F00F081800323D0F808E0CE681B
:104E700003FA0CF52EEA050306FA0CF66FEA050EA6
:104E80005500334383603B094668934026EA040497
:104E900023434360C3688E6803EA0E03AE40334386
:104EA000C36047F01003122B11D10BF01C030F2429
:104EB00004FA03F66FF0030404EA520707443C6A5D
:104EC000B4430E6906FA03F323433B624F68036859
:104ED00007F00304AC4003EA0E0323430360FB0026
:104EE0003DD5284C254F22F0030523683D4443F06F
:104EF0000103236023680F2403F0010300930BF0E8
:104F00000C03009E9C4009FA03F31F4EB646AE59AF
:104F100026EA0404234345F80E303B684D6843EA13
:104F20000804EE0358BF23EA08043C60AE037B6824
:104F300043EA080458BF23EA08047C60EE02BB6819
:104F40000F4E43EA080458BF23EA0804BC60AD02D0
:104F5000336843EA080458BF23EA080434600BF1BD
:104F6000040B0CF1020C013268E70323654603FAD7
:104F70000CF46FEA040E8DE7001C004800040140A9
:104F80000C0401406010024008FCFFFF18BCBDE8A3
:104F9000E08F0069084018BF012070471823002ADD
:104FA00008BF2823C15070476E480068704700BF93
:104FB00090F84120202A03D190F84020012A01D105
:104FC000022118E0242280F841200268136823F0AF
:104FD00001031360136823F48053136013681943AB
:104FE0001160116841F0010111600021202280F858
:104FF000401080F841200846704790F84120202A50
:1050000003D190F84020012A01D1022117E0242287
:1050100080F841200268136823F0010313601368CD
:1050200023F4706343EA01211160116841F001012A
:1050300011600021202280F8401080F841200846AD
:105040007047000010B3B0B5044690F8410028B98D
:10505000002084F84000204600F044F8242084F822
:105060004100D4E90003D4E90212056823F070631B
:10507000012A25F0010505600361836823F40043DC
:10508000836005D141F40041816009E0012070474F
:1050900041F40441022A816004BF4FF40061416081
:1050A00041680F4A04F1100511434160C16821F4C1
:1050B0000041C1602ECD114341EA0321C160216A44
:1050C00029430160016841F00101016000202021B5
:1050D000606484F84110206384F84200B0BD00BFD2
:1050E0000080000210B586B0044601A81421FBF729
:1050F00086FE20681449884223D1144C206840F071
:1051000040002060206800F040000090009800F00F
:10511000E1F8042001A905900320049001200390E8
:10512000122002904FF4C04001900948FFF76EFE34
:10513000E06840F40010E060E06800F400100090C7
:10514000009806B010BD00BF005400404C10024053
:10515000001800481B48034900780A68104408609A
:10516000704700BF60BA022080B5032000F06EF8DF
:10517000002000F007F808B1012080BD00F024F8FD
:10518000002080BD70B50F4E04463078B0B14FF4AA
:105190007A71B1FBF0F04D490968B1FBF0F001F014
:1051A00069F801250F2C0AD848B94FF0FF30214685
:1051B0000022002500F02EF8746000E0012528464A
:1051C00070BD00BF0C00002082B00A48816841F029
:1051D00001018160816801F001010191019901687B
:1051E00041F080510160006800F08050009000980C
:1051F00002B0704758100240002808D400F01F0188
:105200000122400902FA01F1014A42F820107047D8
:1052100000E100E070B5134B4FF0FF351B68C3F39E
:105220000223DC1E83F0070338BF0024042B28BFB1
:10523000042305FA04F605FA03F3B2439943A140A7
:105240001143BDE8704019F0EFBA00BF05494FF6B1
:10525000FF030A681A4060F30A22034810430860FB
:10526000704700BF0CED00E00000FA05FA49B0F508
:10527000007F0A6802F4C0621DD1B2F5007F22D01F
:105280000868012262F34A20322208600F48006851
:1052900050430F4AB0FBF2F00130421E4B6982428C
:1052A00003D213F480601046F7D14869400544BF2B
:1052B0000320704707E0B2F5806F04D0086802222F
:1052C00062F34A2008600020704700BF14000020ED
:1052D00040420F000248016841F4007101607047CC
:1052E00004700040DC48006800F4C060704700BFF4
:1052F0002DE9FC4704464078D64F000721D5A06E23
:105300004FEAB051032908D8DFE801F0020912166C
:10531000201D002102F01EF906E0012612E004F132
:105320002000002102F0A2F9064658B9A06E03E061
:10533000396841F480313960F96F21F44001084344
:10534000F86700266078C00601D4B2462BE0E06E14
:105350004FEA3060032809D8B246DFE800F0020CBB
:105360001318201D002102F0F5F809E04FF0010AA2
:105370004FF0010818E004F12000002102F076F956
:10538000824604E03868B24640F480303860BAF1B2
:10539000000FD04608D1E06EF96F4FF0000A21F0FF
:1053A00040710843F867B046A078800701D4C24630
:1053B00055E0F86CC0000BD4F86C4FF0010940F0D8
:1053C0008050F864F86C00F080500190019801E082
:1053D0004FF00009A04D286840F480702860FFF766
:1053E000E3FD06462868C00507D4FFF7DDFD801BF6
:1053F0000228F7D94FF0030A2AE0BAF1000F27D1AB
:10540000D7F8840010F4407018D0D4F8881088427F
:1054100011D0D7F88400D7F8841041F4803120F4FB
:105420004070C7F88410D7F8841021F48031C7F891
:105430008410C7F88400C00740F0FA80D4F88800D0
:10544000D7F88410C24621F440710843C7F884009D
:10545000B9F1000F03D0F86C20F08050F864206898
:10546000C10705D0A16BFA6F22F003021143F9675F
:10547000810705D5E16BFA6F22F00C021143F96741
:10548000410705D5216CFA6F22F030021143F9670C
:10549000010705D5616CFA6F22F0C0021143F9676C
:1054A000C10605D5A16CFA6F22F440721143F96769
:1054B000810605D5E16CFA6F22F440621143F96769
:1054C000810505D5216EFA6F22F440221143F96758
:1054D000410505D5616EFA6F22F440121143F96758
:1054E000410605D5216DFA6F22F440521143F96748
:1054F000010605D5616DFA6F22F440421143F96748
:10550000C10505D5A16DFA6F22F440321143F96748
:10551000C10207D5E16DD7F8902022F003021143B4
:10552000C7F89010810419D5216FFA6F22F04062FC
:10553000B1F1806F42EA0102FA6707D0B1F1006F62
:105540000CD1396841F48011396007E0201D012138
:1055500002F000F8002818BF82462068010319D520
:10556000616FFA6F22F04062B1F1806F42EA01028E
:10557000FA6707D0B1F1006F0CD1396841F480119E
:10558000396007E0201D012101F0E4FF002818BF69
:1055900082462068410319D5A16FFA6F22F040625C
:1055A000B1F1806F42EA0102FA6707D0B1F1006FF2
:1055B0000CD1396841F48011396007E0201D0121C8
:1055C00001F0C8FF002818BF82462068400419D5A2
:1055D000E06FF96F21F04051B0F1005F41EA000146
:1055E000F96707D0B0F1805F0CD1201D022101F0D6
:1055F000B1FF04E004F12000022102F037F8002896
:1056000018BF82462068010406D5D4F88010FA6FCE
:1056100022F080421143F967C00306D5D4F8840014
:10562000F96F21F000410843F867504600F016B8C2
:10563000FFF7BAFC064641F288354FF0030AD7F867
:10564000840080073FF5FAAEFFF7AEFC801BA8424E
:10565000F5D9FDE60C100240007000400CBCBDE81E
:10566000F08700002DE9F843002800F08880454BC2
:1056700004468846186800F0070088420AD2186875
:1056800020F0070040EA08001860186800F00700E2
:10569000404574D12068874EC10735D06068022824
:1056A00006D0032809D156F8081C89010DD466E0FC
:1056B00056F8081C890308D461E056F8081C10B19C
:1056C000490502D45BE0890759D5316899463546CA
:1056D00021F0030108433060FFF766FC064641F203
:1056E000883729466068296801F00C01B1EB800F0A
:1056F00007D0FFF759FC801BB842F2D90320BDE860
:10570000F88320682E464B46810705D5A16832688C
:1057100022F0F00211433160196801F007014145A0
:105720000AD9196821F0070141EA080119601968CE
:1057300001F00701414522D1410705D5E1683268F2
:1057400022F4E06211433160000706D52069316818
:1057500021F4605141EAC000306000F035F8316852
:10576000094AC1F30311515C01F01F01C8401449FB
:10577000086006480068BDE8F843FFF703BD012054
:10578000BDE8F88300200240B05E0208100000204F
:105790000B4848490B4A00680968C1F30221515C73
:1057A00001F01F01C840704705484249054A00689A
:1057B0000968C1F3C221515C01F01F01C840704764
:1057C00014000020C05E020810B523498A68C8682A
:1057D00012F00C0205D00C2A1FD100F003000128A2
:1057E0001BD108681F4B000747BF08680009D1F8A4
:1057F0009400000A002A00F00F0053F820301846E9
:1058000018BF00200C2A21D1C86800F0030002282C
:1058100009D0032808BF124B06E0042A17D0082A33
:1058200017D10F4810BD0D4BC868CA68C96802245B
:10583000C1F34161C2F30622C0F302105A430130A2
:1058400004EB4101B2FBF0F0B0FBF1F010BD0348F6
:1058500010BD00200023D5E7001002400024F40012
:10586000005A6202C85E020870B586B0114E0D463D
:1058700001A91446706C40F001007064706C00F077
:10588000010000900220049002904FF4807001907B
:1058900000200590039000984FF09040FFF7B6FA73
:1058A000316844EA050021F0FE410843306006B04B
:1058B00070BD00BF081002402DE9F843002800F039
:1058C0004682E54E0446B06800F00C08F06800F02F
:1058D00003092078C00628D42078C00776D0B8F114
:1058E000080F6CD0B8F10C0F08BFB9F1030F66D0E8
:1058F0006768B7F5803F07D03068B7F5A02F40F054
:10590000618240F480203060306840F48030306044
:10591000FFF74AFB05463068800357D4FFF744FB86
:10592000411B03206429F6D941E2B8F1000F1BD0D6
:10593000B8F10C0F08BFB9F1010F15D03068A1699B
:10594000002900F08D8140F001003060FFF72CFB52
:1059500005463068800700F19481FFF725FB411B65
:1059600003200229F5D922E23068800703D5A06917
:10597000002800F0EC81206A316809075ABFD6F888
:1059800094100909316801F0F001884240F2EC807E
:1059900001F0ECFE002840F0DA81306840F00800A9
:1059A0003060D4E90701326822F0F002114331601F
:1059B000716821F47F4141EA00207060E9E03068BD
:1059C000800303D56068002800F0C181207880073B
:1059D0002BD5B8F1040F1AD0B8F10C0F08BFB9F1EC
:1059E000020F14D03068E168002900F0B38140F460
:1059F00080703060FFF7D8FA0546306840050DD456
:105A0000FFF7D2FA411B03200229F6D9CFE1306813
:105A1000400503D5E068002800F09981206971688D
:105A200021F0FE4141EA00607060207800075CD4FC
:105A30002078400770D4207880067CD4A06A0028A3
:105A400000F00D82022840F02E81E16AF06800F03B
:105A500003028A4240F04881216B6FF00F0202EB93
:105A6000011100F070028A4240F03E81616B00F447
:105A7000FE42B2EB012F40F03781A16B00F078427B
:105A8000B2EBC16F40F03081E16B744A02EA015120
:105A900000F4C002A1F500118A4240F02581216C7A
:105AA0004FF07E4200F0C06002EA016101F17E41E8
:105AB000884240F019813068800100F1D08130685F
:105AC00040F080703060F06840F08070F060FFF768
:105AD0006BFA04463068800100F1C181FFF764FA77
