:020000040800F2
:100000006822002001070008C5040008C704000892
:10001000CB040008CF040008D3040008000000004F
:10002000000000000000000000000000D7040008ED
:10003000D904000800000000FB180008DB040008D9
:100040001B0700081B0700081B0700081B07000808
:100050001B0700081B0700081B0700081B070008F8
:100060001B0700081B0700081B0700081B070008E8
:100070001B0700081B0700081B0700081B070008D8
:100080001B0700081B0700081B0700081B070008C8
:100090001B0700081B0700081B0700081B070008B8
:1000A0001B0700081B0700081B0700081B070008A8
:1000B0001B0700081B0700081B0700081B07000898
:1000C0001B0700081B0700081B0700081B07000888
:1000D0001B070008231600081B0700081B07000861
:1000E0001B0700081B0700081B0700081B07000868
:1000F0001B0700081B0700081B0700081B07000858
:100100001B0700081B0700081B0700081B07000847
:100110001B0700081B0700081B0700081B07000837
:100120001B0700081B0700081B0700081B07000827
:100130001B0700081B0700081B0700081B07000817
:100140001B0700081B0700081B0700081B07000807
:100150001B0700081B0700081B0700081B070008F7
:100160001B0700081B0700081B0700081B070008E7
:100170001B0700081B0700081B0700081B070008D7
:100180001B0700081B07000800F002F800F047F802
:100190000AA090E8000C82448344AAF10107DA45E2
:1001A00001D100F03CF8AFF2090EBAE80F0013F0ED
:1001B000010F18BFFB1A43F001031847BC440000AD
:1001C000DC440000103A24BF78C878C1FAD852073E
:1001D00024BF30C830C144BF04680C6070470000C1
:1001E0000023002400250026103A28BF78C1FBD840
:1001F000520728BF30C148BF0B607047702904F018
:100200003380642903F0F487732904F058810020B7
:1002100070471FB504F012FA1FBD10B510BD04F0F1
:10022000DBF91146FFF7F5FF00F051F804F0F9F99A
:1002300003B4FFF7F2FF03BC01F094F906E046A017
:1002400003F06CFFC820002103F046F9F7E746A051
:1002500003F064FF4FF4FA60002103F03DF946A07B
:1002600003F05CFF484803F0A1F804461CB12146A6
:1002700046A003F053FF4FF4FA60002103F02CF97D
:100280004BA003F04BFF404803F0D7F804461CB1E5
:1002900021464BA003F042FF4FF4FA60002103F027
:1002A0001BF94FA003F03AFF374802F0D9FE04468D
:1002B0001CB121464EA003F031FF07E02AA003F055
:1002C0002DFF4FF47A70002103F006F9F6E71FB511
:1002D0004FF4E13001F053F94EA003F01FFF02F09C
:1002E000D1FC4FF4FA7002F00FFB51A003F016FF9F
:1002F00014204FF48061524A0323CDE90032CDE946
:1003000002100023AFF2CB024EA11F4802F0F6FE0E
:1003100004461CB121464DA003F000FF56A003F097
:10032000FDFE14204FF48061574A0423CDE90032CA
:10033000CDE902100023AFF2E90254A1554802F0C2
:10034000DDFE04461CB1214653A003F0E7FE02F097
:10035000B3FD002004B010BD7461736B3120727561
:100360006E6E696E670D0A007461736B3220727570
:100370006E6E696E670D0A0073757370656E64202A
:100380007461736B310D0A0078000020737573700F
:10039000656E64207461736B31206661696C212025
:1003A000636F6465203A202564200D0A0000000078
:1003B000726573756D65207461736B310D0A000091
:1003C000726573756D65207461736B312066616948
:1003D0006C2120636F6465203A202564200D0A009B
:1003E00064657374726F79207461736B310D0A00E8
:1003F00064657374726F79207461736B3120666108
:10040000696C2120636F6465203A202564200D0A01
:100410000000000057656C636F6D6520746F205499
:10042000656E63656E744F532074696E790D0A00B2
:10043000637265617465207461736B310D0A00002D
:10044000680100207461736B3100000054656E63B5
:10045000656E744F532043726561746520746173D7
:100460006B31206661696C2120636F6465203A20DE
:100470002564200D0A0000006372656174652074B4
:1004800061736B320D0A0000680500207461736BA4
:1004900032000000F000002054656E63656E744FFA
:1004A0005320437265617465207461736B322066FA
:1004B00061696C2120636F6465203A202564200DFA
:1004C0000A000000704700BFFEE700BFFEE700BF64
:1004D000FEE700BFFEE77047704710B502F0EEFB85
:1004E00028B102F0F2FB03F0E6FA02F01AFC10BDAC
:1004F0000CB50020019000907648006840F48030F0
:100500007449086000BF7348006800F40030009030
:100510000198401C0190009818B90198B0F5A04FBF
:10052000F1D16C48006800F4003010B10120009057
:1005300001E0002000900098012846D16548403035
:10054000006840F0805063494031086062480068AC
:1005500040F44040604908605E48083000685D49EA
:10056000083108600846006840F40040086008460A
:10057000006840F4A05008605848091F0860081F30
:10058000006840F08070091F086000BF5148006893
:1005900000F000700028F9D040F205705049086062
:1005A0004C480830006820F003004A4908310860D0
:1005B0000846006840F00200086000BF4548083067
:1005C000006800F00C000828F8D10CBD10B54548B3
:1005D000006840F47000434908603E48006840F0FD
:1005E00001003C49086000203A4908310860394858
:1005F00000683D490840374908603C48091D0860CB
:10060000081F006820F48020091F0860002031497D
:100610000C310860FFF76CFF4FF000603149803902
:10062000086010BD70B500200022022300240221C2
:10063000284D08352D6805F00C0020B1042806D09F
:10064000082834D107E02A4D2A4E356033E02A4D80
:10065000284E35602FE01F4D2D1D2D68C5F38054A9
:100660001C4D2D1D2D6805F03F0154B1224DB5FBE9
:10067000F1F5184E361D3668C6F3881605FB06F2EE
:1006800009E01B4DB5FBF1F5124E361D3668C6F379
:10069000881605FB06F20F4D2D1D2D68C5F301458B
:1006A0006D1C6B00B2FBF3F5124E356003E0104D8C
:1006B000104E356000BF00BF064D08352D68C5F3EC
:1006C00003150E4E705D0B4D2D68C540094E35600B
:1006D00070BD000000380240007000400854400720
:1006E000003C024088ED00E0FFFFF6FE10300024E1
:1006F0000024F4000000002000127A000400002012
:100700000948804709480047FEE7FEE7FEE7FEE7A5
:10071000FEE7FEE7FEE7FEE7FEE7FEE704480549E1
:10072000054A064B70470000CD0500088901000806
:10073000681C002068220020681E0020681E00201F
:1007400032490143324A1160704770B500210023DD
:100750000F22C4781CB32E4C246804F4E064C4F562
:10076000E064C4F30721C1F10404E3B20A41447810
:100770009C40E1B28478144021430C07210E254CA3
:1007800005786155047804F01F050124AC40057814
:100790006D11AD0005F1E025C5F8004109E00478D0
:1007A00004F01F050124AC401B4D0678761145F876
:1007B000264070BD194A0A400243154B1B1F1A60A0
:1007C000704739B1124A121D12680243104B1B1DAB
:1007D0001A6006E00E4A121D126882430C4B1B1D64
:1007E0001A607047042808D14FF0E021096941F0F0
:1007F00004014FF0E022116107E04FF0E0210969A8
:1008000021F004014FF0E022116170470000FA0569
:100810000CED00E000E400E080E100E080FFFF1F5D
:1008200010B504469848844208D10121084600F0DA
:1008300086FB0021012000F082FB76E09348844291
:1008400008D10121022000F07AFB0021022000F0F3
:1008500076FB6AE08E48844208D10121042000F032
:100860006EFB0021042000F06AFB5EE089488442B0
:1008700008D10121082000F062FB0021082000F0CF
:100880005EFB52E08448844208D10121102000F030
:1008900056FB0021102000F052FB46E07F488442C6
:1008A00008D10121202000F04AFB0021202000F087
:1008B00046FB3AE07A48844208D10121402000F00A
:1008C0003EFB0021402000F03AFB2EE075488442B8
:1008D00008D10121802000F032FB0021802000F0AF
:1008E0002EFB22E07048844208D10121801500F0DF
:1008F00026FB0021A01500F022FB16E06B48844285
:1009000008D10121401500F01AFB0021601500F00C
:1009100016FB0AE06648844207D10121001500F069
:100920000EFB0021201500F00AFB10BDF0B50A46B1
:1009300000210023002400BF3DE0012505FA01F35A
:10094000156805EA03049C4234D105684F0003266C
:10095000BE40B543056015794E00B5400668354385
:1009600005601579012D02D01579022D16D1856803
:100970004F000326BE40B543856055794E00B54013
:10098000866835438560456801268E40B5434560DD
:10099000456896798E40B6B235434560C5684F00CC
:1009A0000326BE40B543C560D5794E00B540C66844
:1009B0003543C560491C1029BFD3F0BD4FF6FF7108
:1009C00001600021017141718171C171704708B5E9
:1009D0004FF480320092009A0A430092009AC2615A
:1009E000C161009AC261C2690092C269009208BDE9
:1009F0000246002013690B400BB1012000E00020EB
:100A000070470146086980B270470246002053696A
:100A10000B400BB1012000E00020704701464869FF
:100A200080B2704701837047418370470AB10183E8
:100A300000E0418370474161704742694A4042612A
:100A40007047F0B5002300244D07ED0E02FA05F3C0
:100A5000CE1000F1200555F826504E07F70E0F2650
:100A6000BE40B543CF1000F1200646F82750CE1007
:100A700000F1200555F8265045EA0304CE1000F198
:100A8000200545F82640F0BD000002400004024069
:100A900000080240000C0240001002400014024016
:100AA00000180240001C02400020024000240240C6
:100AB00000280240F948006840F00100F74908604A
:100AC0000020F64908310860F4480068F4490840FD
:100AD000F2490860F348091D0860F348EF49843182
:100AE0000860F0481038091D0860EC48006820F4E0
:100AF0008020EA4908600020E8490C310860E74995
:100B00008C31086070470021E44A921C1170114634
:100B10000870704710B501460022002300204A11DA
:100B2000012A02D1DD4C236808E0022A03D1DB4C04
:100B30007034236802E0D94C7434236801F01F023A
:100B4000012494401C400CB1012000E0002010BDA5
:100B500038B5002000900024002500BF3120FFF7A9
:100B6000D9FF05460098401C00900098B0F5A04FB2
:100B700001D0002DF2D03120FFF7CCFF08B10124C5
:100B800000E00024204638BD01460020C34A10681A
:100B900020F0F80040EAC10010607047C3490860C7
:100BA00070470021BD4A703211701170012802D0C7
:100BB00004280AD104E00121B84A7032117005E01E
:100BC0000521B64A7032117000E000BF00BF7047C7
:100BD000B7490860704770B5049C41EA8215012648
:100BE000C6EB530645EA0645054345EA0465AB4EA8
:100BF000361D356070BDAD4908667047820142EA16
:100C00000172A64B84331A607047A8498866704702
:100C100010B5830143EA016343EA02739F4C8834B1
:100C2000236010BDA14908677047A049C864704798
:100C300002460020994B0833186820F0EC6042EA25
:100C400001031843954B0833186070470246002093
:100C5000924B0833186820F0784042EA01031843A9
:100C60008E4B083318607047014600208B4A0832CB
:100C7000106820F003000843106070478748083070
:100C8000006800F00C00704701460020834A0832DB
:100C9000106820F0F0000843106070470146002003
:100CA0007E4A0832106820F4E05008431060704714
:100CB00001460020794A0832106820F4604040EA7A
:100CC000C10010607047F0B5002100220024022509
:100CD00000260223714F08373F6807F00C0121B14D
:100CE000042905D0082937D105E0724F076036E0A6
:100CF000714F076033E0694F3F1D3F68C7F380566F
:100D0000664F3F1D3F6807F03F036EB16A4FB7FB68
:100D1000F3F7DFF888C10CF1040CDCF800C0CCF369
:100D2000881C07FB0CF40CE0624FB7FBF3F7DFF80D
:100D30006CC10CF1040CDCF800C0CCF3881C07FB80
:100D40000CF4564F3F1D3F68C7F301477F1C7D00E1
:100D5000B4FBF5F7076002E0564F076000BF00BF25
:100D60004E4F08373F6807F0F0010909534F7A5C8E
:100D70000768D7404760494F08373F6807F4E0519C
:100D8000890A4E4F7A5C4768D7408760434F0837DF
:100D90003F6807F46041490B484F7A5C4768D74089
:100DA000C760F0BD002100F44072B2F5407F0AD167
:100DB0003A4A0832116821F4F811414A02401143BD
:100DC000364A08321160354A70321268C0F30B039C
:100DD0001A43324B70331A60704735494439086002
:100DE000704733494039086070473649086070479A
:100DF00001460020294A8C32106820F01F004A1E4C
:100E00001043264A8C321060704701460020234A66
:100E10008C32106820F4F8504A1E40EA02201F4A23
:100E20008C3210607047014600201C4A8C321068DA
:100E300020F4401008431060704701460020174A14
:100E40008C32106820F4400008431060704701465F
:100E50000020124A8C32106820F4403008431060A1
:100E6000704719490860704739B10C4A303212682E
:100E700002430A4B30331A6006E0084A30321268E7
:100E80008243064B30331A607047F9B1034A34325B
:100E900012680243014B34331A601CE000380240F0
:100EA000FFFFF6EA10300024003000200000474227
:100EB000800E47420024F40000127A001400002043
:100EC000FFFCFF0F5C014742E01147428F4A126866
:100ED00082438E4B1A60704739B18C4A121D1268DA
:100EE00002438A4B1B1D1A6006E0884A121D1268D5
:100EF0008243864B1B1D1A60704739B1834A0C32FE
:100F000012680243814B0C331A6006E07F4A0C32B0
:100F1000126882437D4B0C331A60704739B17B4AAB
:100F2000103212680243794B10331A6006E0774A98
:100F3000103212688243754B10331A60704739B112
:100F4000724A243A12680243704B243B1A6006E04E
:100F50006E4A243A126882436C4B243B1A607047F5
:100F600039B16A4A203A12680243684B203B1A6042
:100F700006E0664A203A12688243644B203B1A60BE
:100F8000704739B1614A1C3A126802435F4B1C3BFF
:100F90001A6006E05D4A1C3A126882435B4B1C3BB8
:100FA0001A60704739B1594A143A12680243574BD4
:100FB000143B1A6006E0554A143A12688243534BB8
:100FC000143B1A60704739B1504A103A1268024314
:100FD0004E4B103B1A6006E04C4A103A12688243AE
:100FE0004A4B103B1A60704739B1484A1C321268AC
:100FF0000243464B1C331A6006E0444A1C32126816
:101000008243424B1C331A60704739B13F4A203249
:10101000126802433D4B20331A6006E03B4A2032FF
:1010200012688243394B20331A60704739B1374A0E
:10103000243212680243354B24331A6006E0334AE7
:10104000243212688243314B24331A60704739B11D
:101050002E4A2C32126802432C4B2C331A6006E0C5
:101060002A4A2C3212688243284B2C331A6070476C
:1010700039B1264A303212680243244B30331A60A9
:1010800006E0224A303212688243204B30331A6025
:101090007047012808D11D493C31096841F0080119
:1010A0001A4A3C32116007E018493C31096821F0C6
:1010B0000801164A3C321160704739B1134A273A89
:1010C00012780243114B273B1A7006E00F4A273A69
:1010D000127882430D4B273B1A7070470B48403003
:1010E000006840F08070094940310860704701464F
:1010F0000020064A283A12680A400AB1012000E09E
:101100000020704701492639087070473438024082
:1011100010B50446FA48844208D101211020FFF797
:1011200052FF00211020FFF74EFF57E0F5488442A0
:1011300009D101214804FFF735FF00214FF40030A9
:10114000FFF730FF4AE0F048844209D101218804CA
:10115000FFF728FF00214FF48020FFF723FF3DE039
:10116000EA48844209D10121C804FFF71BFF00218E
:101170004FF40020FFF716FF30E0E548844209D124
:1011800001210805FFF70EFF00214FF48010FFF743
:1011900009FF23E0DF48844208D101212020FFF726
:1011A00012FF00212020FFF70EFF17E0DA488442EB
:1011B00009D101218807FFF7F5FE00214FF080409B
:1011C000FFF7F0FE0AE0D548844207D1012140052F
:1011D000FFF7E8FE00216005FFF7E4FE10BD2DE9F2
:1011E000FF4705460E460024A14600BFA046B08931
:1011F00000B100BF2C8A24F44054F08804432C82B0
:10120000AC8941F20C608443B0883189084371890C
:1012100008430443AC81AC8A24F44074B08904438D
:10122000AC826846FFF74FFDB548854202D0B94809
:10123000854202D1DDF80C9001E0DDF80890A88924
:1012400000F4004040B109EBC90000EB091031681F
:101250004900B0FBF1F707E009EBC90000EB09100A
:1012600031688900B0FBF1F76420B7FBF0F00401AE
:101270002009642101FB1078A88900F4004040B1E6
:10128000322000EBC800B0FBF1F000F0070004438F
:1012900008E0322000EB08106421B0FBF1F000F010
:1012A0000F0004432C81BDE8FF874FF41651016005
:1012B00000218180C18001810C2141810021818137
:1012C000704710B502460020108A20F470600B8829
:1012D0004C8823438C882343CC88234318431082B3
:1012E00010BD0021018041808180C180704721B103
:1012F000828942F40052828104E082894DF6FF73B4
:101300001A4082817047028B02F47F420283028B73
:101310000A430283704721B1828942F400428281EC
:1013200003E08289C2F30E028281704721B1828A72
:1013300042F40062828204E0828A4FF2FF731A4014
:1013400082827047C1F30802828070470146888814
:10135000C0F308007047028A4FF6F0731A40028209
:10136000028A0A430282704721B1828942F0020256
:10137000828104E082894FF6FD731A4082817047B2
:1013800082894FF2FF731A40828182890A438281E7
:101390007047028A4FF6DF731A400282028A0A43BC
:1013A0000282704721B1028A42F48042028204E044
:1013B000028A4BF6FF731A4002827047818941F01E
:1013C00001018181704721B1828A42F00802828244
:1013D00004E0828A4FF6F7731A4082827047028BCC
:1013E000D2B20283028B42EA01220283704721B10A
:1013F000828A42F02002828204E0828A4FF6DF7302
:101400001A408282704721B1828A42F010028282A1
:1014100004E0828A4FF6EF731A4082827047828A14
:101420004FF6FB731A408282828A0A438282704797
:1014300021B1828A42F00202828204E0828A4FF65F
:10144000FD731A40828270471AB1838A0B438382EC
:1014500002E0838A8B4383827047F0B50346002401
:1014600000260025002040F66A17B94200D100BFCF
:101470001846C1F3421401F01F06012707FA06F5CA
:10148000012C01D10C3004E0022C01D1103000E01D
:1014900014301AB107682F43076002E00768AF43B2
:1014A0000760F0BD02460020B1F5007F00D100BF0B
:1014B00013880B400BB1012000E00020704701F4BD
:1014C0000072B2F5007F00D100BFCA4302807047AE
:1014D00070B50246002400230025002040F66A165D
:1014E000B14200D100BFC1F3421501F01F03012634
:1014F00006FA03F3012D13D19689334017E000005B
:10150000001001400044004000480040004C0040F2
:10151000005000400014014000780040007C004072
:10152000022D02D1168A334001E0968A33400C1214
:10153000012606FA04F41688344013B10CB10120D8
:1015400000E0002070BD10B50022002340F66A14B0
:10155000A14200D100BF0A1201249440A3B2DC438F
:10156000048010BD00BF704700BF4C4A128802F0D3
:101570004002002AF9D0C2B2484B9A80704710B599
:1015800088B0044601210846FFF76EFC01211020B7
:10159000FFF7C4FC072209214148FFF752FA07224E
:1015A0000A213F48FFF74DFA4FF4C0600690022031
:1015B0008DF81C008DF81D0000208DF81E00012004
:1015C0008DF81F0006A93648FFF7B0F902940020F5
:1015D000ADF80C00ADF80E00ADF81000ADF8140039
:1015E0000C20ADF8120002A92C48FFF7F8FD0121EC
:1015F0002A48FFF77CFE012240F225512748FFF7D9
:101600002CFF25208DF8040003208DF805008DF8AF
:10161000060001208DF8070001A8FFF796F808B032
:1016200010BD10B540F225511C48FFF751FF10B313
:101630001A48FFF78BFEC4B21A48008800F4004035
:10164000C8B91848008800F4804060B10A2C03D063
:1016500000201449088020E01248008840F400402F
:101660001049088019E00D2C06D10E48008840F47E
:1016700080400C49088010E00A480088C0F30D0043
:1016800009490C5407480088401C06490880084650
:101690000088C72801DD0020088010BD001001402F
:1016A00000000240280000206809002010B5044610
:1016B000204600F0E8F810BD10B500F0D9F810BDD4
:1016C00010B500F0D7F810BD10B500F0D5F810BD7A
:1016D00010B50446204600F0D3F810BD10B50446FE
:1016E000002000F0B7F8204600F09BF810BD10B5C0
:1016F00037480CC83748002102F099FC3649086089
:1017000008460068FFF7EAFF10BD10B500F076F854
:1017100010BD00F0BBF810B500F0E5F810BD10B535
:1017200000F0E6F810BDF0B50446059D581920F00C
:1017300007004FF08077061F30463760061F30469F
:101740003460061F304632604FF01237061F3046B5
:1017500037604FF00337061F304637604FF00237CF
:10176000061F304637607F10061F30463760061F61
:10177000304631606FF00207061F304637604FF089
:101780001137061F304637604FF01037061F3046BE
:1017900037604FF00937061F304637604FF0083783
:1017A000061F304637604FF00737061F3046376058
:1017B0004FF00637061F304637604FF00537061FDB
:1017C000304637604FF00437061F30463760F0BDB3
:1017D0004800002000B4C4045000002010B50028C8
:1017E00007DA0A07140E1F4A00F00F031B1FD45418
:1017F00003E00A07130E1C4A135410BD00BFBFF3C9
:101800004F8F18480C38006800F4E060174908430F
:10181000001D14490C390860BFF34F8F00BF00BF93
:10182000FEE770B504462546681EB0F1807F00D300
:101830000FE0681E4FF0E02148610F214FF0FF30AC
:10184000FFF7CCFF00204FF0E021886107200861FE
:1018500000BF70BD10B5044621464FF0FF30FFF7C2
:10186000BDFF10BD18ED00E000E400E00000FA0547
:1018700072B6704762B67047EFF3108072B6704769
:1018800080F310887047B0FA80F0704772B64EF659
:101890002250CEF2000040F2FF01C0F200010170C0
:1018A00029480068006880F3088840F24000C2F2CE
:1018B000000040F24401C2F200010A6802601068B0
:1018C00080F30988EFF3148040F0020080F314885D
:1018D000BFF36F8FBDE8F00F01BC0FBCBDE8005037
:1018E00006BC62B6084719484FF080510160704746
:1018F00016484FF080510160704772B6EFF30980CF
:101900001EF0100F08BF20ED108A40F804ED20E90A
:10191000F00F40F24005C2F200052E68306040F240
:101920004401C2F200010A682A601068B0E8F00FB2
:1019300050F804EB1EF0100F08BFB0EC108A80F3D3
:10194000098862B67047000008ED00E004ED00E091
:1019500010B504462046FFF7A9FEC0F1200010BDD7
:1019600010B50446E143491C04EA0100FFF7F0FF0B
:10197000401E10BD10B504462046FFF7E9FF401E8B
:1019800010BD2DE9F04104460F469046802C06D24A
:1019900000252046E11704EB91718E1009E02046E6
:1019A000FFF7E8FF0546681F44FA00F080F02006C4
:1019B000AD1F3D60C8F80060BDE8F0812DE9F04141
:1019C00004460E461746802C08D32046FFF7D2FF68
:1019D000401F012101FA00F0451E2C443A463146D1
:1019E0002046FFF7CEFFBDE8F081416821F00201FB
:1019F000416070472DE9F0410446204600F032FC7A
:101A0000061F204600F048FC0746314600F048FC1F
:101A100005462846BDE8F08170B504462046FFF72C
:101A2000E9FF05462C60284670BD70B50446204687
:101A3000FFF7F2FF0546284600F029FC204600F09B
:101A40001CFC70BD70B504462046FFF7D3FF054669
:101A50002846FFF7CAFF204600F014FC70BD30B5E1
:101A6000F84C04EBC11454F822308360F54C743CFC
:101A7000C460D860743404EBC11444F82200F14C03
:101A8000843C246A01258D402C43EE4D843D2C621C
:101A900005F1240454F82150012494402C43E94DCD
:101AA000603D45F8214030BD70B5C4688368DC6096
:101AB000A360E44D05EBC11555F82250854220D1B5
:101AC000E04D05EBC11545F82230DE4D743DAB42CB
:101AD00017D1143555F821600125954026EA0505F2
:101AE000D84E603E46F82150354655F8215045B94C
:101AF000A6F124052D6A01268E40B543D14E843EC1
:101B0000356270BD7CB50446204600F0ABFB05464F
:101B10006A4601A9FFF735FF2046DDE90021FFF7FE
:101B2000C3FF7CBD7CB50446204600F09BFB054608
:101B30006A4601A9FFF725FF2046DDE90021FFF7EE
:101B40008EFF7CBD70B505460C46284600F08AFB2A
:101B500004F11001884201D3012070BD0020FCE790
:101B60002DE9F04105460C46284600F095FB8046DD
:101B7000211F00F095FB0646284600F073FB211D4F
:101B8000471A3946304600F072FB2146284600F0DD
:101B90006EFB3046FFF749FF3046BDE8F08170B577
:101BA00004460D46284600F05DFB001D61680844B0
:101BB00060602046FFF730FF204670BD70B50446D8
:101BC00000BF207900F0020050B100BF256800BFBF
:101BD0002846FFF797FF21462846FFF7E0FF044617
:101BE000204670BD70B505462846FFF703FF044642
:101BF00000BF207900F0010038B12046FFF782FFD6
:101C000021462846FFF7CBFF0546284670BD70B534
:101C100004460D4629462046FFF794FF68B1294641
:101C20002046FFF79DFF06462046FFF7F5FE3046AB
:101C300000F02DFB3046FFF775FF70BD70B5044610
:101C40000D4629462046FFF77DFF70B12946204604
:101C5000FFF786FF06463046FFF7C7FE3046FFF720
:101C6000C1FF06463046FFF75DFF70BD70B5044604
:101C70000D46264629462046FFF764FF68B1291F16
:101C80002046FFF76DFF0646304600F000FB204679
:101C9000FFF7C2FE2046FFF745FF304670BD2DE935
:101CA000F04705460E462C6837686648603850F89D
:101CB00024004FF0FF31B94000EA0109B9F1000FEB
:101CC00017D160488438006A611C4FF0FF328A40A7
:101CD00000EA0208B8F1000F02D10020BDE8F08749
:101CE0004046FFF73DFE04462C605648603850F8E9
:101CF00024904846FFF734FE07463760514800EB12
:101D0000C41050F82700E9E77CB504460020019094
:101D10000090002504B97CBD6A4601A92046FFF762
:101D20004DFE0198182804DA694601A8FFF7B7FFAD
:101D3000054625B12846DDE90021FFF7B5FE284616
:101D4000E9E710B5024600230AB9002010BD00BF24
:101D5000481E10444C1EA043034613B1B3F1804FFC
:101D600001D90020F2E70C2B01D91846EEE70C2030
:101D7000ECE770B504460D460CB9002070BD29464D
:101D80002046FFF744FF2046FFF75CFE204600F0A8
:101D900083FAF3E70246002100BF08E029488038B3
:101DA00050F82100904201D101207047491C25487C
:101DB000843800688842F1DC0020F6E70146002004
:101DC00000BF07E01F4A803A52F820208A4200D123
:101DD00005E0401C1B4A843A12688242F2DC00BFD4
:101DE000184A843A1268521E82420BD0154A843A2D
:101DF0001268521E134B803B53F82230114A803A2E
:101E000042F820300F4A843A1268521E0D4B843B30
:101E10001A60704700220B4B843B1A60002005E0DB
:101E20000023084A803A42F82030401C0328F7DBA0
:101E3000044A743AA2F110039A61DA6100221A622C
:101E4000002013E0041000200023F84A42F820305C
:101E5000002108E0F54A143A02F1740303EBC013C1
:101E600043F82120491C2029F4DB401C1828EBDB17
:101E7000704710B5FFF7CEFF002010BD2DE9F041EF
:101E800004460E4600BFE94824380068032801D103
:101E9000012000E0002018B140F22230BDE8F081BE
:101EA0002046FFF777FF10B140F22330F6E7A6F1A6
:101EB000080004214A1E0240851A00BF04F00300F6
:101EC00010B14FF44870E9E70C2D02D3B5F1804F03
:101ED00002D940F22130E1E76FF00301204600F023
:101EE000DFF907462946384600F0C1F9384600F0C8
:101EF000C4F93846FFF779FD3846FFF713FE384638
:101F0000FFF78AFD80460021404600F0B0F94046C8
:101F100000F0B8F9404600F0BAF900BFC3482438D1
:101F200001680068401CC14A243A1060101D40F846
:101F3000214000BF0020B1E770B504460D46FFF711
:101F400069FF29462046FFF799FF70BD70B5054629
:101F5000B5F1804F01D9002070BD04212846FFF75C
:101F6000F0FE06463046FFF7CFFE04460CB90020CF
:101F7000F2E731462046FFF7FCFEEDE770B5044678
:101F80000D4604FB05F0FFF7E1FF064626B104FB12
:101F900005F1304602F0D7F9304670BD2DE9F34F18
:101FA00085B00E4604210598FFF7CBFE81464FF021
:101FB000100A09EB060101EB0A003146FFF7C1FEEA
:101FC0000390B9F1000F03D0042E01D9039800E06B
:101FD000484604900498FFF797FE8046B8F1000F3A
:101FE00003D1002007B0BDE8F08F404600F054F95F
:101FF00007463146384600F056F90546EC1BA4B1B9
:10200000544512D2AAEB040002900298B04201D9C2
:10201000029800E030460190019805EB000B314634
:10202000584600F040F90546EC1B24B121464046D5
:10203000FFF71CFE804649464046FFF79AFED1E76F
:1020400070B5044604B970BD00BFA4F10800054690
:102050002846FFF7EAFC2846FFF7B0FD054628466C
:10206000FFF7C0FD05462846FFF75CFD00BFEAE725
:102070002DE9F84F04460F464FF0000A34B12FB94E
:102080002046FFF7DDFF0020BDE8F88F1CB9384679
:10209000FFF75CFFF8E700BFA4F1080800BF404667
:1020A000FFF7A8FC8146404600F0DCF806464846AB
:1020B00000F0D8F8304400F1040B04213846FFF753
:1020C00040FE0546B5421DD900BF99F8040000F056
:1020D000010008B15D4515D93846FFF737FF824644
:1020E000BAF1000F1BD0BE4201D2304600E03846A4
:1020F000009021465046009A02F0E0F82046FFF793
:102100009FFF0CE0B54205D94046FFF76BFD404606
:10211000FFF798FC29464046FFF790FDA24650463F
:10212000B2E77CB5044600200190009000BF0CB9D6
:10213000012000E0002010B140F24C407CBD00BF07
:102140002046FFF727FE10B94FF44970F6E76FF00D
:102150000301204600F0A4F80546284600F082F866
:1021600006466A4601A9FFF70CFC2846DDE9002176
:10217000FFF79AFC2046FFF721FE0020DEE72DE95D
:10218000F04106460C4600BF0EB9012000E00020D9
:1021900018B140F24C40BDE8F08100BF00BF0CB95F
:1021A000012000E0002010B140F24C40F3E700BFF6
:1021B000002020606060011F304600F071F8054685
:1021C00015E000BF287900F0010030B1284600F08A
:1021D00049F861680844606005E0284600F042F86C
:1021E0002168084420602846FFF704FC05464DB1ED
:1021F0002F46384600F036F808B9012000E00020EC
:102200000028DED00020C6E77CB5044600BF0CB92C
:10221000012000E0002010B140F24C407CBD00BF26
:10222000002020606060002515E00000A40F002061
:10223000204951F825006946FFF7A1FF06460EB177
:102240003046EBE7606801990844606020680099B7
:10225000084420606D1C1748001F0068A842E7DC96
:102260000020DBE70146486820F003007047027950
:1022700002F003020A4342607047416841F00101E5
:1022800041607047416821F0010141607047416839
:1022900041F0020141607047014601F108007047BA
:1022A0000246501870470246481E10444B1E984381
:1022B00070470000840F002070B50446256900BFF8
:1022C000D4E906104860016000BF00BF0020206113
:1022D000207395F858000A2808D095F85810284619
:1022E00000F0D8FF0A2085F858000AE095F8210090
:1022F000217D884205D0217D284600F0CBFF0A20B1
:10230000207570BD10B502460B46136193F821008D
:1023100010750120107302F1180003F150010C68D0
:10232000606004604160086000BF00BF10BD10B570
:1023300004462046FFF7C0FF0421201D00F0ABFA41
:1023400010BD10B5044600BF00F0E4FC08B1012048
:1023500000E0002010B14FF4C87010BD00BF00BFF6
:102360000CB9012000E0002010B140F24C40F4E72D
:1023700000BF201D00F010FA0020207320610A2009
:10238000207504F1180000F0A7F946F6EE3120465A
:1023900000F0ADF90020E0E770B5054600BF00F0A1
:1023A000B9FC08B1012000E0002010B14FF4C87062
:1023B00070BD00BF00BF0DB9012000E0002010B1CA
:1023C00040F24C40F4E700BF20210120FFF7D6FD8A
:1023D000044614B940F6FC00EAE7201D00F0DCF9E1
:1023E0000020207320610A20207504F1180000F0FD
:1023F00073F946F6EE31204600F079F900BF02206D
:10240000207000BF2C600020D2E770B50446002584
:1024100000BF00F07FFC08B1012000E0002010B1F7
:102420004FF4C87070BD00BF00BF0CB9012000E0C0
:10243000002010B140F24C40F4E700BF00BF46F668
:10244000EE31204600F04BF910B940F24D40E9E77B
:1024500000BF00BFFFF738F9054600BF0321201D6C
:1024600000F019FA206910B12046FFF725FF201D62
:1024700000F098F900BF2078022801D1012000E087
:10248000002038B100BF0020608000BF2046FFF769
:10249000D7FD04E000BF0020608000BF00BF00BF88
:1024A0002846FFF715F900BF00F0AAFC0020B9E7A5
:1024B0002DE9F041044615461E46002700BF00F0F6
:1024C00029FC08B1012000E0002018B14FF4C870C9
:1024D000BDE8F08100BF00BF0CB9012000E0002082
:1024E00010B140F24C40F3E700BF00BF46F6EE31BA
:1024F000204600F0F4F810B940F24D40E8E700BF84
:1025000000BFFFF7E1F8074600BF207B58B97948C4
:1025100001682046FFF7F6FE00BF3846FFF7D8F8FF
:1025200000BF0020D4E7206900F0E4FBA8B1207BC5
:10253000FF2807D100BF3846FFF7CAF800BF40F2B6
:10254000EA30C5E7207B401C207300BF3846FFF708
:10255000BFF800BF40F2E930BAE7002185EA010088
:102560007140084307D100BF3846FFF7B1F800BFFC
:102570004FF49660ACE700F0C6FB38B100BF3846B8
:10258000FFF7A6F800BF40F2B140A1E7206990F83C
:1025900021005849096891F82110884206DD554A02
:1025A000126892F82110206900F074FE2A46334622
:1025B000211D5048006800F046F900BF3846FFF77B
:1025C00087F800BF00F01CFC4A49096891F86000D8
:1025D00000F0FFF87CE710B504464FF0FF321346D9
:1025E0002046FFF765FF10BD2DE9F04704464FF088
:1025F000000900BF00F08EFB08B1012000E00020C0
:1026000018B14FF4C870BDE8F08700BF00BF0CB927
:10261000012000E0002010B140F24C40F3E700BF81
:1026200000BF46F6EE31204600F059F810B940F2EE
:102630004D40E8E700BF00BFFFF746F8814600BF06
:10264000206900F057FB38B900BF4846FFF740F853
:1026500000BF4FF47A70D6E7207B401E2073207BAA
:10266000002807DD00BF4846FFF732F800BF40F200
:10267000E930C8E72046FFF71FFE201D00F098F85C
:1026800030B100BF4846FFF723F800BF0020BAE78B
:10269000201D00F06CF80646274635462946384688
:1026A000FFF730FE381D00F051F8804695F8210004
:1026B000404503DD4146284600F0ECFD00BF012106
:1026C000201D00F0DEF800BF4846FFF701F800BF0C
:1026D00000F096FB002096E70060406070470246DD
:1026E0005088884201D1012070470020FCE74180DA
:1026F000704700004000002030B50B461968A1F17A
:10270000480409E090F8211094F82120914200DA61
:1027100006E0A16CA1F1480404F148019942F1D10D
:1027200000BF00F1480104F14802556851600A6099
:102730004D60296000BF00BFC36500BF90F8201046
:1027400041F0020180F8201000BF30BD70B5044692
:10275000204600F0D1F808B1002001E02068483898
:10276000054615B195F8210070BD0A20FCE7014629
:1027700008684838704710B5044604F1480000F076
:10278000B5F80020E06500BF94F8200020F00200BA
:1027900084F8200000BF10BD10B50446204600F0AC
:1027A000A2F810BD10B50446204600F09CF810BDFC
:1027B00010B50446204600F09FF810BD10B5044641
:1027C00004F1480000F092F82046E16DFFF794FF15
:1027D00010BD0146012901D100207047022902D114
:1027E00040F2B340F9E7032902D140F2B440F4E7E4
:1027F000042902D140F2B540EFE740F2B240ECE7E5
:1028000070B504460D4600BF94F8200000F00200A9
:1028100020B184F860502046FFF7ADFF00BF94F868
:10282000200000F0010010B1204601F0B4F800BF14
:1028300094F8200000F0040000B170BD204600F0C4
:1028400097F900BFF9E72DE9F04106460F46144617
:102850001D46304600F09EF9002086F8600039469B
:102860003046FFF749FF4FF0FF3184EA010069402D
:10287000084304D022462B46304601F07AF8BDE8E2
:10288000F08170B504460D462168A1F14800294643
:10289000FFF7B6FF70BD2DE9F04105460F462868E9
:1028A000A0F14804A06CA0F1480607E03946204694
:1028B000FFF7A6FF3446A06CA0F1480604F14800DB
:1028C000A842F3D1BDE8F08170B505460E46144626
:1028D00024B931462846FFF7D4FF03E031462846A5
:1028E000FFF7D9FF70BD006040607047D0E900126B
:1028F0004A60116000BF704701460868884201D1F4
:10290000012070470020FCE770B50446002500BF99
:10291000FEF7DAFE054600BF14B13E48046002E04F
:1029200064203C49086000BF2846FEF7D1FE00BF86
:1029300070BD70B504460D4600260CB936480468D3
:1029400000BFFEF7C1FE064600BF1DB93148006852
:10295000606600E06566D4E91901884201D9606EBD
:10296000A06600BF3046FEF7B3FE00BF70BD70B575
:102970000546002600BFFEF7A7FE064600BF284614
:1029800000F08EF804461CB1204600F0AFFA28B1E2
:1029900000BF3046FEF79CFE00BF70BD284600F029
:1029A00070F828B100BF3046FEF792FE00BFF4E792
:1029B00000F0A9F928B100BF3046FEF789FE00BF3C
:1029C000EBE7A06E10B1A06E401EA066A06E28B10D
:1029D00000BF3046FEF77CFE00BFDEE70E49096807
:1029E00091F8210000F007F9284600F059F8044654
:1029F000606E18B907480068A06601E0606EA066C6
:102A000000BF3046FEF764FE00BF00F0F9F900BFDA
:102A1000C3E7000064000020400000205060026016
:102A200041600860704770B50025894C03E005F1EE
:102A30002000C5B2241D20680028F8D02068FEF7C9
:102A400035FE2844C5B2284670BD00BF42118049FA
:102A500051F8221000F01F02C2F11F0301229A4018
:102A6000114343117A4A42F8231000BFA2F15001EA
:102A700091F85410814203DDA2F1500181F8540015
:102A8000704701467248503800EBC1021068A0F14F
:102A90004803986C904201D1012070470020FCE768
:102AA00070B504466A48503800EBC405284600F06B
:102AB000C6F808B1002070BD28684838FBE76448B4
:102AC000503890F85400624A503A02EBC00108684E
:102AD000483870470A215E4A503A82F85410002163
:102AE000084609E05A4A503A02EBC00109604960C1
:102AF00000BF411CC9B208460A28F3D3002005E0F4
:102B00000022534941F82020411CC8B20028F7D0C8
:102B100070472DE9F041054695F821604C48503842
:102B200000EBC604204600F08AF810B13046FFF7EB
:102B30008CFF05F14807214638462268FFF76EFFF3
:102B400000BFBDE8F08170B5044694F821504048BC
:102B5000503800EBC506304600F071F810B1284639
:102B6000FFF773FF314604F1480000F05FF870BDD5
:102B700010B5044694F821003649096891F82110EF
:102B8000884203D12046FFF7DEFF02E02046FFF730
:102B9000C0FF10BD70B5054695F821402C4850384F
:102BA00000EBC40600BFD5E9121000F03CF800BFEE
:102BB000304600F044F888B100BF6111244850F855
:102BC000210004F01F01C1F11F020121914088433F
:102BD00062111F4941F8220000BF00BF1C48503855
:102BE00090F85400A04205D1FFF71DFF1849503955
:102BF00081F8540070BD70B506461548503800EB9A
:102C0000C605284600F01BF860B92C6800BFD4E95F
:102C1000001000F008F800BF2946204600F006F832
:102C200000BF00BF70BD48600160704770B50546C9
:102C30000C46224628466168FFF7F0FE70BD01464B
:102C40000868884201D1012070470020FCE700009D
:102C5000800A00204000002000BF00BFFEE71FB533
:102C60000020A6490968A64A12680923CDE9003266
:102C7000CDE902100346A34AA3A1A54800F03EFAFD
:102C800004B010BD10B5FEF732FDFFF723FF4FF47F
:102C90008061A048FFF750F904460CB1204610BDF2
:102CA000FFF7DDFF04460CB12046F8E701F0ADF96F
:102CB00004460CB12046F2E70020F0E79648007881
:102CC000012800D170470020FCE700B5FFF7F6FFB0
:102CD00000B900BD91480078FA2801DB012000E02E
:102CE000002000B1F5E78D480078401C8B49087042
:102CF00000BFEEE701468A480068814201D1012009
:102D000070470020FCE78748007808B10120704731
:102D10000020FCE78148007808B1012070470020BE
:102D2000FCE710B50024FFF7C9FF00B910BD00BFD4
:102D3000FEF7CAFC044600BFFFF7ECFF28B900BF4E
:102D40002046FEF7C5FC00BFF0E774480078401E3F
:102D500072490870FFF7DEFF28B100BF2046FEF77A
:102D6000B7FC00BFE2E7FFF7CEFF28B100BF204667
:102D7000FEF7AEFC00BFD9E7FFF7A1FE6A49086085
:102D800008460068FFF7B6FF28B100BF2046FEF7EF
:102D90009FFC00BFCAE7FEF7C2FC00BF2046FEF75B
:102DA00097FC00BF00BFC1E710B5002400BFFFF7CC
:102DB000B1FF08B1012000E0002010B14FF4C8704D
:102DC00010BD00BFFFF77AFF10B94FF4FA70F7E7B4
:102DD00054480078FA2802DB4FF41670F0E700BF81
:102DE000FEF772FC044600BF4E480078401C4D4977
:102DF000087000BF2046FEF76BFC00BF0020DFE735
:102E000010B50024FFF75AFF08B9012000E00020A8
:102E100000B110BDFFF77EFF00B1FAE7FFF773FFC7
:102E200000B1F6E700BFFEF74FFC044600BFFFF716
:102E300046FE3D49086008460068FFF75BFF28B181
:102E400000BF2046FEF744FC00BFE2E7FEF763FC4C
:102E500000BF2046FEF73CFC00BF00BFD9E710B51D
:102E6000002400BFFFF756FF08B1012000E000205A
:102E700010B14FF4C87010BD00BFFFF71FFF10B9AD
:102E80004FF4FA70F7E7FFF73EFF10B940F2A56084
:102E9000F1E700BFFEF718FC044600BF21480078A8
:102EA000401E2049087000BF2046FEF711FC00BFFD
:102EB000FFF7A6FF0020DEE710B5FFF7FFFE08B121
:102EC000012000E0002010B140F2F51010BDFFF726
:102ED000F6FD1549086008460068114908600120A0
:102EE0000D490870FEF715FC0020EFE70146084881
:102EF000814201D1012070470020FCE74C460008C8
:102F000048460008592C000869646C650000000000
:102F1000880A0020800B00203200002030000020B2
:102F200040000020310000204400002070B5002443
:102F3000002500BFFEF7C8FB044600BFFFF7BEFE3A
:102F400008B1012000E0002008B1FE48056800BF7C
:102F50002046FEF7BDFB00BF284670BD10B50446F5
:102F600004F12C0000F07EFB04F1400000F07AFB3D
:102F700004F1480000F076FB04F1500000F072FB11
:102F80000A2084F85800002084F86000E06500BF43
:102F9000E08000BF10BD70B50546286DA0F1180493
:102FA000A069A0F1180606E02046FFF7C0F93446F4
:102FB000A069A0F1180604F1180005F1500188423B
:102FC000F2D170BD70B5044600252046FFF78EFF94
:102FD00010B140F26D7070BD00BFFEF775FB054685
:102FE00000BF04F1500000F040FB10B92046FFF78D
:102FF000D2FF204600F049FB10B12046FFF7CAFD82
:1030000000BF94F8200000F0010010B1204600F04D
:10301000C2FC00BF94F8200000F0020010B120466E
:10302000FFF7A9FB00BFD4E90B104860016000BFA7
:1030300000BF2046FFF792FF00BF082084F8200061
:1030400000BF00BF2846FEF743FB00BFFFF7D8FED6
:103050000020C0E710B504462046FFF7B3FF10BDBF
:1030600010B5044600BFFFF755FE08B1012000E08F
:10307000002010B14FF4C87010BD00BF0CB9012082
:1030800000E0002008B1AF48046800BF4DF6D82129
:10309000201D00F0F2FA10B940F24D40ECE700BFFD
:1030A0002046FFF727FE28B1FFF72DFE10B140F2B2
:1030B000A460E1E72046FFF7CDFFDDE710B5002073
:1030C000FFF7CEFF10BD2DE9F04105460A27286D18
:1030D000A0F1180609E0301DFFF738FB0446BC429A
:1030E00000DA2746B069A0F1180606F1180005F1CC
:1030F00050018842EFD13846BDE8F0812DE9FC5FF0
:1031000004468B4615461E460CAF97E88007002004
:10311000019000BFFFF7FEFD08B1012000E0002094
:1031200018B14FF4C870BDE8FC9F00BF00BF0CB9D8
:10313000012000E0002010B140F24C40F3E700BF56
:1031400000BF0DB9012000E0002010B140F24C405A
:10315000E9E700BF00BFB8F1000F01D1012000E096
:10316000002010B140F24C40DDE700BF00BF4DF63B
:10317000D821201D00F081FA10B140F26C70D2E726
:1031800000BFB9F1440F01D2012000E0002010B1CE
:1031900040F27470C7E7092F05D12046FFF7A6FE5D
:1031A00008B9012000E0002010B140F26F70BAE7CA
:1031B000092F01DD012000E0002010B140F26F7006
:1031C000B1E72046FFF7CAFE04F12C005E490A6809
:1031D000506002604160086000BF00BF201D4DF6D6
:1031E000D821418000BF4346584A31462846CDF891
:1031F0000090FEF798FA2060A561E66184F82170DE
:10320000C4F82480C4F828900F22594604F108001D
:1032100001F0BBF8C4F864A0BAF1000F03D14C4828
:103220000068A06601E0C4F868A000BFFEF74CFA91
:10323000019000BF00BF002084F8200000BF20469E
:10324000FFF781FC00BF0198FEF742FA00BFFFF7CD
:1032500035FD08B1FFF7D4FD002064E710B5002468
:10326000FFF758FD00B110BD00BFFEF72DFA044670
:1032700000BF34480068FFF78DFC32480068FFF754
:1032800062FC00BF2046FEF723FA00BFFFF7B8FD3F
:1032900000BFE8E72DE9F04104460D46002700BFD6
:1032A000FFF738FD08B1012000E0002018B14FF40D
:1032B000C870BDE8F08100BF00BF0CB9012000E07C
:1032C000002010B140F24C40F3E700BF00BF4DF6C4
:1032D000D821201D00F0D1F910B940F24D40E8E7A7
:1032E00000BF092D01DB012000E0002010B140F2F9
:1032F0006F70DEE700BFFEF7E7F9074600BF94F8FE
:103300002100A84208D100BF3846FEF7E1F900BF0E
:10331000FFF776FD0020CCE704F1500000F0A5F99E
:1033200040B92046FFF7CFFE0646B54202DD84F8DD
:103330005850354600BF94F8200000F0020078B1E4
:1033400008E000004000002054000020BD300008CC
:103350006400002084F821502046FFF72FFA1CE07B
:1033600000BF94F8200000F0010010B184F8215053
:1033700013E0204600F089F978B12046FFF70AFCF7
:1033800084F821502046FFF7B5FC18B12046FFF71E
:10339000C0FB02E02046FFF7D6FB00BF3846FEF731
:1033A00097F900BFFFF72CFD002082E770B50446B7
:1033B00000250CB9012000E0002008B1E8480468AD
:1033C00000BF4DF6D821201D00F057F910B940F28A
:1033D0004D4070BD00BF2046FFF788FD10B140F2A0
:1033E0007270F6E72046FFF785FC08B1012000E087
:1033F000002028B1FFF787FC10B140F2A460E8E795
:1034000000BFFEF761F9054600BF204600F03DF918
:1034100010B12046FFF7BEFB00BF94F8200040F03B
:10342000040084F8200000BF00BF2846FEF750F9D2
:1034300000BFFFF7E5FC0020CBE770B50446002590
:1034400000BF0CB9012000E0002010B140F24C4058
:1034500070BD00BF00BF4DF6D821201D00F00DF952
:1034600010B940F24D40F3E700BF2046FFF742FCA1
:1034700008B1012000E0002010B14FF4EE60E7E752
:1034800000BFFEF721F9054600BF00BF94F82000F9
:1034900000F0040040B900BF2846FEF719F900BF4C
:1034A000FFF7AEFC0020D3E700BF94F8200020F027
:1034B000040084F8200000BF204600F0E6F810B1B8
:1034C0002046FFF755FB00BF2846FEF701F900BF75
:1034D000FFF796FC0020BBE770B504460D460026BA
:1034E00000BFFFF717FC08B1012000E0002010B179
:1034F0004FF4C87070BD00BFFFF705FC10B140F27B
:10350000A460F7E7002184EA01006940084301D183
:10351000012000E0002018B1FFF7A0FE0020E9E73D
:103520004FF0FF3184EA01006940084301D10120D6
:1035300000E0002008B16520DCE700BFFEF7C4F81A
:10354000064600BF22462B468548006800F011FA67
:1035500083480068FFF71EFB00BF3046FEF7B8F84F
:1035600000BFFFF74DFC0020C4E770B504460025FE
:1035700000BFFFF7CFFB08B1012000E0002010B131
:103580004FF4C87070BD00BF00BF0CB9012000E04F
:10359000002010B140F24C40F4E700BF00BF4DF6F0
:1035A000D821201D00F069F810B940F24D40E9E73C
:1035B00000BF00BFFEF788F8054600BF2046FFF7B2
:1035C00099FB28B900BF94F8200000F0010038B939
:1035D00000BF2846FEF77CF800BF40F26E70D1E7CE
:1035E00000BF94F8200000F0040038B100BF284666
:1035F000FEF76EF800BF40F27170C3E7204600F09E
:10360000CAF92046FFF7B4FA00BF2846FEF760F873
:1036100000BFFFF7F5FB0020B4E770B505460026B4
:1036200005B970BD00BFFEF74FF8064600BF4D4814
:103630000068A0F12C0404E02046A847E06AA0F14D
:103640002C0404F12C0047498842F5D100BF3046D4
:10365000FEF73EF800BF00BFE3E710B54248FFF7B2
:10366000DCFF10BD0060406070470146086888427A
:1036700001D1012070470020FCE7024650888842B3
:1036800001D1012070470020FCE7014691F820009D
:1036900008B9012070470020FCE770B5044633A547
:1036A00000BF04F1080134A000F038FD36A000F09E
:1036B00035FDFFF73BFCA04201D134A52DE094F885
:1036C0002000072801D133A527E094F82000062820
:1036D00001D136A521E094F82000052801D137A5B5
:1036E0001BE094F82000032801D138A515E094F8D8
:1036F0002000042801D12AA50FE094F82000022818
:1037000001D135A509E094F82000012801D134A5A4
:1037100003E094F8200000B933A5294634A000F056
:10372000FDFC19A000F0FAFC35A0A16A00F0F6FC3F
:1037300015A000F0F3FC36A0616A00F0EFFC12A0C7
:1037400000F0ECFCD4E90902811835A000F0E6FC99
:103750000DA000F0E3FC0CA000F0E0FC70BD000048
:1037600040000020540000209B36000841424E4F8C
:10377000524D414C0000000074736B206E616D650A
:103780003A202573000000000A00000052554E4EFA
:10379000494E470050454E4454494D454F55545F9E
:1037A00053555350454E44454400000050454E4447
:1037B0005F53555350454E4445440000534C4545D6
:1037C000505F53555350454E4445440050454E4478
:1037D00054494D454F55540050454E44000000009B
:1037E000534C4545500000005245414459000000EB
:1037F00074736B20737461743A20257300000000A9
:1038000073746B2073697A653A20256400000000A8
:1038100073746B20626173653A2030782570000004
:1038200073746B20746F70203A203078257000001C
:103830002DE9F84F82469046994600200090834635
:1038400000210E460F4600BFFDF73EFF009000BF6F
:10385000CAE90E89A7480068A0F1400B1DE0DBE92A
:103860000E108C1940EB0705DAE90E10091BA84170
:1038700000D217E0DAE90E0160406940084306D142
:103880009AF821009BF82110884200DA0AE02646C7
:103890002F46DBF84000A0F1400B0BF140009549AA
:1038A0008842DCD100BFDAE90E10891B60EB07000B
:1038B000CAE90E100BF140008E49884208D0DBE9BE
:1038C0000E20DAE90E31D21A60EB0100CBE90E20AE
:1038D0000AF140000BF140014A6848600160426013
:1038E000106000BF00BF00BF0098FDF7F1FE00BFF1
:1038F000BDE8F88F70B50446002600BFFDF7E4FE72
:10390000064600BF04F1400000F0ECF808B10020CA
:1039100001E0206C40380546F5B17649206C8842BC
:103920001AD06FF001014810D4E90E238A1A60EB17
:103930000300D5E90E13511A984108D3D5E90E209A
:10394000D4E90E31D2184841C5E90E2004E06FF0E9
:1039500001014810C5E90E1000BFD4E910104860FD
:10396000016000BF00BF00BF3046FDF7B1FE00BFE1
:1039700070BD70B5044615461E462A46334620469D
:10398000FFF756FF00BF94F8200040F0010084F8D4
:10399000200000BF70BD10B504462046FFF7AAFF07
:1039A00000BF94F8200020F0010084F8200000BF40
:1039B00010BD2DE9F04704460D464FF0000900BF49
:1039C000FDF782FE814600BF4B48D0E9001009197F
:1039D0006841494AC2E90010464800F083F830B116
:1039E00000BF4846FDF774FE00BFBDE8F0874148C0
:1039F0000068A0F14007D7E90E01201A75EB01001D
:103A000003D30021B963F9630CE0D7E90E10091B59
:103A100060EB0500C7E90E1000BF4846FDF758FEF1
:103A200000BFE2E733480068A0F14006306CA0F127
:103A300040080FE00023D6E90E10594058400143DA
:103A400000D00CE002213046FEF7DAFE4646306C2C
:103A5000A0F1400806F1400026498842EAD100BFA3
:103A600000BF4846FDF734FE00BF00BFBDE72DE9AB
:103A7000F041002700BFFDF727FE074600BF1D48A5
:103A800000F030F808B1002002E01A480068403821
:103A9000064616B1D6E90E1002E04FF0FF31084697
:103AA0000C46054600BF3846FDF712FE00BF204613
:103AB0002946BDE8F08110B5FFF700F908B90120EB
:103AC00000E0002000B110BD01200021FFF771FFD0
:103AD00000F05BFA0949096891F82100FEF747FFF9
:103AE00000BFF0E701460868884201D10120704715
:103AF0000020FCE75C00002038000020400000208F
:103B000070B504460026002500BFFDF7DDFD064622
:103B100000BFF84AD4E9063006CA59185041C4E932
:103B20000610F5488068A0F10C050AE0D4E90630DB
:103B3000D5E90612591A904100D208E0E868A0F1D0
:103B40000C0505F10C00EC4908318842EED100BFAC
:103B500004F10C0005F10C014A6848600160426004
:103B6000106000BF00BFE448816804F10C0081428E
:103B700004D1E14AD4E90610C2E9001000BF304682
:103B8000FDF7A6FD00BF70BD2DE9F04104460027FA
:103B900000BFFDF799FD074600BFD7488068A0F138
:103BA0000C0500BFD4E903104860016000BF00BFEE
:103BB000A54219D104F10C000168814201D1012113
:103BC00000E0002109B1002001E0E0680C38064661
:103BD0002EB94FF0FF31C84A1160516004E0C64A67
:103BE000D6E90610C2E9001000BF3846FDF770FDA7
:103BF00000BFBDE8F0812DE9F05F044615461E4682
:103C00000AAF97E8800DDDF8389000BF0CB90120AD
:103C100000E0002018B140F24C40BDE8F09F00BF2A
:103C200000BFBAF1000F01D1012000E0002010B167
:103C300040F24C40F1E700BFB9F1020F09D1002179
:103C400087EA010088EA0101084302D140F6380002
:103C5000E3E7B9F1010F08D1002185EA01007140C5
:103C6000084302D140F63700D7E7B9F1010F05D07C
:103C7000B9F1020F02D040F63A00CEE74FF0FF3123
:103C800085EA01007140084302D140F63500C4E7DF
:103C90004FF0FF3187EA010088EA0101084302D1B1
:103CA00040F63600B9E7012084F83200C4E908562E
:103CB0000021A161E161C4E90A78A4F83090C4F858
:103CC00004A0C4F808B004F10C0000F0A0F94DF60F
:103CD000D920608000BF00209FE710B5044600BFD8
:103CE0000CB9012000E0002010B140F24C4010BDA2
:103CF00000BF00BF4DF6D921204600F08BF910B966
:103D000040F24D40F3E700BF94F8320010B940F69E
:103D10003400ECE794F83200022802D12046FFF785
:103D200033FF00BF002084F832000021216261626D
:103D3000A161E161A162E16220866060A06004F19E
:103D40000C0000F064F900BF0020608000BF00BFDD
:103D500000BFCCE710B5044600BF0CB9012000E05D
:103D6000002010B140F24C4010BD00BF00BF4DF626
:103D7000D921204600F04EF910B940F24D40F3E74A
:103D800000BF94F8320010B940F63400ECE794F824
:103D9000320002280BD12046FFF7F6FED4E90801D5
:103DA000C4E906012046FFF7ABFE0020DCE794F8EB
:103DB0003200012803D094F83200032817D10220E2
:103DC00084F832000023D4E90810594058400143D8
:103DD00004D1D4E90A01C4E9060103E0D4E90801E9
:103DE000C4E906012046FFF78BFE0020BCE740F641
:103DF0003900B9E710B5044600BF0CB9012000E056
:103E0000002010B140F24C4010BD00BF00BF4DF685
:103E1000D921204600F0FEF810B940F24D40F3E7FA
:103E200000BF94F8320010B940F63400ECE794F883
:103E30003200032803D094F83200012802D140F662
:103E40003B00E1E794F83200022805D1012084F814
:103E500032002046FFF798FE0020D5E72DE9F0411B
:103E6000064614461D46069F00BF0EB9012000E01D
:103E7000002018B140F24C40BDE8F08100BF00BF07
:103E80004DF6D921304600F0C5F810B940F24D404A
:103E9000F2E700BF96F8320010B940F63400EBE7C5
:103EA00096F83200022802D140F63C00E4E7308E5A
:103EB000012809D147B9002184EA0100694008437B
:103EC00002D140F63700D7E7308E02280AD1012F01
:103ED00008D1002184EA01006940084302D140F67C
:103EE0003800C9E717B9C6E9084501E0C6E90A453F
:103EF0000020C1E73800002068000020F8B5064621
:103F000014461D46002022462B4600903046FFF7FF
:103F1000A5FFF8BDF8B5064614461D460120224609
:103F20002B4600903046FFF799FFF8BD70B500268C
:103F300000BFFDF7C9FB064600BF3A48D0E90010B4
:103F40004FF0FF3251405040014302D14C1E2546F4
:103F500013E0344806C83448D0E90030591A90417B
:103F600002D30024254608E02E48D0E900202E493F
:103F7000D1E90031D41A60EB010500BF3046FDF7EE
:103F8000A7FB00BF2046294670BD70B5254806C86E
:103F90002548D0E90030591A904100D270BDFEF793
:103FA00003FF20488068A0F10C04E068A0F10C0534
:103FB00020E01D48D4E90632D0E90010C91A90412A
:103FC00000D21DE02046FFF7DFFD208E022807D13A
:103FD000D4E90A01C4E906012046FFF791FD02E099
:103FE000032084F83200D4E9011088472C46E068A9
:103FF000A0F10C0504F10C000A4908318842D8D11F
:1040000000BFFEF72CFF00BFC8E70020704700602C
:104010004060704702465088884201D101207047B5
:104020000020FCE76800002038000020704753EAB9
:10403000020C00F069802DE9F04B4FF00006002BD8
:104040001FBFB3FA83F503FA05F424FA05F65E40C0
:1040500012BF1643B2FA82F502FA05F4C5F1200543
:104060001EBF22FA05FC44EA0C04203556EA044C33
:104070004FEA144418BF641C4FF000084FF00009C9
:10408000904271EB030C39D3002919BFB1FA81F7C3
:1040900001FA07F6B0FA80F700FA07F6C7F1200731
:1040A0001EBF20FA07FC46EA0C062037B6FBF4FCDC
:1040B000A7EB0507103F07F01F0BCBF120060CFA0A
:1040C0000BFB2CFA06F644BFB3460026202FA4BFF4
:1040D0005E464FF0000B5BEA060C08BF4FF0010B89
:1040E00019EB0B09ABFB027C48EB0608C01B06FB77
:1040F00002CC0BFB03CC71EB0C01C1E70B46024673
:1041000041464846BDE8F08B13B54FF000004FF034
:104110000001AFF30080BDE81C4070470FB40449B4
:1041200010B503AA029800F0CFF910BC5DF814FB9B
:10413000240000202DE9F0410E46044600202062B4
:104140002046E168884730B3252805D0D4E901210D
:104150009047206A401CF2E7E16820460027884724
:10416000050018D0A5F14100192802D820354FF4D8
:1041700000673246294620462760FCF73FF840B1E9
:10418000012804D0F61D26F007060836D8E7361DAC
:10419000D6E72846DAE7206ABDE8F08170B50C461C
:1041A0000546012A05D02878800600D5EA69002353
:1041B00002E0012305E05B1C934202D2E05C002890
:1041C000F9D1A869E618C01AA861286A18442862BB
:1041D0002846AFF3008004E0D5E9012114F8010B73
:1041E0009047B442F8D32846AFF3008070BD00007A
:1041F0002DE9F0410646002410687529314616A5C0
:1042000010D0AFF30080002802DA404213A507E087
:1042100031688A0701D512A502E0490704D511A526
:10422000012401E0AFF3008000210A2206F12407F7
:1042300009E0B0FBF2FCB0FBF2F302FB1C003030F3
:1042400078541846491C0028F3D123462A463046A4
:10425000BDE8F04100F0C8B8000000002D000000EB
:104260002B00000020000000F0B41368026808244E
:10427000C4610C4642F020020260110502D50E4ACC
:104280007A4402E00C4A7A440E32002100F12405FF
:1042900005E003F00F061B09965D6E54491C002BC8
:1042A000F7D105782D0703D5702C01D101231032E9
:1042B000F0BC00F099B80000CC030000032A40F2E3
:1042C000308010F0030C00F0158011F8013BBCF1B8
:1042D000020F624498BF11F801CB00F8013B38BFD0
:1042E00011F8013BA2F1040298BF00F801CB38BFDE
:1042F00000F8013B11F0030300F0F880083AC0F029
:10430000088051F8043B083A51F804CBA0E80810A3
:10431000F5E7121D5CBF51F8043B40F8043BAFF3D6
:104320000080D20724BF11F8013B11F801CB48BF30
:1043300011F8012B24BF00F8013B00F801CB48BF66
:1043400000F8012B70474FF000020429C0F01280E2
:1043500010F0030C00F0FE80CCF1040CBCF1020F55
:1043600018BF00F8012BA8BF20F8022BA1EB0C010D
:1043700000F0F0B85FEAC17C24BF00F8012B00F820
:10438000012B48BF00F8012B704710B5044610F010
:10439000030F08BF11F0030F40F015804FF0013EEE
:1043A000121FC0F20E8051F8043BA3EB0E0C2CEA56
:1043B000030C1CEACE1C08BF40F8043BF0D0A1F16E
:1043C000040102F10402521E08DB11F8013B002B2C
:1043D00000F8013BF7D11146FFF7B5FF204610BDAD
:1043E00070477047704770472DE9F0470D46994672
:1043F0009246044600F124080168880604D5E06965
:1044000021F01001216000E00120A84201DD471BDE
:1044100000E00027A1697A1902EB0900081AA061DF
:104420002078C00602D42046AFF30080002608E0C2
:10443000D4E901211AF806009047206A401C761C36
:1044400020624E45F4DB2078C0060AD52046AFF343
:10445000008006E0D4E9012130209047206A401C0A
:104460002062381EA7F10107F4DC07E0D4E901213E
:1044700018F805009047206A401C2062281EA5F10C
:104480000105F3DC2046AFF300802078000602D55A
:104490000220BDE8F0870120FBE710B5436913B1A6
:1044A000AFF3008001E0FFF779FE012010BD127824
:1044B00000F124010A7000224A700122EDE7116820
:1044C0004FF0FF32E9E70000074B70B50D467B4423
:1044D00000F06BF80446284600F07AF810B14FF06F
:1044E000FF3070BD204670BD97D0FFFF10B5203A59
:1044F000C0F00B80B1E81850203AA0E81850B1E89D
:104500001850A0E81850BFF4F5AF5FEA027C24BF52
:10451000B1E81850A0E8185044BF18C918C0BDE849
:1045200010405FEA827C24BF51F8043B40F8043B12
:1045300008BF7047D20728BF31F8023B48BF11F8C7
:10454000012B28BF20F8023B48BF00F8012B704721
:104550004FF0000200B5134694469646203922BF1C
:10456000A0E80C50A0E80C50B1F12001BFF4F7AF67
:10457000090728BFA0E80C5048BF0CC05DF804EB49
:10458000890028BF40F8042B08BF704748BF20F8B7
:10459000022B11F0804F18BF00F8012B704700006C
:1045A00001694A1C02610878704700B58FB0CDE9F7
:1045B00001310021059105497944CDE903101146E7
:1045C0006846FFF7B7FD0FB000BD0000E5FFFFFF35
:1045D000007B00F080007047754600F02BF8AE4677
:1045E00005006946534620F00700854618B020B5FF
:1045F000FCF794F8BDE820404FF000064FF00007AC
:104600004FF000084FF0000B21F00701AC46ACE87A
:10461000C009ACE8C009ACE8C009ACE8C0098D46E7
:10462000704710B50446AFF300802046BDE8104047
:10463000FBF7FEBD00487047041C00204FF040709F
:10464000E1EE100A70470000000B0020800000001F
:1046500030313233343536373839414243444546B8
:1046600040305800303132333435363738396162B2
:1046700063646566403078009846000800000020BA
:1046800078000000C40100081047000878000020EE
:10469000F0210000E0010008007A030A0000000099
:1046A00000000000010203040607080900000000E2
:1046B00001020304010203040607080900000000C8
:1046C00000000000000000000000000000000000EA
:1046D00000000000000000000000000000000000DA
:1046E000E80300000000000000000000540000206B
:1046F000540000205C0000205C00002064000000EA
:10470000FFFFFFFFFFFFFFFF700000207000002091
:040000050800018965
:00000001FF
