:020000040800F2
:10000000107B002045010008290D00082B0D000879
:100010002F0D0008330D0008370D00080000000008
:100020000000000000000000000000003B0D000880
:100030003D0D000800000000EB2500083F0D000802
:100040005F0100085F0100085F0100085F01000810
:100050005F0100085F0100085F0100085F01000800
:100060005F0100085F0100085F0100085F010008F0
:100070005F0100085F0100085F0100085F010008E0
:100080005F0100085F0100085F0100085F010008D0
:100090005F0100085F0100085F0100085F010008C0
:1000A0005F0100085F0100085F0100085F010008B0
:1000B0005F0100085F0100085F0100085F010008A0
:1000C0005F0100085F0100085F0100085F01000890
:1000D0005F010008550D00085F0100085F0100087E
:1000E0005F0100085F0100085F0100085F01000870
:1000F0005F0100085F0100085F0100085F01000860
:100100005F0100085F0100085F0100085F0100084F
:100110005F0100085F0100085F0100085F0100083F
:100120005F0100085F0100085F0100085F0100082F
:10013000DFF80CD006F03CFF004800472707000816
:10014000107B00200648804706480047FEE7FEE790
:10015000FEE7FEE7FEE7FEE7FEE7FEE7FEE7FEE777
:1001600047020008310100080CB500200190009002
:100170006C48006840F480306A49086000BF6948F4
:10018000006800F4003000900198401C0190009835
:1001900018B90198B0F5A06FF1D16248006800F479
:1001A000003010B10120009001E000200090009884
:1001B000012843D15C48006840F010005A490860AB
:1001C0000846006820F0030008600846006840F018
:1001D0000200086053484068524948600846406839
:1001E00048600846406840F48060486008464068BF
:1001F00020F47C1048600846406840F4E8104860ED
:100200000846006840F08070086000BF45480068FC
:1002100000F000700028F9D04248406820F0030048
:10022000404948600846406840F00200486000BF0E
:100230003C48406800F00C000828F9D10CBD10B50E
:10024000FFF792FF10BD10B53648006840F001007E
:1002500034490860084640683449084031494860DC
:1002600008460068324908402E4908600846006880
:1002700020F4802008600846406820F4FE004860B2
:100280004FF41F008860FFF7DAFF4FF00060294944
:10029000086010BD10B5002100200022214B5B68D2
:1002A00003F00C0121B1042906D0082928D107E068
:1002B000214B224C236027E01F4B204C236023E07E
:1002C000184B5B6803F47010164B5B6803F48032C4
:1002D000022303EB904022B9194B4343174C236090
:1002E0000DE0104B5B6803F4003323B1144B434320
:1002F000124C236003E0104B4343104C236003E097
:100300000D4B0E4C236000BF00BF064B5B68C3F370
:1003100003130C4CE15C094B1B68CB40074C23607A
:1003200010BD000000100240002002400000FFF855
:10033000FFFFF6FE08ED00E000127A00000000204A
:1003400000093D0004000020506002604160086028
:10035000704748600160704710B50446D4E900104A
:10036000FFF7F7FF10BD00604060704770B50546AD
:100370000C46214628462268FFF7E6FF70BD70B59F
:1003800005460C46224628466168FFF7DDFF70BD32
:1003900010B50446D4E90010FFF7DBFF10BD10B51F
:1003A00004462046FFF7D8FF2046FFF7DCFF10BDCC
:1003B00070B504460D462046FFF7CEFF294620467D
:1003C000FFF7D4FF70BD70B504460D462046FFF719
:1003D000C3FF29462046FFF7D2FF70BD01460868DB
:1003E000884201D1012070470020FCE70021016014
:1003F00070470146086870470146086808B9002040
:10040000704700E0096808680028FBD10846F7E754
:100410000A6802600860704770B505460C46002007
:10042000286000E0246820680028FBD12146284687
:10043000FFF7EEFF70BD70B505460E46144625B9B0
:1004400021463046FFF7E8FF70BD05E02068A8426E
:1004500001D126603560246820680028F6D100BFED
:10046000F2E70146086808B9002070470A6810687A
:100470000860002010601046F7E710B5044607E05A
:100480002068006818B92046FFF7EBFF10BD24680C
:1004900020680028F4D100BFF8E706E00A6882422D
:1004A00002D102680A6003E009680A68002AF5D1EF
:1004B00000BF7047014600200A6801E0401C126836
:1004C000002AFBD17047024605E00868904201D13E
:1004D00001207047096808680028F6D100BFF8E7D6
:1004E0000146086808B9012070470020FCE7024671
:1004F0005088884201D1012070470020FCE74180EC
:10050000704700214180704700210170704702212F
:100510000170704701210170704701460878022878
:1005200001D1012070470020FCE70146087801282E
:1005300000D170470020FCE7014691F8200008B97F
:10054000012070470020FCE7014691F8200000F0F0
:1005500001007047014691F8200000F0020070474A
:10056000014691F8200000F00400704790F8201038
:1005700021F0020180F82010704790F8201021F03F
:10058000010180F82010704790F8201021F004013C
:1005900080F82010704790F8201041F0040180F896
:1005A0002010704790F8201041F0020180F82010D0
:1005B0007047002180F820107047082180F8201033
:1005C000704790F8201041F0010180F8201070472A
:1005D00070B5044675A500BF04F1080176A006F0C9
:1005E000F9FC79A006F0F6FC05F03EF8A04201D136
:1005F00076A52DE094F82000072801D175A527E005
:1006000094F82000062801D178A521E094F8200074
:10061000052801D179A51BE094F82000032801D119
:100620007AA515E094F82000042801D16CA50FE00C
:1006300094F82000022801D177A509E094F8200061
:10064000012801D176A503E094F8200000B976A531
:10065000294677A006F0BEFC5BA006F0BBFC78A0A4
:10066000A16A06F0B7FC58A006F0B4FC78A0616A55
:1006700006F0B0FC54A006F0ADFCD4E909028118E4
:1006800077A006F0A7FC50A006F0A4FC4EA006F050
:10069000A1FC70BD06E076A006F09CFCC8200021FD
:1006A00005F05AFBF7E776A006F094FC4FF4FA60E9
:1006B000002105F051FB76A006F08CFC784805F08F
:1006C000C1FA04461CB1214676A006F083FC4FF423
:1006D000FA60002105F040FB7BA006F07BFC70482F
:1006E00005F0F2FA04461CB121467BA006F072FC2C
:1006F0004FF4FA60002105F02FFB7FA006F06AFCA2
:10070000674805F0A4F804461CB121467EA006F017
:1007100061FC07E05AA006F05DFC4FF47A700021FE
:1007200005F01AFBF6E71FB500F09BFB7FA006F073
:1007300051FC04F09FFC4FF4FA7003F0F3FE82A02A
:1007400006F048FC14204FF48061834A0323CDE96E
:100750000032CDE902100023AFF2C7027FA150485A
:1007600005F0C3F804461CB121467EA006F032FC19
:1007700087A006F02FFC14204FF48061884A0423E0
:10078000CDE90032CDE902100023AFF2E50285A1E8
:10079000864805F0AAF804461CB1214684A006F05C
:1007A00019FC04F081FD002004B010BD41424E4F01
:1007B000524D414C0000000074736B206E616D65FA
:1007C0003A202573000000000A00000052554E4EEA
:1007D000494E470050454E4454494D454F55545F8E
:1007E00053555350454E44454400000050454E4437
:1007F0005F53555350454E4445440000534C4545C6
:10080000505F53555350454E4445440050454E4467
:1008100054494D454F55540050454E44000000008A
:10082000534C4545500000005245414459000000DA
:1008300074736B20737461743A2025730000000098
:1008400073746B2073697A653A2025640000000098
:1008500073746B20626173653A20307825700000F4
:1008600073746B20746F70203A203078257000000C
:100870007461736B312072756E6E696E670D0A005C
:100880007461736B322072756E6E696E670D0A004B
:1008900073757370656E64207461736B310D0A003B
:1008A0007800002073757370656E64207461736BDB
:1008B00031206661696C2120636F6465203A2025D0
:1008C00064200D0A00000000726573756D65207468
:1008D00061736B310D0A0000726573756D6520746C
:1008E00061736B31206661696C2120636F646520E0
:1008F0003A202564200D0A0064657374726F7920B4
:100900007461736B310D0A0064657374726F7920C2
:100910007461736B31206661696C2120636F64655B
:10092000203A202564200D0A0000000057656C6302
:100930006F6D6520746F2054656E63656E744F53E0
:100940002074696E790D0A006372656174652074A4
:1009500061736B310D0A0000680100207461736BD4
:100960003100000054656E63656E744F532043720E
:1009700065617465207461736B31206661696C21F7
:1009800020636F6465203A202564200D0A00000072
:10099000637265617465207461736B320D0A0000C7
:1009A000680500207461736B32000000F0000020C5
:1009B00054656E63656E744F532043726561746550
:1009C000207461736B32206661696C2120636F64EF
:1009D00065203A202564200D0A0000005060026066
:1009E00041600860704748600160704710B5044678
:1009F000D4E90010FFF7F7FF10BD006040607047BA
:100A000070B505460C46214628462268FFF7E6FFEA
:100A100070BD70B505460C46224628466168FFF752
:100A2000DDFF70BD10B50446D4E90010FFF7DBFF11
:100A300010BD10B504462046FFF7D8FF2046FFF74B
:100A4000DCFF10BD70B504460D462046FFF7CEFF13
:100A500029462046FFF7D4FF70BD70B504460D4609
:100A60002046FFF7C3FF29462046FFF7D2FF70BD9F
:100A700001460868884201D1012070470020FCE748
:100A80000021016070470146086870470146086808
:100A900008B90020704700E0096808680028FBD109
:100AA0000846F7E70A6802600860704770B50546B7
:100AB0000C460020286000E0246820680028FBD154
:100AC00021462846FFF7EEFF70BD70B505460E467D
:100AD000144625B921463046FFF7E8FF70BD05E012
:100AE0002068A84201D1266035602468206800286B
:100AF000F6D100BFF2E70146086808B90020704748
:100B00000A6810680860002010601046F7E710B50A
:100B1000044607E02068006818B92046FFF7EBFF9D
:100B200010BD246820680028F4D100BFF8E706E073
:100B30000A68824202D102680A6003E009680A6812
:100B4000002AF5D100BF7047014600200A6801E085
:100B5000401C1268002AFBD17047024605E0086875
:100B6000904201D101207047096808680028F6D139
:100B700000BFF8E70146086808B901207047002067
:100B8000FCE702465088884201D1012070470020CE
:100B9000FCE74180704700214180704700210170CF
:100BA00070470221017070470121017070470146B2
:100BB0000878022801D1012070470020FCE7014697
:100BC0000878012800D170470020FCE7014691F821
:100BD000200008B9012070470020FCE7014691F889
:100BE000200000F001007047014691F8200000F05D
:100BF00002007047014691F8200000F004007047A1
:100C000090F8201021F0020180F82010704790F831
:100C1000201021F0010180F82010704790F820107A
:100C200021F0040180F82010704790F8201041F066
:100C3000040180F82010704790F8201041F0020164
:100C400080F820107047002180F82010704708219C
:100C500080F82010704790F8201041F0010180F8D2
:100C60002010704770B5044642A500BF04F108018A
:100C700043A006F0AFF946A006F0ACF904F0F4FC8E
:100C8000A04201D143A52DE094F82000072801D10E
:100C900042A527E094F82000062801D145A521E0CF
:100CA00094F82000052801D146A51BE094F8200007
:100CB000032801D147A515E094F82000042801D1AC
:100CC00039A50FE094F82000022801D144A509E0DD
:100CD00094F82000012801D143A503E094F82000F6
:100CE00000B943A5294644A006F074F928A006F0EF
:100CF00071F945A0A16A06F06DF925A006F06AF920
:100D000045A0616A06F066F921A006F063F9D4E90E
:100D10000902811844A006F05DF91DA006F05AF9F9
:100D20001BA006F057F970BD704700BFFEE700BF7B
:100D3000FEE700BFFEE700BFFEE77047704710B553
:100D400004F0B4F928B104F0B8F905F0A3FB04F0FD
:100D5000E0F910BD10B540F22551374800F0EEFE25
:100D600038B1354800F06AFEC4B22146324800F07E
:100D700061FE10BD41424E4F524D414C00000000FB
:100D800074736B206E616D653A202573000000005E
:100D90000A00000052554E4E494E470050454E4401
:100DA00054494D454F55545F53555350454E444556
:100DB0004400000050454E445F53555350454E4447
:100DC00045440000534C4545505F53555350454EE4
:100DD0004445440050454E4454494D454F555400F8
:100DE00050454E4400000000534C45455000000063
:100DF000524541445900000074736B207374617450
:100E00003A2025730000000073746B2073697A65C3
:100E10003A2025640000000073746B2062617365E2
:100E20003A2030782570000073746B20746F702046
:100E30003A203078257000000038014008B54FF4A2
:100E4000A06000F0CDF825208DF8000001208DF87D
:100E500001008DF802008DF80300684600F0C5F827
:100E600008BD00B585B00121042000F043FC01213C
:100E7000880300F03FFC4FF40070ADF8100018201C
:100E80008DF8130003208DF8120004A9524800F0D9
:100E900075F94FF48060ADF8100004208DF8130050
:100EA00004A94D4800F06AF94FF4E13000900020A9
:100EB000ADF80400ADF80600ADF80800ADF80C0080
:100EC0000C20ADF80A006946444800F0BAFCFFF770
:100ED000B5FF012240F22551404800F04AFD0121B2
:100EE0003E4800F03AFD05B000BD70B504460D4621
:100EF0002946204600F09EFD00BF8021204600F0DC
:100F000007FE0028F9D070BD2DE9F04107460D46D7
:100F10001646002405E0295D3846FFF7E6FF601C11
:100F2000C4B2B442F7DB00BF4021384600F0F0FD08
:100F30000028F9D0BDE8F08170B506460C460025C2
:100F400000BF615D3046FFF7D0FF6D1C605D00287B
:100F5000F7D100BF4021304600F0DAFD0028F9D07B
:100F600070BD2DE9F04105460C46260AE7B2314630
:100F7000284600F05FFD00BF8021284600F0C8FD34
:100F80000028F9D03946284600F054FD00BF8021E2
:100F9000284600F0BDFD0028F9D0BDE8F08170B50D
:100FA00004460D46E1B20D4800F044FD00BF80212B
:100FB0000A4800F0ADFD0028F9D0204670BD10B5FC
:100FC000044600BF2021054800F0A2FD0028F9D00A
:100FD000024800F033FD10BD000801400038014018
:100FE00031490143314A1160704770B50021002337
:100FF0000F22C47804B32D4C246804F4E064C4F5D3
:10100000E064210AC1F10403CA40447804FA03F100
:101010008478144021430901254C0678A1550478B1
:1010200004F01F050124AC4005786D11AD0005F1F9
:10103000E025C5F8004109E0047804F01F0501240B
:10104000AC401C4D0678761145F8264070BD1A4A12
:101050000A400243154B1B1F1A60704739B1134AEF
:10106000121D12680243114B1B1D1A6006E00F4A45
:10107000121D126882430D4B1B1D1A607047042815
:1010800008D14FF0E021096941F004014FF0E0225E
:10109000116107E04FF0E021096921F004014FF0F0
:1010A000E0221161704700000000FA050CED00E03D
:1010B00000E400E080E100E080FFFF1F10B504467F
:1010C000CC48844208D10121042000F02DFB0021EE
:1010D000042000F029FB46E0C748844208D10121E2
:1010E000082000F021FB0021082000F01DFB3AE061
:1010F000C248844208D10121102000F015FB0021D4
:10110000102000F011FB2EE0BD48844208D10121DF
:10111000202000F009FB0021202000F005FB22E048
:10112000B848844208D10121402000F0FDFA002196
:10113000402000F0F9FA16E0B348844208D10121BA
:10114000802000F0F1FA0021802000F0EDFA0AE0A2
:10115000AE48844207D10121801500F0E5FA002154
:10116000A01500F0E1FA10BD10B50121084600F00D
:10117000DBFA0021012000F0D7FA10BD2DE9F04183
:10118000024600250026002000230024002791F8B5
:1011900003C00CF00F0591F803C00CF0100CBCF16B
:1011A000000F03D091F802C04CEA050591F800C089
:1011B000BCF1000F31D0146800202BE04FF0010C7F
:1011C0000CFA00F3B1F800C00CEA03069E4220D1ED
:1011D00083004FF00F0C0CFA03F7BC4305FA03FC35
:1011E0004CEA040491F803C0BCF1280F06D14FF07B
:1011F000010C0CFA00FCC2F814C00AE091F803C01C
:10120000BCF1480F05D14FF0010C0CFA00FCC2F8FC
:1012100010C0401C0828D1D31460B1F800C0BCF144
:10122000FF0F34DD546800202EE000F1080C4FF071
:10123000010808FA0CF3B1F800C00CEA03069E425C
:1012400021D183004FF00F0C0CFA03F7BC4305FAD1
:1012500003FC4CEA040491F803C0BCF1280F05D14B
:1012600000F1080C08FA0CF8C2F8148091F803C0D9
:10127000BCF1480F07D100F1080C4FF0010808FA43
:101280000CF8C2F81080401C0828CED35460BDE88A
:10129000F0814FF6FF710180022181700421C1703D
:1012A00070470246002093680B400BB1012000E01C
:1012B000002070470146886880B2704702460020CF
:1012C000D3680B400BB1012000E0002070470146BD
:1012D000C86880B2704701617047416170470AB1C8
:1012E000016100E041617047C16070474FF4803296
:1012F0000A43826181618261826982697047024624
:101300000020434B18684FF68073184040EA0210E3
:1013100008433F4B186070473E49C8617047F0B5BD
:101320000A46002300240021002500F00046B6F103
:10133000004F02D1364EF16901E0354E7168C0F3BD
:10134000034583B200F44016B6F5401F08D121F0E2
:1013500070612F4E766826F070662D4F7E6012E029
:1013600000F48016B6F5801F06D1032606FA05F4B0
:10137000A14341F0706106E0460D360103FA06F61E
:10138000B14341F0706122B1460D360103FA06F611
:10139000314300F00046B6F1004F02D11C4EF1611E
:1013A00001E01B4E7160F0BD30B500228B071C0FB1
:1013B0000F2303FA04F2164B08338C1053F8243031
:1013C0009343134C08348D1044F8253023468C1079
:1013D00053F824308C07240F00FA04F423430C4CF8
:1013E00008348D1044F8253030BD0A49DC310860DE
:1013F0007047000000080140000C0140001001404F
:101400000014014000180140001C01400020014070
:101410000000014000002042DF48006840F0010069
:10142000DD49086008464068DC490840DA49486000
:1014300008460068DA490840D7490860084600684D
:1014400020F4802008600846406820F4FE004860D0
:101450004FF41F0088607047CF49096821F480313C
:10146000CD4A11601146096821F480211160B0F560
:10147000803F03D0B0F5802F0ED106E0C649096841
:1014800041F48031C44A116007E0C349096841F45E
:10149000A021C14A116000E000BF00BF704710B535
:1014A00001460022002300204A11012A02D1BA4C31
:1014B000236806E0022A02D1B74C236A01E0B64C49
:1014C000636A01F01F02012494401C400CB101200A
:1014D00000E0002010BD38B5002000900024002559
:1014E00000BF3120FFF7DBFF05460098401C00904D
:1014F0000098B0F5A06F01D0002DF2D03120FFF799
:10150000CEFF08B1012400E00024204638BD01468A
:101510000020A14A106820F0F80040EAC1001060E5
:101520007047A04908607047024600209A4B5868EF
:1015300020F47C1042EA01031843974B586070472F
:1015400098490866704701460020934A506820F089
:1015500003000843506070478F48406800F00C005B
:101560007047014600208C4A506820F0F000084384
:101570005060704701460020874A506820F4E060C0
:1015800008435060704701460020834A506820F4A9
:10159000605040EAC1005060704729B17E4A527ADB
:1015A00002437D4B5A7204E07B4A527A82437A4B63
:1015B0005A7270477B49D831086070470146002055
:1015C000754A506820F4404008435060704700213D
:1015D000714A20321170704A82F82010012802D01E
:1015E00004280AD104E001216B4A2032117005E081
:1015F0000521694A2032117000E000BF00BF70472A
:101600006949086070476449096A0143624A116286
:101610007047654944390860704730B500210022A1
:10162000002400235C4D6D6805F00C0121B10429F4
:1016300005D0082923D105E05C4D056022E05B4D13
:1016400005601FE0544D6D6805F47012524D6D68D1
:1016500005F48034022505EB92421CB9544D5543E4
:1016600005600BE04C4D6D6805F400351DB1504D23
:101670005543056002E04D4D5543056002E04B4D7A
:10168000056000BF00BF444D6D6805F0F001090919
:10169000484D6B5C0568DD4045603F4D6D6805F465
:1016A000E061090A434D6B5C4568DD4085603A4D59
:1016B0006D6805F46051C90A3E4D6B5C4568DD40BC
:1016C000C560354D6D6805F44041890B3A4D6B5C42
:1016D000C568B5FBF3F5056130BD29B12E4A5269E5
:1016E00002432D4B5A6104E02B4A526982432A4B34
:1016F0005A61704729B1284A92690243264B9A6180
:1017000004E0254A92698243234B9A61704729B1CC
:10171000214AD2690243204BDA6104E01E4AD269B1
:1017200082431D4BDA61704729B11B4AD2680243DC
:10173000194BDA6004E0184AD2688243164BDA602B
:10174000704729B1144A12690243134B1A6104E02D
:10175000114A12698243104B1A617047124940398D
:10176000086070470F49C86470470B49C8717047DB
:101770000948406A40F08070074948627047014656
:101780000020054A92680A400AB1012000E00020CA
:101790007047014988727047001002400000FFF84E
:1017A000FFFFF6FE000042428004424200127A002F
:1017B00000093D00140000202400002010B504465C
:1017C000FB48844209D101218803FFF7ADFF0021C6
:1017D0004FF48040FFF7A8FF32E0F648844209D179
:1017E00001214804FFF7ADFF00214FF40030FFF75F
:1017F000A8FF25E0F048844209D101218804FFF7C1
:10180000A0FF00214FF48020FFF79BFF18E0EB487A
:10181000844209D10121C804FFF793FF00214FF44E
:101820000020FFF78EFF0BE0E548844208D101213C
:101830000805FFF786FF00214FF48010FFF781FFB6
:1018400010BD2DE9F04786B005460E460024A2469D
:1018500000BFA1460027B08900B100BF2F462C8AE7
:101860004CF6FF700440F08804432C82AC894EF69D
:10187000F3100440B0883189084371890843044358
:10188000AC81AC8A4FF6FF400440B0890443AC827F
:1018900001A8FFF7C2FEC648874202D1DDF810A0BA
:1018A00001E0DDF80CA0A88900F4004040B10AEB8B
:1018B000CA0000EB0A1031684900B0FBF1F807E0FC
:1018C0000AEBCA0000EB0A1031688900B0FBF1F89E
:1018D0006420B8FBF0F004012009642101FB1089A9
:1018E000A88900F4004040B1322000EBC900B0FBF1
:1018F000F1F000F00700044308E0322000EB09108B
:101900006421B0FBF1F000F00F0004432C8106B01D
:10191000BDE8F0874FF41651016000218180C1803D
:1019200001810C21418100218181704710B502465F
:101930000020108A4FF2FF0318400B884C88234385
:101940008C882343CC8823431843108210BD002188
:10195000018041808180C180704721B1828942F439
:101960000052828104E082894DF6FF731A40828121
:101970007047F0B50346002400260025002040F6FD
:101980006A17B94200D100BF1846C1F3421401F0F2
:101990001F06012707FA06F5012C01D10C3004E0DF
:1019A000022C01D1103000E014301AB107682F4327
:1019B000076002E00768AF430760F0BD1AB1838A91
:1019C0000B43838202E0838A8B4383827047028ABF
:1019D0004FF6F0731A400282028A0A43028270476D
:1019E00082894FF2FF731A40828182890A43828181
:1019F000704721B1828942F00202828104E082892B
:101A00004FF6FD731A4082817047028A4FF6DF73EA
:101A10001A400282028A0A430282704721B1028A76
:101A200042F48042028204E0028A4BF6FF731A40BD
:101A300002827047C1F3080282807047014688889D
:101A4000C0F308007047818941F00101818170472E
:101A5000028BD2B20283028B42EA012202837047D8
:101A6000028B02F47F420283028B0A430283704797
:101A700021B1828A42F02002828204E0828A4FF6FB
:101A8000DF731A408282704721B1828A42F01002CD
:101A9000828204E0828A4FF6EF731A408282704796
:101AA00021B1828A42F00802828204E0828A4FF6E3
:101AB000F7731A408282704721B1828942F4004252
:101AC000828103E08289C2F30E028281704721B1D4
:101AD000828A42F40062828204E0828A4FF2FF73BB
:101AE0001A4082827047828A4FF6FB731A408282C4
:101AF000828A0A438282704721B1828A42F00202BE
:101B0000828204E0828A4FF6FD731A408282704717
:101B100002460020B1F5007F00D100BF13880B40C2
:101B20000BB1012000E00020704701F40072B2F513
:101B3000007F00D100BFCA430280704770B50246E3
:101B4000002400230025002040F66A16B14200D18F
:101B500000BFC1F3421501F01F03012606FA03F38B
:101B6000012D02D19689334006E0022D02D1168A5A
:101B7000334001E0968A33400C12012606FA04F441
:101B80001688344013B10CB1012000E0002070BD74
:101B900010B50022002340F66A14A14200D100BF14
:101BA0000A1201249440A3B2DC43048010BD00005B
:101BB000003801400044004000480040004C004014
:101BC000005000405060026041600860704748600B
:101BD0000160704710B50446D4E90010FFF7F7FF25
:101BE00010BD00604060704770B505460C46214648
:101BF00028462268FFF7E6FF70BD70B505460C4623
:101C0000224628466168FFF7DDFF70BD10B5044627
:101C1000D4E90010FFF7DBFF10BD10B504462046E5
:101C2000FFF7D8FF2046FFF7DCFF10BD70B5044674
:101C30000D462046FFF7CEFF29462046FFF7D4FF8A
:101C400070BD70B504460D462046FFF7C3FF294618
:101C50002046FFF7D2FF70BD01460868884201D1D7
:101C6000012070470020FCE7002101607047014619
:101C7000086870470146086808B90020704700E00E
:101C8000096808680028FBD10846F7E70A6802607F
:101C90000860704770B505460C460020286000E0DB
:101CA000246820680028FBD121462846FFF7EEFF74
:101CB00070BD70B505460E46144625B9214630461E
:101CC000FFF7E8FF70BD05E02068A84201D126605B
:101CD0003560246820680028F6D100BFF2E701468D
:101CE000086808B9002070470A681068086000207A
:101CF00010601046F7E710B5044607E0206800685A
:101D000018B92046FFF7EBFF10BD246820680028B3
:101D1000F4D100BFF8E706E00A68824202D1026807
:101D20000A6003E009680A68002AF5D100BF70471D
:101D3000014600200A6801E0401C1268002AFBD11D
:101D40007047024605E00868904201D101207047C3
:101D5000096808680028F6D100BFF8E7014608685E
:101D600008B9012070470020FCE7024650888842ED
:101D700001D1012070470020FCE74180704700211D
:101D80004180704700210170704702210170704747
:101D900001210170704701460878022801D1012015
:101DA00070470020FCE701460878012800D1704701
:101DB0000020FCE7014691F8200008B90120704797
:101DC0000020FCE7014691F8200000F00100704778
:101DD000014691F8200000F002007047014691F89A
:101DE000200000F00400704790F8201021F002015C
:101DF00080F82010704790F8201021F0010180F841
:101E00002010704790F8201021F0040180F8201075
:101E1000704790F8201041F0040180F820107047BE
:101E200090F8201041F0020180F820107047002146
:101E300080F820107047082180F82010704790F833
:101E4000201041F0010180F82010704770B5044661
:101E500076A500BF04F1080177A005F0BBF87AA0D1
:101E600005F0B8F803F000FCA04201D177A52DE001
:101E700094F82000072801D176A527E094F82000E7
:101E8000062801D179A521E094F82000052801D188
:101E90007AA51BE094F82000032801D17BA515E06A
:101EA00094F82000042801D16DA50FE094F82000DB
:101EB000022801D178A509E094F82000012801D179
:101EC00077A503E094F8200000B977A5294678A00B
:101ED00005F080F85CA005F07DF879A0A16A05F016
:101EE00079F859A005F076F879A0616A05F072F8E2
:101EF00055A005F06FF8D4E90902811878A005F023
:101F000069F851A005F066F84FA005F063F870BDC0
:101F100010B50446204600F04EFB10BD10B500F091
:101F20003FFB10BD10B500F03DFB10BD10B500F03B
:101F30003BFB10BD10B50446204600F039FB10BD38
:101F400010B50446002000F0BAFA204600F09DFAD1
:101F500010BD10B566480CC866480068002104F042
:101F6000A7FF6549086008460068FFF7E9FF10BD54
:101F700010B500F079FA10BD00F020FB10B500F0AC
:101F80002AFB10BD10B500F02BFB10BDF0B50446C8
:101F9000059D581920F007004FF08077061F304646
:101FA0003760061F30463460061F304632604FF0FF
:101FB0001237061F304637604FF00337061F304692
:101FC00037604FF00237061F304637607F10061F1C
:101FD00030463760061F304631604FF01137061F1C
:101FE000304637604FF01037061F304637604FF0ED
:101FF0000937061F304637604FF00837061F304656
:1020000037604FF00737061F304637604FF006370E
:10201000061F304637604FF00537061F30463760E1
:102020004FF00437061F30463760F0BD41424E4F37
:10203000524D414C0000000074736B206E616D6561
:102040003A202573000000000A00000052554E4E51
:10205000494E470050454E4454494D454F55545FF5
:1020600053555350454E44454400000050454E449E
:102070005F53555350454E4445440000534C45452D
:10208000505F53555350454E4445440050454E44CF
:1020900054494D454F55540050454E4400000000F2
:1020A000534C454550000000524541445900000042
:1020B00074736B20737461743A2025730000000000
:1020C00073746B2073697A653A2025640000000000
:1020D00073746B20626173653A203078257000005C
:1020E00073746B20746F70203A2030782570000074
:1020F00040000020000000204800002010B500280B
:1021000007DA0A07140EF24A00F00F031B1FD4541B
:1021100003E00A07130EEF4A135410BD506002602B
:1021200041600860704748600160704710B5044620
:10213000D4E90010FFF7F7FF10BD00604060704762
:1021400070B505460C46214628462268FFF7E6FF93
:1021500070BD70B505460C46224628466168FFF7FB
:10216000DDFF70BD10B50446D4E90010FFF7DBFFBA
:1021700010BD10B504462046FFF7D8FF2046FFF7F4
:10218000DCFF10BD70B504460D462046FFF7CEFFBC
:1021900029462046FFF7D4FF70BD70B504460D46B2
:1021A0002046FFF7C3FF29462046FFF7D2FF70BD48
:1021B00001460868884201D1012070470020FCE7F1
:1021C00000210160704701460868704701460868B1
:1021D00008B90020704700E0096808680028FBD1B2
:1021E0000846F7E70A6802600860704770B5054660
:1021F0000C460020286000E0246820680028FBD1FD
:1022000021462846FFF7EEFF70BD70B505460E4625
:10221000144625B921463046FFF7E8FF70BD05E0BA
:102220002068A84201D12660356024682068002813
:10223000F6D100BFF2E70146086808B900207047F0
:102240000A6810680860002010601046F7E710B5B3
:10225000044607E02068006818B92046FFF7EBFF46
:1022600010BD246820680028F4D100BFF8E706E01C
:102270000A68824202D102680A6003E009680A68BB
:10228000002AF5D100BF7047014600200A6801E02E
:10229000401C1268002AFBD17047024605E008681E
:1022A000904201D101207047096808680028F6D1E2
:1022B00000BFF8E70146086808B901207047002010
:1022C000FCE702465088884201D101207047002077
:1022D000FCE7418070470021418070470021017078
:1022E000704702210170704701210170704701465B
:1022F0000878022801D1012070470020FCE7014640
:102300000878012800D170470020FCE7014691F8C9
:10231000200008B9012070470020FCE7014691F831
:10232000200000F001007047014691F8200000F005
:1023300002007047014691F8200000F00400704749
:1023400090F8201021F0020180F82010704790F8DA
:10235000201021F0010180F82010704790F8201023
:1023600021F0040180F82010704790F8201041F00F
:10237000040180F82010704790F8201041F002010D
:1023800080F820107047002180F820107047082145
:1023900080F82010704790F8201041F0010180F87B
:1023A0002010704770B504464BA500BF04F108012A
:1023B0004CA004F00FFE4FA004F00CFE03F054F903
:1023C000A04201D14CA52DE094F82000072801D1AE
:1023D0004BA527E094F82000062801D14EA521E066
:1023E00094F82000052801D14FA51BE094F82000A7
:1023F000032801D150A515E094F82000042801D14C
:1024000042A50FE094F82000022801D14DA509E073
:1024100094F82000012801D14CA503E094F8200095
:1024200000B94CA529464DA004F0D4FD31A004F01C
:10243000D1FD4EA0A16A04F0CDFD2EA004F0CAFD8E
:102440004EA0616A04F0C6FD2AA004F0C3FDD4E9E1
:10245000090281184DA004F0BDFD26A004F0BAFDCC
:1024600024A004F0B7FD70BD00BF19480C38006807
:1024700000F4E06049490843001D15490C39086023
:10248000BFF3408F00BF00BFFEE770B5044625468E
:10249000B5F1807F00D311E025F07F40401E4FF062
:1024A000E02148610F214FF0FF30FFF727FE0020A9
:1024B0004FF0E02188610720086100BF70BD10B5B2
:1024C000044621464FF0FF30FFF718FE10BD000014
:1024D00018ED00E000E400E041424E4F524D414C07
:1024E0000000000074736B206E616D653A202573E7
:1024F000000000000A00000052554E4E494E4700B1
:1025000050454E4454494D454F55545F53555350D3
:10251000454E44454400000050454E445F535553DA
:1025200050454E4445440000534C4545505F53557B
:102530005350454E4445440050454E4454494D4542
:102540004F55540050454E4400000000534C454543
:1025500050000000524541445900000074736B2044
:10256000737461743A2025730000000073746B204B
:1025700073697A653A2025640000000073746B204B
:10258000626173653A2030782570000073746B20A7
:10259000746F70203A203078257000000000FA0532
:1025A00072B6704762B67047EFF3108072B670472C
:1025B00080F310887047B0FA80F0704717484FF0EA
:1025C000FF010170002080F3098815484FF0805109
:1025D000016062B6FEE712484FF08051016070471B
:1025E0000F484FF080510160704772B6EFF30980D9
:1025F00028B1203880E8F00F0A49096808600948C6
:1026000009490A680260106890E8F00F203080F3F2
:1026100009884EF0040E62B6704700BF22ED00E05C
:1026200004ED00E0380000203C0000205060026013
:1026300041600860704748600160704710B504460B
:10264000D4E90010FFF7F7FF10BD0060406070474D
:1026500070B505460C46214628462268FFF7E6FF7E
:1026600070BD70B505460C46224628466168FFF7E6
:10267000DDFF70BD10B50446D4E90010FFF7DBFFA5
:1026800010BD10B504462046FFF7D8FF2046FFF7DF
:10269000DCFF10BD70B504460D462046FFF7CEFFA7
:1026A00029462046FFF7D4FF70BD70B504460D469D
:1026B0002046FFF7C3FF29462046FFF7D2FF70BD33
:1026C00001460868884201D1012070470020FCE7DC
:1026D000002101607047014608687047014608689C
:1026E00008B90020704700E0096808680028FBD19D
:1026F0000846F7E70A6802600860704770B505464B
:102700000C460020286000E0246820680028FBD1E7
:1027100021462846FFF7EEFF70BD70B505460E4610
:10272000144625B921463046FFF7E8FF70BD05E0A5
:102730002068A84201D126603560246820680028FE
:10274000F6D100BFF2E70146086808B900207047DB
:102750000A6810680860002010601046F7E710B59E
:10276000044607E02068006818B92046FFF7EBFF31
:1027700010BD246820680028F4D100BFF8E706E007
:102780000A68824202D102680A6003E009680A68A6
:10279000002AF5D100BF7047014600200A6801E019
:1027A000401C1268002AFBD17047024605E0086809
:1027B000904201D101207047096808680028F6D1CD
:1027C00000BFF8E70146086808B9012070470020FB
:1027D000FCE702465088884201D101207047002062
:1027E000FCE7418070470021418070470021017063
:1027F0007047022101707047012101707047014646
:102800000878022801D1012070470020FCE701462A
:102810000878012800D170470020FCE7014691F8B4
:10282000200008B9012070470020FCE7014691F81C
:10283000200000F001007047014691F8200000F0F0
:1028400002007047014691F8200000F00400704734
:1028500090F8201021F0020180F82010704790F8C5
:10286000201021F0010180F82010704790F820100E
:1028700021F0040180F82010704790F8201041F0FA
:10288000040180F82010704790F8201041F00201F8
:1028900080F820107047002180F820107047082130
:1028A00080F82010704790F8201041F0010180F866
:1028B0002010704770B50446F9A500BF04F1080167
:1028C000FAA004F087FBFDA004F084FB02F0CCFE2C
:1028D000A04201D1FAA52DE094F82000072801D1EB
:1028E000F9A527E094F82000062801D1FCA521E0F5
:1028F00094F82000052801D1FDA51BE094F82000E4
:10290000032801D1FEA515E094F82000042801D188
:10291000F0A50FE094F82000022801D1FBA509E002
:1029200094F82000012801D1FAA503E094F82000D2
:1029300000B9FAA52946FBA004F04CFBDFA004F087
:1029400049FBFCA0A16A04F045FBDCA004F042FBBB
:10295000FCA0616A04F03EFBD8A004F03BFBD4E984
:1029600009028118FBA004F035FBD4A004F032FB6F
:10297000D2A004F02FFB70BD10B504462046FFF72F
:10298000C7FAC0F1200010BD10B50446E143491C50
:1029900004EA0100FFF7F0FF401E10BD10B5044629
:1029A0002046FFF7E9FF401E10BD2DE9F041044627
:1029B0000F469046802C06D200252046E11704EBF6
:1029C00091718E1009E02046FFF7E8FF0546681F69
:1029D00044FA00F080F02006AD1F3D60C8F80060AA
:1029E000BDE8F0812DE9F04104460E461746802CE3
:1029F00008D32046FFF7D2FF401F012101FA00F063
:102A0000451E2C443A4631462046FFF7CEFFBDE82E
:102A1000F0810146486820F00300704710B5044675
:102A20002046FFF7F6FF08B9012010BD0020FCE7A3
:102A3000027902F003020A434260704701460879B6
:102A400000F001007047416841F0010141607047AA
:102A5000416821F00101416070470146087900F0AA
:102A600002007047416841F00201416070474168CF
:102A700021F00201416070470146A1F10800704752
:102A8000014601F1080070470246501870470146A0
:102A9000086870472DE9F04104462046FFF7B9FF6A
:102AA000061F2046FFF7ECFF07463146FFF7ECFF15
:102AB00005462846BDE8F08170B504462046FFF77C
:102AC000E9FF05462C60284670BD70B504462046D7
:102AD000FFF7F2FF05462846FFF7C4FF2046FFF741
:102AE000B2FF70BD70B504462046FFF7D3FF054620
:102AF0002846FFF7BCFF2046FFF7AAFF70BD02463D
:102B0000481E10444B1E984370470246481E104012
:102B1000101A70470246481E10444B1E98437047D7
:102B200030B5904C04EBC11454F8223083608D4CC6
:102B3000743CC460D860743404EBC11444F82200BF
:102B4000884C843C246A01258D402C43854D843D6E
:102B50002C6205F1240454F82150012494402C43A4
:102B6000804D603D45F8214030BD70B5C468836834
:102B7000DC60A3607B4D05EBC11555F82250854202
:102B800020D1784D05EBC11545F82230754D743DC7
:102B9000AB4217D1143555F821600125954026EA3E
:102BA0000505704E603E46F82150354655F82150D7
:102BB00045B9A6F124052D6A01268E40B543694E1C
:102BC000843E356270BD7CB504462046FFF721FF88
:102BD00005466A4601A9FFF7E8FE2046DDE9002127
:102BE000FFF7C3FF7CBD7CB504462046FFF711FF0D
:102BF00005466A4601A9FFF7D8FE2046DDE9002117
:102C0000FFF78EFF7CBD70B505460C462846FFF7E2
:102C100000FF04F11001884201D3012070BD0020A3
:102C2000FCE72DE9F04105460C462846FFF728FF52
:102C30008046211FFFF728FF06462846FFF7E9FEDA
:102C4000211D471A39463046FFF7F2FE2146284635
:102C5000FFF7EEFE3046FFF738FF3046BDE8F08163
:102C600070B504460D462846FFF7D3FE001D616887
:102C7000084460602046FFF71FFF204670BD70B516
:102C800004462046FFF7E9FE40B12046FFF7FFFE6D
:102C900005462846FFF797FF214665E068E00000FB
:102CA00041424E4F524D414C0000000074736B2066
:102CB0006E616D653A202573000000000A00000077
:102CC00052554E4E494E470050454E4454494D458D
:102CD0004F55545F53555350454E444544000000F2
:102CE00050454E445F53555350454E4445440000B3
:102CF000534C4545505F53555350454E4445440051
:102D000050454E4454494D454F55540050454E444E
:102D100000000000534C454550000000524541441E
:102D20005900000074736B20737461743A2025732A
:102D30000000000073746B2073697A653A20256483
:102D40000000000073746B20626173653A20307874
:102D50002570000073746B20746F70203A203078F7
:102D6000257000000C6B00202846FFF779FF044611
:102D7000204670BD70B504462046FFF78BFE054621
:102D80002846FFF75BFE38B12846FFF71CFF2946AF
:102D90002046FFF765FF0446204670BD70B5044627
:102DA0000D4629462046FFF72EFF68B129462046EA
:102DB000FFF737FF06462046FFF77EFE3046FFF757
:102DC00051FE3046FFF70FFF70BD70B504460D464B
:102DD00029462046FFF717FF70B129462046FFF726
:102DE00020FF06463046FFF742FE3046FFF7C2FF9F
:102DF00006463046FFF7F7FE70BD70B504460D4637
:102E0000264629462046FFF7FEFE68B1291F2046C8
:102E1000FFF707FF06463046FFF724FE2046FFF780
:102E20004BFE2046FFF7DFFE304670BD2DE9F04730
:102E300005460E462C683768F84850F824004FF0D5
:102E4000FF31B94000EA0109B9F1000F16D1F3488A
:102E50002438006A611C4FF0FF328A4000EA020801
:102E6000B8F1000F02D10020BDE8F0874046FFF71F
:102E70008BFD04462C60E94850F824904846FFF743
:102E800083FD07463760E548603000EBC41050F81A
:102E90002700E9E77CB5044600200190009000255A
:102EA00004B97CBD6A4601A92046FFF79BFD019845
:102EB000182804DA694601A8FFF7B8FF054625B1CE
:102EC0002846DDE90021FFF750FE2846E9E770B506
:102ED00005460E4600240DB9002070BD3146284637
:102EE000FFF70DFE044614B1B4F1804F01D9002064
:102EF000F3E70C2C01D92046EFE70C20EDE770B585
:102F000004460D460CB9002070BD29462046FFF747
:102F100045FF2046FFF7E6FD2046FFF7B1FDF3E74A
:102F2000BE4824380068032801D1012070470020E2
:102F3000FCE70246002100BF08E0B848203850F8FE
:102F40002100904201D101207047491CB348243828
:102F500000688842F1DC0020F6E7B04924390A68AD
:102F60000968491CAD4B243B1960191D41F822002A
:102F700070470146002000BF07E0A84A203A52F8F7
:102F800020208A4200D105E0401CA44A243A12685D
:102F90008242F2DC00BFA14A243A1268521E8242E9
:102FA0000BD09E4A243A1268521E9C4B203B53F889
:102FB00022309A4A203A42F82030984A243A12683D
:102FC000521E964B243B1A6070470022934B243BC1
:102FD0001A60002005E00023904A203A42F8203091
:102FE000401C0328F7DB8D4A143AA2F110039A61C2
:102FF000DA6100221A62002011E00023874A42F8B9
:103000002030002108E0854A143A02F1740303EBF2
:10301000C01343F82120491C2029F4DB401C182848
:10302000EBDB704710B5FFF7D0FF002010BD2DE996
:10303000F04105460E46FFF773FF18B140F222300B
:10304000BDE8F0812846FFF774FF10B140F223304D
:10305000F6E7A6F108000421FFF757FD044605F046
:10306000030010B14FF44870EAE70C2C02D3B4F11E
:10307000804F02D940F22130E2E76FF00301284689
:10308000FFF702FD074621463846FFF7D1FC3846D8
:10309000FFF7D9FC3846FFF7EAFC3846FFF7A3FDF7
:1030A0003846FFF709FD804600214046FFF7C0FC87
:1030B0004046FFF7CDFC4046FFF7D4FC2846FFF71B
:1030C0004CFF0020BCE770B504460D46FFF77DFFBE
:1030D00029462046FFF7ABFF70BD70B50546B5F138
:1030E000804F01D9002070BD04212846FFF7EFFE74
:1030F00006463046FFF7CEFE04460CB90020F2E744
:1031000031462046FFF7FBFEEDE770B504460D465D
:1031100004FB05F0FFF7E1FF064626B104FB05F1CD
:10312000304603F00FFF304670BD2DE9F34F85B0F8
:103130000E4604210598FFF7CAFE81464FF0100A9B
:1031400009EB060101EB0A003146FFF7C0FE0390D0
:10315000B9F1000F03D0042E01D9039800E04846CE
:1031600004900498FFF796FE8046B8F1000F03D153
:10317000002007B0BDE8F08F4046FFF781FC07460E
:1031800031463846FFF7C6FC0546EC1BA4B1544552
:1031900012D2AAEB040002900298B04201D9029820
:1031A00000E030460190019805EB000B314658468F
:1031B000FFF7B0FC0546EC1B24B121464046FFF763
:1031C0001CFE804649464046FFF799FED1E770B5A0
:1031D000044604B970BD2046FFF74EFC054628465C
:1031E000FFF773FC2846FFF74AFD05462846FFF720
:1031F000C1FD05462846FFF7F6FC00BFEAE72DE9CA
:10320000F84F05460F464FF000084DB147B9284624
:10321000FFF7DDFF0020BDE8F88F0000AC6A00205A
:103220001DB93846FFF759FFF5E72846FFF724FC9C
:1032300083465846FFF72EFC00905846FFF7E9FBFF
:1032400006460098FFF7E5FB304400F1040904212D
:103250003846FFF73CFE0446B4421BD90098FFF7FE
:10326000EDFB08B14C4515D93846FFF736FF8046CF
:10327000B8F1000F1BD0BE4201D2304600E0384604
:10328000824652462946404603F043FE2846FFF751
:103290009EFF0CE0B44205D95846FFF76BFD584637
:1032A000FFF720FC21465846FFF78FFDA846404611
:1032B000B1E77CB5044600200190009000BF0CB936
:1032C000012000E0002010B140F24C407CBD00BF66
:1032D0002046FFF72EFE10B94FF44970F6E76FF065
:1032E00003012046FFF7D0FB05462846FFF791FB78
:1032F00006466A4601A9FFF758FB2846DDE900218A
:10330000FFF733FC2046FFF734FE0020DEE770B500
:1033100006460C4600BF0EB9012000E0002010B1A7
:1033200040F24C4070BD00BF00BF0CB9012000E06E
:10333000002010B140F24C40F4E700BF00202060B4
:103340006060011F3046FFF79FFB054614E02846EA
:10335000FFF774FB30B12846FFF75BFB6168084458
:10336000606005E02846FFF754FB216808442060B0
:103370002846FFF78FFB054625B12846FFF74EFB91
:103380000028E4D00020CDE77CB5044600BF0CB98E
:10339000012000E0002010B140F24C407CBD00BF95
:1033A000002020606060002512E00D4951F82500E2
:1033B0006946FFF7ACFF06460EB13046EEE760689F
:1033C00001990844606020680099084420606D1CE1
:1033D0000348001F0068A842E7DC0020DEE7000089
:1033E0008C6A00205060026041600860704748604D
:1033F0000160704710B50446D4E90010FFF7F7FFED
:1034000010BD00604060704770B505460C4621460F
:1034100028462268FFF7E6FF70BD70B505460C46EA
:10342000224628466168FFF7DDFF70BD10B50446EF
:10343000D4E90010FFF7DBFF10BD10B504462046AD
:10344000FFF7D8FF2046FFF7DCFF10BD70B504463C
:103450000D462046FFF7CEFF29462046FFF7D4FF52
:1034600070BD70B504460D462046FFF7C3FF2946E0
:103470002046FFF7D2FF70BD01460868884201D19F
:10348000012070470020FCE70021016070470146E1
:10349000086870470146086808B90020704700E0D6
:1034A000096808680028FBD10846F7E70A68026047
:1034B0000860704770B505460C460020286000E0A3
:1034C000246820680028FBD121462846FFF7EEFF3C
:1034D00070BD70B505460E46144625B921463046E6
:1034E000FFF7E8FF70BD05E02068A84201D1266023
:1034F0003560246820680028F6D100BFF2E7014655
:10350000086808B9002070470A6810680860002041
:1035100010601046F7E710B5044607E02068006821
:1035200018B92046FFF7EBFF10BD2468206800287B
:10353000F4D100BFF8E706E00A68824202D10268CF
:103540000A6003E009680A68002AF5D100BF7047E5
:10355000014600200A6801E0401C1268002AFBD1E5
:103560007047024605E00868904201D1012070478B
:10357000096808680028F6D100BFF8E70146086826
:1035800008B9012070470020FCE7024650888842B5
:1035900001D1012070470020FCE7418070470021E5
:1035A000418070470021017070470221017070470F
:1035B00001210170704701460878022801D10120DD
:1035C00070470020FCE701460878012800D17047C9
:1035D0000020FCE7014691F8200008B9012070475F
:1035E0000020FCE7014691F8200000F00100704740
:1035F000014691F8200000F002007047014691F862
:10360000200000F00400704790F8201021F0020123
:1036100080F82010704790F8201021F0010180F808
:103620002010704790F8201021F0040180F820103D
:10363000704790F8201041F0040180F82010704786
:1036400090F8201041F0020180F82010704700210E
:1036500080F820107047082180F82010704790F8FB
:10366000201041F0010180F82010704770B5044629
:10367000F9A500BF04F10801FAA003F0ABFCFDA01E
:1036800003F0A8FC01F0F0FFA04201D1FAA52DE063
:1036900094F82000072801D1F9A527E094F820002C
:1036A000062801D1FCA521E094F82000052801D1CD
:1036B000FDA51BE094F82000032801D1FEA515E02C
:1036C00094F82000042801D1F0A50FE094F8200020
:1036D000022801D1FBA509E094F82000012801D1BE
:1036E000FAA503E094F8200000B9FAA52946FBA04A
:1036F00003F070FCDFA003F06DFCFCA0A16A03F0F6
:1037000069FCDCA003F066FCFCA0616A03F062FCCB
:10371000D8A003F05FFCD4E909028118FBA003F0F4
:1037200059FCD4A003F056FCD2A003F053FC70BDAA
:1037300070B50446256904F11800FFF777FE0020F4
:103740002061207395F858000A2808D095F8581081
:10375000284602F0F9F90A2085F858000AE095F8A1
:103760002100217D884205D0217D284602F0ECF918
:103770000A20207570BD70B504460D46256195F888
:10378000210020750120207305F1500104F118007B
:10379000FFF73AFE70BD70B506460C46214630462E
:1037A000FFF7E9FF301D00F0F2FB054694F8210019
:1037B000A84203DD2946204602F0C6F970BD10B5C7
:1037C00004462046FFF7B4FF0421201D00F079FCD9
:1037D00010BD10B5044600BF01F094FC08B10120F3
:1037E00000E0002010B14FF4C87010BD00BF00BF52
:1037F0000CB9012000E0002010B140F24C40F4E789
:1038000000BF201D00F0E4FB0020207320610A208F
:10381000207504F11800FFF7F4FD46F6EE3120465E
:10382000FFF7BBFE0020E0E770B5054600BF01F0E2
:1038300069FC08B1012000E0002010B14FF4C8700D
:1038400070BD00BF00BF0DB9012000E0002010B125
:1038500040F24C40F4E700BF20210120FFF755FC67
:10386000044614B940F6FC00EAE7201D00F0B0FB66
:103870000020207320610A20207504F11800FFF752
:10388000C0FD46F6EE312046FFF787FE2046FFF7E3
:103890008CFE2C600020D3E770B50446002500BFE5
:1038A00001F030FC08B1012000E0002010B14FF41D
:1038B000C87070BD00BF00BF0CB9012000E000203F
:1038C00010B140F24C40F4E700BF00BF46F6EE31C5
:1038D0002046FFF75AFE10B940F24D40E9E700BF1D
:1038E00000BFFEF723FB054600BF0321201D00F0AB
:1038F000E8FB206910B12046FFF71AFF201D00F0F9
:103900006DFB2046FFF757FE30B12046FFF747FE1C
:103910002046FFF75CFC02E02046FFF740FE00BFB8
:103920002846FEF707FB00BF01F062FC0020C0E75D
:103930002DE9F041044615461E46002700BF01F060
:10394000E1FB08B1012000E0002018B14FF4C8707D
:10395000BDE8F08100BF00BF0CB9012000E00020ED
:1039600010B140F24C40F3E700BF00BF46F6EE3125
:103970002046FFF70AFE10B940F24D40E8E700BFCD
:1039800000BFFEF7D3FA074600BF207B58B9634853
:1039900001682046FFF7EFFE00BF3846FEF7CAFA7F
:1039A00000BF0020D4E7206901F09CFBA8B1207B78
:1039B000FF2807D100BF3846FEF7BCFA00BF40F22F
:1039C000EA30C5E7207B401C207300BF3846FEF775
:1039D000B1FA00BF40F2E930BAE7002185EA010000
:1039E0007140084307D100BF3846FEF7A3FA00BF75
:1039F0004FF49660ACE701F07EFB38B100BF38466B
:103A0000FEF798FA00BF40F2B140A1E7206990F8B4
:103A100021004249096891F82110884206DD3F4A99
:103A2000126892F82110206902F08EF82A46334677
:103A3000211D3A48006800F01CFB00BF3846FEF725
:103A400079FA00BF01F0D4FB3449096891F86000AD
:103A500000F0DBFA7CE7000041424E4F524D414CF2
:103A60000000000074736B206E616D653A20257351
:103A7000000000000A00000052554E4E494E47001B
:103A800050454E4454494D454F55545F535553503E
:103A9000454E44454400000050454E445F53555345
:103AA00050454E4445440000534C4545505F5355E6
:103AB0005350454E4445440050454E4454494D45AD
:103AC0004F55540050454E4400000000534C4545AE
:103AD00050000000524541445900000074736B20AF
:103AE000737461743A2025730000000073746B20B6
:103AF00073697A653A2025640000000073746B20B6
:103B0000626173653A2030782570000073746B2011
:103B1000746F70203A203078257000003800002043
:103B200010B504464FF0FF3213462046FFF700FF62
:103B300010BD70B50446002500BF01F0E3FA08B1DE
:103B4000012000E0002010B14FF4C87070BD00BF2C
:103B500000BF0CB9012000E0002010B140F24C4041
:103B6000F4E700BF00BF46F6EE312046FFF70DFD3B
:103B700010B940F24D40E9E700BF00BFFEF7D6F9AB
:103B8000054600BF206901F0ADFA38B900BF2846EC
:103B9000FEF7D0F900BF4FF47A70D7E7207B401EC4
:103BA0002073207B002807DD00BF2846FEF7C2F9FE
:103BB00000BF40F2E930C9E72046FFF7B9FD201DFC
:103BC00000F012FA30B100BF2846FEF7B3F900BF8B
:103BD0000020BBE7201D00F0EBF9064631462046E9
:103BE000FFF7D9FD0121201D00F061FA00BF284632
:103BF000FEF7A0F900BF01F0FBFA0020A6E70000E5
:103C00005060026041600860704748600160704722
:103C100010B50446D4E90010FFF7F7FF10BD0060AF
:103C20004060704770B505460C462146284622681C
:103C3000FFF7E6FF70BD70B505460C4622462846E4
:103C40006168FFF7DDFF70BD10B50446D4E90010D0
:103C5000FFF7DBFF10BD10B504462046FFF7D8FF85
:103C60002046FFF7DCFF10BD70B504460D46204628
:103C7000FFF7CEFF29462046FFF7D4FF70BD70B591
:103C800004460D462046FFF7C3FF29462046FFF7AE
:103C9000D2FF70BD01460868884201D101207047FB
:103CA0000020FCE70021016070470146086870476A
:103CB0000146086808B90020704700E009680868F4
:103CC0000028FBD10846F7E70A68026008607047E1
:103CD00070B505460C460020286000E02468206886
:103CE0000028FBD121462846FFF7EEFF70BD70B5D6
:103CF00005460E46144625B921463046FFF7E8FF33
:103D000070BD05E02068A84201D1266035602468B6
:103D100020680028F6D100BFF2E70146086808B91C
:103D2000002070470A681068086000201060104684
:103D3000F7E710B5044607E02068006818B9204688
:103D4000FFF7EBFF10BD246820680028F4D100BF06
:103D5000F8E706E00A68824202D102680A6003E0DE
:103D600009680A68002AF5D100BF704701460020A3
:103D70000A6801E0401C1268002AFBD17047024625
:103D800005E00868904201D1012070470968086881
:103D90000028F6D100BFF8E70146086808B90120FD
:103DA00070470020FCE702465088884201D101207C
:103DB00070470020FCE74180704700214180704738
:103DC00000210170704702210170704701210170CC
:103DD000704701460878022801D101207047002071
:103DE000FCE701460878012800D170470020FCE775
:103DF000014691F8200008B9012070470020FCE737
:103E0000014691F8200000F001007047014691F84A
:103E1000200000F002007047014691F8200000F0F9
:103E20000400704790F8201021F0020180F8201063
:103E3000704790F8201021F0010180F820107047A1
:103E400090F8201021F0040180F82010704790F8BD
:103E5000201041F0040180F82010704790F82010E5
:103E600041F0020180F820107047002180F82010F6
:103E70007047082180F82010704790F8201041F01A
:103E8000010180F82010704770B50446A1A500BF5D
:103E900004F10801A2A003F09DF8A5A003F09AF890
:103EA00001F0E2FBA04201D1A2A52DE094F8200090
:103EB000072801D1A1A527E094F82000062801D108
:103EC000A4A521E094F82000052801D1A5A51BE0B8
:103ED00094F82000032801D1A6A515E094F820004D
:103EE000042801D198A50FE094F82000022801D100
:103EF000A3A509E094F82000012801D1A2A503E0C0
:103F000094F8200000B9A2A52946A3A003F062F806
:103F100087A003F05FF8A4A0A16A03F05BF884A077
:103F200003F058F8A4A0616A03F054F880A003F0ED
:103F300051F8D4E909028118A3A003F04BF87CA042
:103F400003F048F87AA003F045F870BD70B5064656
:103F50000C462068A0F1480509E096F8210095F884
:103F60002110884200DA06E0A86CA0F1480505F1AE
:103F70004800A042F1D100BF05F1480106F1480018
:103F8000FFF759FEF4653046FFF768FF70BD70B566
:103F900004462046FFF77EFE08B1002001E02068BD
:103FA0004838054615B195F8210070BD0A20FCE798
:103FB000014608684838704710B5044604F14800C7
:103FC000FFF742FE0020E0652046FFF72BFF10BD03
:103FD00010B504462046FFF722FE10BD10B504467A
:103FE0002046FFF71CFE10BD10B504462046FFF723
:103FF00051FE10BD10B5044604F14800FFF724FE41
:104000002046E16DFFF7A2FF10BD0146012901D155
:1040100000207047022902D140F2B340F9E703299A
:1040200002D140F2B440F4E7042902D140F2B54095
:10403000EFE740F2B240ECE770B504460D4620468B
:10404000FFF7E4FE20B184F860502046FFF7B4FF8C
:104050002046FFF7D5FE10B1204602F090F9204629
:10406000FFF7DAFE00B170BD204600F09FFD00BFF3
:10407000F9E72DE9F04106460F4614461D46304645
:1040800000F0A6FD002086F8600039463046FFF7B4
:104090005DFF4FF0FF3184EA01006940084304D01E
:1040A00022462B46304602F05DF9BDE8F08170B53E
:1040B00004460D462168A1F148002946FFF7BCFFE0
:1040C00070BD2DE9F04105460F462868A0F148046F
:1040D000A06CA0F1480607E039462046FFF7ACFF88
:1040E0003446A06CA0F1480604F14800A842F3D180
:1040F000BDE8F08170B505460E46144624B9314638
:104100002846FFF7D4FF03E031462846FFF7D9FFE2
:1041100070BD000041424E4F524D414C0000000026
:1041200074736B206E616D653A202573000000008A
:104130000A00000052554E4E494E470050454E442D
:1041400054494D454F55545F53555350454E444582
:104150004400000050454E445F53555350454E4473
:1041600045440000534C4545505F53555350454E10
:104170004445440050454E4454494D454F55540024
:1041800050454E4400000000534C4545500000008F
:10419000524541445900000074736B20737461747C
:1041A0003A2025730000000073746B2073697A65F0
:1041B0003A2025640000000073746B20626173650F
:1041C0003A2030782570000073746B20746F702073
:1041D0003A2030782570000050600260416008602D
:1041E000704748600160704710B50446D4E900107C
:1041F000FFF7F7FF10BD00604060704770B50546DF
:104200000C46214628462268FFF7E6FF70BD70B5D0
:1042100005460C46224628466168FFF7DDFF70BD63
:1042200010B50446D4E90010FFF7DBFF10BD10B550
:1042300004462046FFF7D8FF2046FFF7DCFF10BDFD
:1042400070B504460D462046FFF7CEFF29462046AE
:10425000FFF7D4FF70BD70B504460D462046FFF74A
:10426000C3FF29462046FFF7D2FF70BD014608680C
:10427000884201D1012070470020FCE70021016045
:1042800070470146086870470146086808B9002071
:10429000704700E0096808680028FBD10846F7E786
:1042A0000A6802600860704770B505460C46002039
:1042B000286000E0246820680028FBD121462846B9
:1042C000FFF7EEFF70BD70B505460E46144625B9E2
:1042D00021463046FFF7E8FF70BD05E02068A842A0
:1042E00001D126603560246820680028F6D100BF1F
:1042F000F2E70146086808B9002070470A681068AC
:104300000860002010601046F7E710B5044607E08B
:104310002068006818B92046FFF7EBFF10BD24683D
:1043200020680028F4D100BFF8E706E00A6882425E
:1043300002D102680A6003E009680A68002AF5D120
:1043400000BF7047014600200A6801E0401C126867
:10435000002AFBD17047024605E00868904201D16F
:1043600001207047096808680028F6D100BFF8E707
:104370000146086808B9012070470020FCE70246A2
:104380005088884201D1012070470020FCE741801D
:104390007047002141807047002101707047022161
:1043A00001707047012101707047014608780228AA
:1043B00001D1012070470020FCE701460878012860
:1043C00000D170470020FCE7014691F8200008B9B1
:1043D000012070470020FCE7014691F8200000F022
:1043E00001007047014691F8200000F0020070477C
:1043F000014691F8200000F00400704790F820106A
:1044000021F0020180F82010704790F8201021F070
:10441000010180F82010704790F8201021F004016D
:1044200080F82010704790F8201041F0040180F8C7
:104430002010704790F8201041F0020180F8201001
:104440007047002180F820107047082180F8201064
:10445000704790F8201041F0010180F8201070475B
:1044600070B5044672A500BF04F1080173A002F004
:10447000B1FD76A002F0AEFD01F0F6F8A04201D148
:1044800073A52DE094F82000072801D172A527E03C
:1044900094F82000062801D175A521E094F82000A9
:1044A000052801D176A51BE094F82000032801D14E
:1044B00077A515E094F82000042801D169A50FE044
:1044C00094F82000022801D174A509E094F8200096
:1044D000012801D173A503E094F8200000B973A569
:1044E000294674A002F076FD58A002F073FD75A075
:1044F000A16A02F06FFD55A002F06CFD75A0616A23
:1045000002F068FD51A002F065FDD4E909028118AE
:1045100074A002F05FFD4DA002F05CFD4BA002F024
:1045200059FD70BD70B50446002500BFFDF7FEFCC7
:10453000054600BF14B16F48046002E064206D4975
:10454000086000BF2846FDF7F5FC00BF70BD70B5E0
:1045500004460D4600260CB96748046800BFFDF705
:10456000E5FC064600BF1DB962480068606600E0D1
:104570006566D4E91901884201D9606EA06600BF62
:104580003046FDF7D7FC00BF70BD70B5054600266C
:1045900000BFFDF7CBFC064600BF284600F0A5FA99
:1045A00004461CB1204600F099FE28B100BF3046F9
:1045B000FDF7C0FC00BF70BD284600F087FA28B1A7
:1045C00000BF3046FDF7B6FC00BFF4E700F093FDF6
:1045D00028B100BF3046FDF7ADFC00BFEBE7A06E91
:1045E00010B1A06E401EA066A06E28B100BF30467C
:1045F000FDF7A0FC00BFDEE73F49096891F8210004
:1046000000F006FB284600F070FA0446606E18B908
:1046100038480068A06601E0606EA06600BF3046C2
:10462000FDF788FC00BF00F0E3FD00BFC3E700001A
:1046300041424E4F524D414C0000000074736B20BC
:104640006E616D653A202573000000000A000000CD
:1046500052554E4E494E470050454E4454494D45E3
:104660004F55545F53555350454E44454400000048
:1046700050454E445F53555350454E444544000009
:10468000534C4545505F53555350454E44454400A7
:1046900050454E4454494D454F55540050454E44A5
:1046A00000000000534C4545500000005245414475
:1046B0005900000074736B20737461743A20257381
:1046C0000000000073746B2073697A653A202564DA
:1046D0000000000073746B20626173653A203078CB
:1046E0002570000073746B20746F70203A2030784E
:1046F000257000005C00002038000020506002603F
:1047000041600860704748600160704710B504461A
:10471000D4E90010FFF7F7FF10BD0060406070475C
:1047200070B505460C46214628462268FFF7E6FF8D
:1047300070BD70B505460C46224628466168FFF7F5
:10474000DDFF70BD10B50446D4E90010FFF7DBFFB4
:1047500010BD10B504462046FFF7D8FF2046FFF7EE
:10476000DCFF10BD70B504460D462046FFF7CEFFB6
:1047700029462046FFF7D4FF70BD70B504460D46AC
:104780002046FFF7C3FF29462046FFF7D2FF70BD42
:1047900001460868884201D1012070470020FCE7EB
:1047A00000210160704701460868704701460868AB
:1047B00008B90020704700E0096808680028FBD1AC
:1047C0000846F7E70A6802600860704770B505465A
:1047D0000C460020286000E0246820680028FBD1F7
:1047E00021462846FFF7EEFF70BD70B505460E4620
:1047F000144625B921463046FFF7E8FF70BD05E0B5
:104800002068A84201D1266035602468206800280D
:10481000F6D100BFF2E70146086808B900207047EA
:104820000A6810680860002010601046F7E710B5AD
:10483000044607E02068006818B92046FFF7EBFF40
:1048400010BD246820680028F4D100BFF8E706E016
:104850000A68824202D102680A6003E009680A68B5
:10486000002AF5D100BF7047014600200A6801E028
:10487000401C1268002AFBD17047024605E0086818
:10488000904201D101207047096808680028F6D1DC
:1048900000BFF8E70146086808B90120704700200A
:1048A000FCE702465088884201D101207047002071
:1048B000FCE7418070470021418070470021017072
:1048C0007047022101707047012101707047014655
:1048D0000878022801D1012070470020FCE701463A
:1048E0000878012800D170470020FCE7014691F8C4
:1048F000200008B9012070470020FCE7014691F82C
:10490000200000F001007047014691F8200000F0FF
:1049100002007047014691F8200000F00400704743
:1049200090F8201021F0020180F82010704790F8D4
:10493000201021F0010180F82010704790F820101D
:1049400021F0040180F82010704790F8201041F009
:10495000040180F82010704790F8201041F0020107
:1049600080F820107047002180F82010704708213F
:1049700080F82010704790F8201041F0010180F875
:104980002010704770B50446A9A500BF04F10801C6
:10499000AAA002F01FFBADA002F01CFB00F064FE19
:1049A000A04201D1AAA52DE094F82000072801D14A
:1049B000A9A527E094F82000062801D1ACA521E0A4
:1049C00094F82000052801D1ADA51BE094F8200043
:1049D000032801D1AEA515E094F82000042801D1E8
:1049E000A0A50FE094F82000022801D1ABA509E0B2
:1049F00094F82000012801D1AAA503E094F8200032
:104A000000B9AAA52946ABA002F0E4FA8FA002F0F3
:104A1000E1FAACA0A16A02F0DDFA8CA002F0DAFAA9
:104A2000ACA0616A02F0D6FA88A002F0D3FAD4E909
:104A300009028118ABA002F0CDFA84A002F0CAFAF4
:104A400082A002F0C7FA70BD70B50025A94C03E042
:104A500005F12000C5B2241D20680028F8D0206888
:104A6000FDF756FA2844C5B2284670BD4211A14947
:104A700051F8221000F01F02C2F11F0301229A40D8
:104A8000114343119B4A42F8231070474211994940
:104A900051F8221000F01F02C2F11F0301229A40B8
:104AA00091434311934A42F82310704710B50446CE
:104AB0002046FFF7DBFF8F48503890F85400A042A3
:104AC00003DD8C48503880F8544010BD01468948B9
:104AD000503800EBC1021068A0F14803986C904276
:104AE00001D1012070470020FCE770B504468148E1
:104AF000503800EBC4052846FFF74AFE08B10020F5
:104B000070BD28684838FBE77A48503890F8540060
:104B1000784A503A02EBC00108684838704710B52F
:104B20000A207449503981F85400002407E0714983
:104B3000503901EBC400FFF7F0FD601CC4B20A2C31
:104B4000F5D3002405E000216A4840F82410601CD9
:104B5000C4B2002CF7D010BD70B5044694F82150B3
:104B60006448503800EBC5063046FFF711FE10B11F
:104B70002846FFF79BFF314604F14800FFF7D0FDC0
:104B800070BD70B5044694F821505A48503800EB77
:104B9000C5063046FFF7FCFD10B12846FFF786FF3B
:104BA000314604F14800FFF7C4FD70BD10B504465E
:104BB00094F821005049096891F82110884203D1E6
:104BC0002046FFF7DEFF02E02046FFF7C5FF10BDDD
:104BD00070B5044694F821504648503800EBC5069D
:104BE00004F14800FFF7AEFD3046FFF7D1FD10B1EC
:104BF0002846FFF74BFF3F48503890F85400A84232
:104C000005D1FFF721FF3B49503981F8540070BDB1
:104C100070B505463748503800EBC5042046FFF70D
:104C2000B7FD18B921462068FFF7A7FD70BD000049
:104C300041424E4F524D414C0000000074736B20B6
:104C40006E616D653A202573000000000A000000C7
:104C500052554E4E494E470050454E4454494D45DD
:104C60004F55545F53555350454E44454400000042
:104C700050454E445F53555350454E444544000003
:104C8000534C4545505F53555350454E44454400A1
:104C900050454E4454494D454F55540050454E449F
:104CA00000000000534C454550000000524541446F
:104CB0005900000074736B20737461743A2025737B
:104CC0000000000073746B2073697A653A202564D4
:104CD0000000000073746B20626173653A203078C5
:104CE0002570000073746B20746F70203A20307848
:104CF00025700000B80900203800002050600260D4
:104D000041600860704748600160704710B5044614
:104D1000D4E90010FFF7F7FF10BD00604060704756
:104D200070B505460C46214628462268FFF7E6FF87
:104D300070BD70B505460C46224628466168FFF7EF
:104D4000DDFF70BD10B50446D4E90010FFF7DBFFAE
:104D500010BD10B504462046FFF7D8FF2046FFF7E8
:104D6000DCFF10BD70B504460D462046FFF7CEFFB0
:104D700029462046FFF7D4FF70BD70B504460D46A6
:104D80002046FFF7C3FF29462046FFF7D2FF70BD3C
:104D900001460868884201D1012070470020FCE7E5
:104DA00000210160704701460868704701460868A5
:104DB00008B90020704700E0096808680028FBD1A6
:104DC0000846F7E70A6802600860704770B5054654
:104DD0000C460020286000E0246820680028FBD1F1
:104DE00021462846FFF7EEFF70BD70B505460E461A
:104DF000144625B921463046FFF7E8FF70BD05E0AF
:104E00002068A84201D12660356024682068002807
:104E1000F6D100BFF2E70146086808B900207047E4
:104E20000A6810680860002010601046F7E710B5A7
:104E3000044607E02068006818B92046FFF7EBFF3A
:104E400010BD246820680028F4D100BFF8E706E010
:104E50000A68824202D102680A6003E009680A68AF
:104E6000002AF5D100BF7047014600200A6801E022
:104E7000401C1268002AFBD17047024605E0086812
:104E8000904201D101207047096808680028F6D1D6
:104E900000BFF8E70146086808B901207047002004
:104EA000FCE702465088884201D10120704700206B
:104EB000FCE741807047002141807047002101706C
:104EC000704702210170704701210170704701464F
:104ED0000878022801D1012070470020FCE7014634
:104EE0000878012800D170470020FCE7014691F8BE
:104EF000200008B9012070470020FCE7014691F826
:104F0000200000F001007047014691F8200000F0F9
:104F100002007047014691F8200000F0040070473D
:104F200090F8201021F0020180F82010704790F8CE
:104F3000201021F0010180F82010704790F8201017
:104F400021F0040180F82010704790F8201041F003
:104F5000040180F82010704790F8201041F0020101
:104F600080F820107047002180F820107047082139
:104F700080F82010704790F8201041F0010180F86F
:104F80002010704770B50446D8A500BF04F1080191
:104F9000D9A002F01FF8DCA002F01CF800F064FBBE
:104FA000A04201D1D9A52DE094F82000072801D115
:104FB000D8A527E094F82000062801D1DBA521E040
:104FC00094F82000052801D1DCA51BE094F820000E
:104FD000032801D1DDA515E094F82000042801D1B3
:104FE000CFA50FE094F82000022801D1DAA509E04E
:104FF00094F82000012801D1D9A503E094F82000FD
:1050000000B9D9A52946DAA001F0E4FFBEA001F05D
:10501000E1FFDBA0A16A01F0DDFFBBA001F0DAFF38
:10502000DBA0616A01F0D6FFB7A001F0D3FFD4E99D
:1050300009028118DAA001F0CDFFB3A001F0CAFF88
:10504000B1A001F0C7FF70BD00BF00BFFEE71FB5F4
:105050000020D7490968D74A12680923CDE90032F0
:10506000CDE902100346D44AD4A1D64800F03DFC55
:1050700004B010BD10B5FCF76CFFFFF750FD4FF406
:10508000C041D148FEF71FF804460CB1204610BDC0
:10509000FFF7DDFF04460CB12046F8E701F001FF01
:1050A00004460CB12046F2E70020F0E7C74800783C
:1050B000012800D170470020FCE700B5FFF7F6FF9C
:1050C00000B900BDC2480078FA2801DB012000E0E9
:1050D000002000B1F5E7BE480078401CBC490870CC
:1050E00000BFEEE70146BB480068814201D10120C4
:1050F00070470020FCE7B848007808B101207047ED
:105100000020FCE7B248007808B101207047002079
:10511000FCE710B50024FFF7C9FF00B910BD00BFC0
:10512000FCF704FF044600BFFFF7ECFF28B900BFFF
:105130002046FCF7FFFE00BFF0E7A5480078401EC0
:10514000A3490870FFF7DEFF28B100BF2046FCF737
:10515000F1FE00BFE2E7FFF7CEFF28B100BF204617
:10516000FCF7E8FE00BFD9E7FFF7CEFC9B490860DB
:1051700008460068FFF7B6FF28B100BF2046FCF7DD
:10518000D9FE00BFCAE7FCF7FDFE00BF2046FCF7D2
:10519000D1FE00BF00BFC1E710B5002400BFFFF77C
:1051A000B1FF08B1012000E0002010B14FF4C87039
:1051B00010BD00BFFFF77AFF10B94FF4FA70F7E7A0
:1051C00085480078FA2802DB4FF41670F0E700BF3C
:1051D000FCF7ACFE044600BF7F480078401C7E49C7
:1051E000087000BF2046FCF7A5FE00BF0020DFE7E7
:1051F00010B50024FFF75AFF08B9012000E0002095
:1052000000B110BDFFF77EFF00B1FAE7FFF773FFB3
:1052100000B1F6E700BFFCF789FE044600BFFFF7C8
:1052200073FC6E49086008460068FFF75BFF28B111
:1052300000BF2046FCF77EFE00BFE2E7FCF79EFEC3
:1052400000BF2046FCF776FE00BF00BFD9E710B5CF
:10525000002400BFFFF756FF08B1012000E0002046
:1052600010B14FF4C87010BD00BFFFF71FFF10B999
:105270004FF4FA70F7E7FFF73EFF10B940F2A56070
:10528000F1E700BFFCF752FE044600BF5248007829
:10529000401E5149087000BF2046FCF74BFE00BF7E
:1052A000FFF7A6FF0020DEE710B5FFF7FFFE08B10D
:1052B000012000E0002010B140F2F51010BDFFF712
:1052C00023FC4649086008460068424908600120FE
:1052D0003E490870FCF750FE0020EFE701463948D0
:1052E000814201D1012070470020FCE741424E4F2E
:1052F000524D414C0000000074736B206E616D656F
:105300003A202573000000000A00000052554E4E5E
:10531000494E470050454E4454494D454F55545F02
:1053200053555350454E44454400000050454E44AB
:105330005F53555350454E4445440000534C45453A
:10534000505F53555350454E4445440050454E44DC
:1053500054494D454F55540050454E4400000000FF
:10536000534C45455000000052454144590000004F
:1053700074736B20737461743A202573000000000D
:1053800073746B2073697A653A202564000000000D
:1053900073746B20626173653A2030782570000069
:1053A00073746B20746F70203A2030782570000081
:1053B000D8720008D47200084950000869646C650E
:1053C00000000000C0090020880A00202A000020F8
:1053D0002800002038000020290000203C00002088
:1053E000506002604160086070474860016070472B
:1053F00010B50446D4E90010FFF7F7FF10BD0060B8
:105400004060704770B505460C4621462846226824
:10541000FFF7E6FF70BD70B505460C4622462846EC
:105420006168FFF7DDFF70BD10B50446D4E90010D8
:10543000FFF7DBFF10BD10B504462046FFF7D8FF8D
:105440002046FFF7DCFF10BD70B504460D46204630
:10545000FFF7CEFF29462046FFF7D4FF70BD70B599
:1054600004460D462046FFF7C3FF29462046FFF7B6
:10547000D2FF70BD01460868884201D10120704703
:105480000020FCE700210160704701460868704772
:105490000146086808B90020704700E009680868FC
:1054A0000028FBD10846F7E70A68026008607047E9
:1054B00070B505460C460020286000E0246820688E
:1054C0000028FBD121462846FFF7EEFF70BD70B5DE
:1054D00005460E46144625B921463046FFF7E8FF3B
:1054E00070BD05E02068A84201D1266035602468BF
:1054F00020680028F6D100BFF2E70146086808B925
:10550000002070470A68106808600020106010468C
:10551000F7E710B5044607E02068006818B9204690
:10552000FFF7EBFF10BD246820680028F4D100BF0E
:10553000F8E706E00A68824202D102680A6003E0E6
:1055400009680A68002AF5D100BF704701460020AB
:105550000A6801E0401C1268002AFBD1704702462D
:1055600005E00868904201D1012070470968086889
:105570000028F6D100BFF8E70146086808B9012005
:1055800070470020FCE702465088884201D1012084
:1055900070470020FCE74180704700214180704740
:1055A00000210170704702210170704701210170D4
:1055B000704701460878022801D101207047002079
:1055C000FCE701460878012800D170470020FCE77D
:1055D000014691F8200008B9012070470020FCE73F
:1055E000014691F8200000F001007047014691F853
:1055F000200000F002007047014691F8200000F002
:105600000400704790F8201021F0020180F820106B
:10561000704790F8201021F0010180F820107047A9
:1056200090F8201021F0040180F82010704790F8C5
:10563000201041F0040180F82010704790F82010ED
:1056400041F0020180F820107047002180F82010FE
:105650007047082180F82010704790F8201041F022
:10566000010180F82010704770B50024002500BFAC
:10567000FCF75CFC044600BFFFF718FD08B10120F1
:1056800000E0002008B1FB48056800BF2046FCF799
:1056900051FC00BF284670BD70B50446F6A500BF9A
:1056A00004F10801F7A001F095FCFAA001F092FCCA
:1056B000FFF7DAFFA04201D1F7A52DE094F8200012
:1056C000072801D1F6A527E094F82000062801D18B
:1056D000F9A521E094F82000052801D1FAA51BE0E6
:1056E00094F82000032801D1FBA515E094F82000D0
:1056F000042801D1EDA50FE094F82000022801D183
:10570000F8A509E094F82000012801D1F7A503E0ED
:1057100094F8200000B9F7A52946F8A001F05AFC3A
:10572000DCA001F057FCF9A0A16A01F053FCD9A05C
:1057300001F050FCF9A0616A01F04CFCD5A001F029
:1057400049FCD4E909028118F8A001F043FCD1A07A
:1057500001F040FCCFA001F03DFC70BD10B5044647
:1057600004F12C00FFF74BFE04F14000FFF747FE69
:1057700004F14800FFF743FE04F15000FFF73FFE3D
:105780000A2084F85800002084F86000E065201D9D
:10579000FFF703FF10BD70B50546286DA0F1180492
:1057A000A069A0F1180606E02046FEF708F8344686
:1057B000A069A0F1180604F1180005F15001884213
:1057C000F2D170BD70B5044600252046FFF786FD76
:1057D00010B140F26D7070BD00BFFCF7A7FB05462D
:1057E00000BF04F15000FFF745FE10B92046FFF757
:1057F000D2FF2046FFF7ECFE10B12046FFF7E8F994
:105800002046FFF7EDFE10B1204600F0B8FD20461F
:10581000FFF7ECFE10B12046FEF7CEFB04F12C00A2
:10582000FFF702FE2046FFF799FF2046FFF711FF22
:1058300000BF2846FCF77EFB00BFFFF7D9FC002025
:10584000C9E710B504462046FFF7BCFF10BD10B5F0
:10585000044600BFFFF756FC08B1012000E000201D
:1058600010B14FF4C87010BD00BF0CB9012000E0AA
:10587000002008B17F48046800BF4DF6D821201DE4
:10588000FFF781FE10B940F24D40ECE700BF204623
:10589000FFF728FC28B1FFF72EFC10B140F2A460FE
:1058A000E1E72046FFF7CDFFDDE710B50020FFF769
:1058B000CEFF10BD2DE9F04105460A27286DA0F165
:1058C000180609E0301DFEF762FB0446BC4200DA10
:1058D0002746B069A0F1180606F1180005F150013D
:1058E0008842EFD13846BDE8F0812DE9FC5F0446DF
:1058F0008B4615461E460CAF97E8800700200190A6
:1059000000BFFFF7FFFB08B1012000E0002018B145
:105910004FF4C870BDE8FC9F00BF00BF0CB9012068
:1059200000E0002010B140F24C40F3E700BF00BFA0
:105930000DB9012000E0002010B140F24C40E9E731
:1059400000BF00BFB8F1000F01D1012000E000202E
:1059500010B140F24C40DDE700BF00BF4DF6D8214A
:10596000201DFFF710FE10B140F26C70D2E700BFAF
:10597000B9F1400F01D2012000E0002010B140F247
:105980007470C7E7092F05D12046FFF7A7FC08B9B7
:10599000012000E0002010B140F26F70BAE7092F3B
:1059A00001DD012000E0002010B140F26F70B1E78E
:1059B0002046FFF7D3FE614904F12C00FFF722FDDA
:1059C0004DF6D821201DFFF7E6FD43465C4A3146DF
:1059D0002846CDF80090FCF7D9FA2060A561E66171
:1059E00084F82170C4F82480C4F828900F22594606
:1059F00004F1080001F0B1FAC4F864A0BAF1000F94
:105A000003D150480068A06601E0C4F868A000BF58
:105A1000FCF78CFA019000BF2046FFF716FE2046E7
:105A2000FFF7AFF800BF0198FCF784FA00BFFFF75B
:105A30003DFB08B1FFF7DCFB00206BE710B500244D
:105A4000FFF760FB00B110BD00BFFCF76FFA044622
:105A500000BF08480068FFF7BBF806480068FFF77A
:105A600090F800BF2046FCF765FA00BFFFF7C0FBC7
:105A700000BFE8E73800002041424E4F524D414CF4
:105A80000000000074736B206E616D653A20257311
:105A9000000000000A00000052554E4E494E4700DB
:105AA00050454E4454494D454F55545F53555350FE
:105AB000454E44454400000050454E445F53555305
:105AC00050454E4445440000534C4545505F5355A6
:105AD0005350454E4445440050454E4454494D456D
